{
  "address": "0x16504a23292496E994bA0bA0968F78b5728adE36",
  "abi": [
    {
      "inputs": [
        {
          "internalType": "address",
          "name": "_pairFactoryAddress",
          "type": "address"
        }
      ],
      "stateMutability": "nonpayable",
      "type": "constructor"
    },
    {
      "inputs": [],
      "name": "DECIMALS",
      "outputs": [
        {
          "internalType": "uint256",
          "name": "",
          "type": "uint256"
        }
      ],
      "stateMutability": "view",
      "type": "function"
    },
    {
      "inputs": [
        {
          "internalType": "address",
          "name": "_tokenIn",
          "type": "address"
        },
        {
          "internalType": "address",
          "name": "_tokenOut",
          "type": "address"
        }
      ],
      "name": "computeAllRoutes",
      "outputs": [
        {
          "components": [
            {
              "internalType": "contract IUniswapV2Pair",
              "name": "pair",
              "type": "address"
            },
            {
              "internalType": "uint256",
              "name": "price",
              "type": "uint256"
            },
            {
              "internalType": "address",
              "name": "inToken",
              "type": "address"
            },
            {
              "internalType": "address",
              "name": "outToken",
              "type": "address"
            }
          ],
          "internalType": "struct PriceFetcher.PairWithPrice[][]",
          "name": "",
          "type": "tuple[][]"
        }
      ],
      "stateMutability": "view",
      "type": "function"
    },
    {
      "inputs": [
        {
          "internalType": "address",
          "name": "_tokenIn",
          "type": "address"
        },
        {
          "internalType": "address",
          "name": "_tokenOut",
          "type": "address"
        },
        {
          "internalType": "contract IUniswapV2Pair[]",
          "name": "_pools",
          "type": "address[]"
        },
        {
          "internalType": "uint256",
          "name": "_maxHops",
          "type": "uint256"
        }
      ],
      "name": "computeAllRoutes",
      "outputs": [
        {
          "components": [
            {
              "internalType": "contract IUniswapV2Pair",
              "name": "pair",
              "type": "address"
            },
            {
              "internalType": "uint256",
              "name": "price",
              "type": "uint256"
            },
            {
              "internalType": "address",
              "name": "inToken",
              "type": "address"
            },
            {
              "internalType": "address",
              "name": "outToken",
              "type": "address"
            }
          ],
          "internalType": "struct PriceFetcher.PairWithPrice[][]",
          "name": "",
          "type": "tuple[][]"
        }
      ],
      "stateMutability": "view",
      "type": "function"
    },
    {
      "inputs": [
        {
          "internalType": "address",
          "name": "_tokenIn",
          "type": "address"
        },
        {
          "internalType": "address",
          "name": "_tokenOut",
          "type": "address"
        },
        {
          "internalType": "contract IUniswapV2Pair[]",
          "name": "_pools",
          "type": "address[]"
        },
        {
          "internalType": "uint256",
          "name": "_maxHops",
          "type": "uint256"
        },
        {
          "components": [
            {
              "internalType": "contract IUniswapV2Pair",
              "name": "pair",
              "type": "address"
            },
            {
              "internalType": "uint256",
              "name": "price",
              "type": "uint256"
            },
            {
              "internalType": "address",
              "name": "inToken",
              "type": "address"
            },
            {
              "internalType": "address",
              "name": "outToken",
              "type": "address"
            }
          ],
          "internalType": "struct PriceFetcher.PairWithPrice[][]",
          "name": "_routes",
          "type": "tuple[][]"
        },
        {
          "components": [
            {
              "internalType": "uint256",
              "name": "value",
              "type": "uint256"
            }
          ],
          "internalType": "struct PriceFetcher.Counter",
          "name": "_routesCount",
          "type": "tuple"
        },
        {
          "components": [
            {
              "internalType": "contract IUniswapV2Pair",
              "name": "pair",
              "type": "address"
            },
            {
              "internalType": "uint256",
              "name": "price",
              "type": "uint256"
            },
            {
              "internalType": "address",
              "name": "inToken",
              "type": "address"
            },
            {
              "internalType": "address",
              "name": "outToken",
              "type": "address"
            }
          ],
          "internalType": "struct PriceFetcher.PairWithPrice[]",
          "name": "_currentRoute",
          "type": "tuple[]"
        },
        {
          "internalType": "uint256",
          "name": "_currentRouteCount",
          "type": "uint256"
        },
        {
          "internalType": "bool[]",
          "name": "_poolsUsed",
          "type": "bool[]"
        },
        {
          "internalType": "address",
          "name": "_previousTokenOut",
          "type": "address"
        }
      ],
      "name": "computeRoutes",
      "outputs": [],
      "stateMutability": "view",
      "type": "function"
    },
    {
      "inputs": [],
      "name": "getAllPairs",
      "outputs": [
        {
          "internalType": "contract IUniswapV2Pair[]",
          "name": "",
          "type": "address[]"
        }
      ],
      "stateMutability": "view",
      "type": "function"
    },
    {
      "inputs": [
        {
          "internalType": "address",
          "name": "_tokenAddress",
          "type": "address"
        },
        {
          "internalType": "contract IUniswapV2Pair",
          "name": "_pair",
          "type": "address"
        }
      ],
      "name": "involvesToken",
      "outputs": [
        {
          "internalType": "bool",
          "name": "",
          "type": "bool"
        }
      ],
      "stateMutability": "view",
      "type": "function"
    },
    {
      "inputs": [],
      "name": "pairFactoryAddress",
      "outputs": [
        {
          "internalType": "address",
          "name": "",
          "type": "address"
        }
      ],
      "stateMutability": "view",
      "type": "function"
    },
    {
      "inputs": [
        {
          "internalType": "address",
          "name": "_baseTokenAddress",
          "type": "address"
        },
        {
          "internalType": "address",
          "name": "_tokenAddress",
          "type": "address"
        }
      ],
      "name": "quote",
      "outputs": [
        {
          "internalType": "uint256",
          "name": "",
          "type": "uint256"
        },
        {
          "internalType": "uint256",
          "name": "",
          "type": "uint256"
        }
      ],
      "stateMutability": "view",
      "type": "function"
    },
    {
      "inputs": [
        {
          "internalType": "contract IUniswapV2Pair",
          "name": "_pair",
          "type": "address"
        },
        {
          "internalType": "address",
          "name": "_tokenAddress",
          "type": "address"
        }
      ],
      "name": "quoteForPair",
      "outputs": [
        {
          "internalType": "uint256",
          "name": "",
          "type": "uint256"
        }
      ],
      "stateMutability": "view",
      "type": "function"
    },
    {
      "inputs": [
        {
          "components": [
            {
              "internalType": "contract IUniswapV2Pair",
              "name": "pair",
              "type": "address"
            },
            {
              "internalType": "uint256",
              "name": "price",
              "type": "uint256"
            },
            {
              "internalType": "address",
              "name": "inToken",
              "type": "address"
            },
            {
              "internalType": "address",
              "name": "outToken",
              "type": "address"
            }
          ],
          "internalType": "struct PriceFetcher.PairWithPrice[]",
          "name": "_route",
          "type": "tuple[]"
        },
        {
          "internalType": "uint256",
          "name": "_size",
          "type": "uint256"
        }
      ],
      "name": "resizeRoute",
      "outputs": [
        {
          "components": [
            {
              "internalType": "contract IUniswapV2Pair",
              "name": "pair",
              "type": "address"
            },
            {
              "internalType": "uint256",
              "name": "price",
              "type": "uint256"
            },
            {
              "internalType": "address",
              "name": "inToken",
              "type": "address"
            },
            {
              "internalType": "address",
              "name": "outToken",
              "type": "address"
            }
          ],
          "internalType": "struct PriceFetcher.PairWithPrice[]",
          "name": "",
          "type": "tuple[]"
        }
      ],
      "stateMutability": "pure",
      "type": "function"
    },
    {
      "inputs": [
        {
          "components": [
            {
              "internalType": "contract IUniswapV2Pair",
              "name": "pair",
              "type": "address"
            },
            {
              "internalType": "uint256",
              "name": "price",
              "type": "uint256"
            },
            {
              "internalType": "address",
              "name": "inToken",
              "type": "address"
            },
            {
              "internalType": "address",
              "name": "outToken",
              "type": "address"
            }
          ],
          "internalType": "struct PriceFetcher.PairWithPrice[][]",
          "name": "_routes",
          "type": "tuple[][]"
        },
        {
          "internalType": "uint256",
          "name": "_size",
          "type": "uint256"
        }
      ],
      "name": "resizeRoutes",
      "outputs": [
        {
          "components": [
            {
              "internalType": "contract IUniswapV2Pair",
              "name": "pair",
              "type": "address"
            },
            {
              "internalType": "uint256",
              "name": "price",
              "type": "uint256"
            },
            {
              "internalType": "address",
              "name": "inToken",
              "type": "address"
            },
            {
              "internalType": "address",
              "name": "outToken",
              "type": "address"
            }
          ],
          "internalType": "struct PriceFetcher.PairWithPrice[][]",
          "name": "",
          "type": "tuple[][]"
        }
      ],
      "stateMutability": "pure",
      "type": "function"
    },
    {
      "inputs": [
        {
          "internalType": "address",
          "name": "_pairFactoryAddress",
          "type": "address"
        }
      ],
      "name": "setPairFactoryAddress",
      "outputs": [],
      "stateMutability": "nonpayable",
      "type": "function"
    }
  ],
  "transactionHash": "0xb1ab91a2dee0e98c5b7281360fac9c60f4e44f7fd17e156628130bb0d667cf39",
  "args": [
    "0x5C69bEe701ef814a2B6a3EDD4B1652CB9cc5aA6f"
  ],
  "numDeployments": 1,
  "solcInputHash": "9e58bda5105bb4a60ed5dd6fc860ab28",
  "bytecode": "0x60806040523480156200001157600080fd5b5060405162003117380380620031178339818101604052810190620000379190620000ea565b62000048816200004f60201b60201c565b5062000164565b806000806101000a81548173ffffffffffffffffffffffffffffffffffffffff021916908373ffffffffffffffffffffffffffffffffffffffff16021790555080600160006101000a81548173ffffffffffffffffffffffffffffffffffffffff021916908373ffffffffffffffffffffffffffffffffffffffff16021790555050565b600081519050620000e4816200014a565b92915050565b600060208284031215620000fd57600080fd5b60006200010d84828501620000d3565b91505092915050565b600062000123826200012a565b9050919050565b600073ffffffffffffffffffffffffffffffffffffffff82169050919050565b620001558162000116565b81146200016157600080fd5b50565b612fa380620001746000396000f3fe608060405234801561001057600080fd5b50600436106100b45760003560e01c806384051d8e1161007157806384051d8e146101b45780638cb6effb146101e45780639892c7f1146102005780639e9fc6b71461021e578063f7377a281461024e578063f800ece91461027e576100b4565b80632e0f2625146100b95780633a1f656e146100d75780634a5aa711146100f357806356b6a67e1461012457806358ca03961461015457806370e3bb2914610184575b600080fd5b6100c161029c565b6040516100ce919061264a565b60405180910390f35b6100f160048036038101906100ec9190611f27565b6102a1565b005b61010d60048036038101906101089190611f79565b610325565b60405161011b929190612665565b60405180910390f35b61013e6004803603810190610139919061224f565b610600565b60405161014b919061264a565b60405180910390f35b61016e60048036038101906101699190611f79565b610a80565b60405161017b91906125c9565b60405180910390f35b61019e60048036038101906101999190611fb5565b610aa4565b6040516101ab91906125c9565b60405180910390f35b6101ce60048036038101906101c991906121fb565b610c4a565b6040516101db919061260d565b60405180910390f35b6101fe60048036038101906101f99190612030565b610d78565b005b6102086112a9565b60405161021591906125ae565b60405180910390f35b6102386004803603810190610233919061216b565b6112cd565b604051610245919061262f565b60405180910390f35b610268600480360381019061026391906121a7565b611304565b60405161027591906125c9565b60405180910390f35b61028661142c565b60405161029391906125eb565b60405180910390f35b600681565b806000806101000a81548173ffffffffffffffffffffffffffffffffffffffff021916908373ffffffffffffffffffffffffffffffffffffffff16021790555080600160006101000a81548173ffffffffffffffffffffffffffffffffffffffff021916908373ffffffffffffffffffffffffffffffffffffffff16021790555050565b6000808273ffffffffffffffffffffffffffffffffffffffff168473ffffffffffffffffffffffffffffffffffffffff1614156103695760016006915091506105f9565b60006103758486610a80565b905060008151141561038f576000600692509250506105f9565b6000815167ffffffffffffffff8111156103d2577f4e487b7100000000000000000000000000000000000000000000000000000000600052604160045260246000fd5b6040519080825280602002602001820160405280156104005781602001602082028036833780820191505090505b50905060005b825181101561059457600083828151811061044a577f4e487b7100000000000000000000000000000000000000000000000000000000600052603260045260246000fd5b60200260200101519050600080600090505b82518110156105385760008214156104ba578281815181106104a7577f4e487b7100000000000000000000000000000000000000000000000000000000600052603260045260246000fd5b6020026020010151602001519150610525565b6006600a6104c891906129a1565b838281518110610501577f4e487b7100000000000000000000000000000000000000000000000000000000600052603260045260246000fd5b602002602001015160200151610517919061291d565b826105229190612b0a565b91505b808061053090612dd8565b91505061045c565b5080848481518110610573577f4e487b7100000000000000000000000000000000000000000000000000000000600052603260045260246000fd5b6020026020010181815250505050808061058c90612dd8565b915050610406565b506105ae816000600184516105a99190612bf8565b611696565b806000815181106105e8577f4e487b7100000000000000000000000000000000000000000000000000000000600052603260045260246000fd5b602002602001015160069350935050505b9250929050565b6000808273ffffffffffffffffffffffffffffffffffffffff168473ffffffffffffffffffffffffffffffffffffffff16630dfe16816040518163ffffffff1660e01b815260040160206040518083038186803b15801561066057600080fd5b505afa158015610674573d6000803e3d6000fd5b505050506040513d601f19601f820116820180604052508101906106989190611f50565b73ffffffffffffffffffffffffffffffffffffffff1614610736578373ffffffffffffffffffffffffffffffffffffffff16630dfe16816040518163ffffffff1660e01b815260040160206040518083038186803b1580156106f957600080fd5b505afa15801561070d573d6000803e3d6000fd5b505050506040513d601f19601f820116820180604052508101906107319190611f50565b6107b5565b8373ffffffffffffffffffffffffffffffffffffffff1663d21220a76040518163ffffffff1660e01b815260040160206040518083038186803b15801561077c57600080fd5b505afa158015610790573d6000803e3d6000fd5b505050506040513d601f19601f820116820180604052508101906107b49190611f50565b5b9050600083905060008290506000808773ffffffffffffffffffffffffffffffffffffffff16630902f1ac6040518163ffffffff1660e01b815260040160606040518083038186803b15801561080a57600080fd5b505afa15801561081e573d6000803e3d6000fd5b505050506040513d601f19601f82011682018060405250810190610842919061228b565b506dffffffffffffffffffffffffffff1691506dffffffffffffffffffffffffffff1691508473ffffffffffffffffffffffffffffffffffffffff168873ffffffffffffffffffffffffffffffffffffffff16630dfe16816040518163ffffffff1660e01b815260040160206040518083038186803b1580156108c457600080fd5b505afa1580156108d8573d6000803e3d6000fd5b505050506040513d601f19601f820116820180604052508101906108fc9190611f50565b73ffffffffffffffffffffffffffffffffffffffff1614610924576000829050819250809150505b8373ffffffffffffffffffffffffffffffffffffffff1663313ce5676040518163ffffffff1660e01b815260040160206040518083038186803b15801561096a57600080fd5b505afa15801561097e573d6000803e3d6000fd5b505050506040513d601f19601f820116820180604052508101906109a29190612303565b600a6109ae91906129ec565b826109b99190612b0a565b915060068373ffffffffffffffffffffffffffffffffffffffff1663313ce5676040518163ffffffff1660e01b815260040160206040518083038186803b158015610a0357600080fd5b505afa158015610a17573d6000803e3d6000fd5b505050506040513d601f19601f82011682018060405250810190610a3b9190612303565b60ff16610a489190612bf8565b600a610a5491906129a1565b81610a5f9190612b0a565b905060008183610a6f919061291d565b905080965050505050505092915050565b60606000610a8c61142c565b9050610a9b848483600a610aa4565b91505092915050565b60606000835167ffffffffffffffff811115610ae9577f4e487b7100000000000000000000000000000000000000000000000000000000600052604160045260246000fd5b604051908082528060200260200182016040528015610b1c57816020015b6060815260200190600190039081610b075790505b5090506000604051806020016040528060008152509050610c308787878786868b5167ffffffffffffffff811115610b7d577f4e487b7100000000000000000000000000000000000000000000000000000000600052604160045260246000fd5b604051908082528060200260200182016040528015610bb657816020015b610ba3611ae2565b815260200190600190039081610b9b5790505b5060008d5167ffffffffffffffff811115610bfa577f4e487b7100000000000000000000000000000000000000000000000000000000600052604160045260246000fd5b604051908082528060200260200182016040528015610c285781602001602082028036833780820191505090505b506000610d78565b610c3e828260000151611304565b92505050949350505050565b606060008267ffffffffffffffff811115610c8e577f4e487b7100000000000000000000000000000000000000000000000000000000600052604160045260246000fd5b604051908082528060200260200182016040528015610cc757816020015b610cb4611ae2565b815260200190600190039081610cac5790505b50905060005b83811015610d6d57848181518110610d0e577f4e487b7100000000000000000000000000000000000000000000000000000000600052603260045260246000fd5b6020026020010151828281518110610d4f577f4e487b7100000000000000000000000000000000000000000000000000000000600052603260045260246000fd5b60200260200101819052508080610d6590612dd8565b915050610ccd565b508091505092915050565b86831115610d855761129d565b600083118015610deb5750610dea8985600186610da29190612bf8565b81518110610dd9577f4e487b7100000000000000000000000000000000000000000000000000000000600052603260045260246000fd5b6020026020010151600001516112cd565b5b15610e5757610dfa8484610c4a565b86866000018051809190610e0d90612dd8565b81525081518110610e47577f4e487b7100000000000000000000000000000000000000000000000000000000600052603260045260246000fd5b602002602001018190525061129d565b60005b885181101561129b57828181518110610e9c577f4e487b7100000000000000000000000000000000000000000000000000000000600052603260045260246000fd5b602002602001015115610eae57611288565b6000898281518110610ee9577f4e487b7100000000000000000000000000000000000000000000000000000000600052603260045260246000fd5b6020026020010151905060008073ffffffffffffffffffffffffffffffffffffffff168473ffffffffffffffffffffffffffffffffffffffff161415610f2f578c610f31565b835b9050610f3d81836112cd565b610f48575050611288565b60008173ffffffffffffffffffffffffffffffffffffffff168373ffffffffffffffffffffffffffffffffffffffff16630dfe16816040518163ffffffff1660e01b815260040160206040518083038186803b158015610fa757600080fd5b505afa158015610fbb573d6000803e3d6000fd5b505050506040513d601f19601f82011682018060405250810190610fdf9190611f50565b73ffffffffffffffffffffffffffffffffffffffff161461107d578273ffffffffffffffffffffffffffffffffffffffff16630dfe16816040518163ffffffff1660e01b815260040160206040518083038186803b15801561104057600080fd5b505afa158015611054573d6000803e3d6000fd5b505050506040513d601f19601f820116820180604052508101906110789190611f50565b6110fc565b8273ffffffffffffffffffffffffffffffffffffffff1663d21220a76040518163ffffffff1660e01b815260040160206040518083038186803b1580156110c357600080fd5b505afa1580156110d7573d6000803e3d6000fd5b505050506040513d601f19601f820116820180604052508101906110fb9190611f50565b5b9050600061110a8484610600565b905060405180608001604052808573ffffffffffffffffffffffffffffffffffffffff1681526020018281526020018473ffffffffffffffffffffffffffffffffffffffff1681526020018373ffffffffffffffffffffffffffffffffffffffff1681525089898061117b90612dd8565b9a50815181106111b4577f4e487b7100000000000000000000000000000000000000000000000000000000600052603260045260246000fd5b602002602001018190525060018786815181106111fa577f4e487b7100000000000000000000000000000000000000000000000000000000600052603260045260246000fd5b60200260200101901515908115158152505061121e8f8f8f8f8f8f8f8f8f8b610d78565b6000878681518110611259577f4e487b7100000000000000000000000000000000000000000000000000000000600052603260045260246000fd5b602002602001019015159081151581525050600088111561128357878061127f90612d34565b9850505b505050505b808061129390612dd8565b915050610e5a565b505b50505050505050505050565b60008054906101000a900473ffffffffffffffffffffffffffffffffffffffff1681565b60007fffffffffffffffffffffffffffffffffffffffffffffffffffffffffffffffff6112fa8484611942565b1415905092915050565b606060008267ffffffffffffffff811115611348577f4e487b7100000000000000000000000000000000000000000000000000000000600052604160045260246000fd5b60405190808252806020026020018201604052801561137b57816020015b60608152602001906001900390816113665790505b50905060005b83811015611421578481815181106113c2577f4e487b7100000000000000000000000000000000000000000000000000000000600052603260045260246000fd5b6020026020010151828281518110611403577f4e487b7100000000000000000000000000000000000000000000000000000000600052603260045260246000fd5b6020026020010181905250808061141990612dd8565b915050611381565b508091505092915050565b60606000600160009054906101000a900473ffffffffffffffffffffffffffffffffffffffff1673ffffffffffffffffffffffffffffffffffffffff1663574f2ba36040518163ffffffff1660e01b815260040160206040518083038186803b15801561149857600080fd5b505afa1580156114ac573d6000803e3d6000fd5b505050506040513d601f19601f820116820180604052508101906114d091906122da565b905060008167ffffffffffffffff811115611514577f4e487b7100000000000000000000000000000000000000000000000000000000600052604160045260246000fd5b6040519080825280602002602001820160405280156115425781602001602082028036833780820191505090505b50905060005b8281101561168d576000600160009054906101000a900473ffffffffffffffffffffffffffffffffffffffff1673ffffffffffffffffffffffffffffffffffffffff16631e3dd18b836040518263ffffffff1660e01b81526004016115ad919061264a565b60206040518083038186803b1580156115c557600080fd5b505afa1580156115d9573d6000803e3d6000fd5b505050506040513d601f19601f820116820180604052508101906115fd9190611f50565b905060008190508084848151811061163e577f4e487b7100000000000000000000000000000000000000000000000000000000600052603260045260246000fd5b602002602001019073ffffffffffffffffffffffffffffffffffffffff16908173ffffffffffffffffffffffffffffffffffffffff16815250505050808061168590612dd8565b915050611548565b50809250505090565b60008290506000829050808214156116af57505061193d565b600085600286866116c09190612b64565b6116ca91906128b3565b866116d5919061281f565b8151811061170c577f4e487b7100000000000000000000000000000000000000000000000000000000600052603260045260246000fd5b602002602001015190505b818313611911575b80868481518110611759577f4e487b7100000000000000000000000000000000000000000000000000000000600052603260045260246000fd5b6020026020010151111561177a57828061177290612d8f565b93505061171f565b5b8582815181106117b4577f4e487b7100000000000000000000000000000000000000000000000000000000600052603260045260246000fd5b60200260200101518111156117d65781806117ce90612ceb565b92505061177b565b81831361190c576000868381518110611818577f4e487b7100000000000000000000000000000000000000000000000000000000600052603260045260246000fd5b6020026020010151905086848151811061185b577f4e487b7100000000000000000000000000000000000000000000000000000000600052603260045260246000fd5b602002602001015187848151811061189c577f4e487b7100000000000000000000000000000000000000000000000000000000600052603260045260246000fd5b602002602001018181525050808785815181106118e2577f4e487b7100000000000000000000000000000000000000000000000000000000600052603260045260246000fd5b60200260200101818152505083806118f990612d8f565b945050828061190790612ceb565b935050505b611717565b8185121561192557611924868684611696565b5b8383121561193957611938868486611696565b5b5050505b505050565b60008273ffffffffffffffffffffffffffffffffffffffff168273ffffffffffffffffffffffffffffffffffffffff16630dfe16816040518163ffffffff1660e01b815260040160206040518083038186803b1580156119a157600080fd5b505afa1580156119b5573d6000803e3d6000fd5b505050506040513d601f19601f820116820180604052508101906119d99190611f50565b73ffffffffffffffffffffffffffffffffffffffff1614156119fe5760009050611adc565b8273ffffffffffffffffffffffffffffffffffffffff168273ffffffffffffffffffffffffffffffffffffffff1663d21220a76040518163ffffffff1660e01b815260040160206040518083038186803b158015611a5b57600080fd5b505afa158015611a6f573d6000803e3d6000fd5b505050506040513d601f19601f82011682018060405250810190611a939190611f50565b73ffffffffffffffffffffffffffffffffffffffff161415611ab85760019050611adc565b7fffffffffffffffffffffffffffffffffffffffffffffffffffffffffffffffff90505b92915050565b6040518060800160405280600073ffffffffffffffffffffffffffffffffffffffff16815260200160008152602001600073ffffffffffffffffffffffffffffffffffffffff168152602001600073ffffffffffffffffffffffffffffffffffffffff1681525090565b6000611b5f611b5a846126b3565b61268e565b90508083825260208201905082856020860282011115611b7e57600080fd5b60005b85811015611bc857813567ffffffffffffffff811115611ba057600080fd5b808601611bad8982611dbe565b85526020850194506020840193505050600181019050611b81565b5050509392505050565b6000611be5611be0846126df565b61268e565b90508083825260208201905082856020860282011115611c0457600080fd5b60005b85811015611c345781611c1a8882611de8565b845260208401935060208301925050600181019050611c07565b5050509392505050565b6000611c51611c4c8461270b565b61268e565b90508083825260208201905082856020860282011115611c7057600080fd5b60005b85811015611ca05781611c868882611dfd565b845260208401935060208301925050600181019050611c73565b5050509392505050565b6000611cbd611cb884612737565b61268e565b90508083825260208201905082856080860282011115611cdc57600080fd5b60005b85811015611d0c5781611cf28882611e4a565b845260208401935060808301925050600181019050611cdf565b5050509392505050565b600081359050611d2581612ecc565b92915050565b600081519050611d3a81612ecc565b92915050565b600082601f830112611d5157600080fd5b8135611d61848260208601611b4c565b91505092915050565b600082601f830112611d7b57600080fd5b8135611d8b848260208601611bd2565b91505092915050565b600082601f830112611da557600080fd5b8135611db5848260208601611c3e565b91505092915050565b600082601f830112611dcf57600080fd5b8135611ddf848260208601611caa565b91505092915050565b600081359050611df781612ee3565b92915050565b600081359050611e0c81612efa565b92915050565b600060208284031215611e2457600080fd5b611e2e602061268e565b90506000611e3e84828501611ed3565b60008301525092915050565b600060808284031215611e5c57600080fd5b611e66608061268e565b90506000611e7684828501611dfd565b6000830152506020611e8a84828501611ed3565b6020830152506040611e9e84828501611d16565b6040830152506060611eb284828501611d16565b60608301525092915050565b600081519050611ecd81612f11565b92915050565b600081359050611ee281612f28565b92915050565b600081519050611ef781612f28565b92915050565b600081519050611f0c81612f3f565b92915050565b600081519050611f2181612f56565b92915050565b600060208284031215611f3957600080fd5b6000611f4784828501611d16565b91505092915050565b600060208284031215611f6257600080fd5b6000611f7084828501611d2b565b91505092915050565b60008060408385031215611f8c57600080fd5b6000611f9a85828601611d16565b9250506020611fab85828601611d16565b9150509250929050565b60008060008060808587031215611fcb57600080fd5b6000611fd987828801611d16565b9450506020611fea87828801611d16565b935050604085013567ffffffffffffffff81111561200757600080fd5b61201387828801611d94565b925050606061202487828801611ed3565b91505092959194509250565b6000806000806000806000806000806101408b8d03121561205057600080fd5b600061205e8d828e01611d16565b9a5050602061206f8d828e01611d16565b99505060408b013567ffffffffffffffff81111561208c57600080fd5b6120988d828e01611d94565b98505060606120a98d828e01611ed3565b97505060808b013567ffffffffffffffff8111156120c657600080fd5b6120d28d828e01611d40565b96505060a06120e38d828e01611e12565b95505060c08b013567ffffffffffffffff81111561210057600080fd5b61210c8d828e01611dbe565b94505060e061211d8d828e01611ed3565b9350506101008b013567ffffffffffffffff81111561213b57600080fd5b6121478d828e01611d6a565b9250506101206121598d828e01611d16565b9150509295989b9194979a5092959850565b6000806040838503121561217e57600080fd5b600061218c85828601611d16565b925050602061219d85828601611dfd565b9150509250929050565b600080604083850312156121ba57600080fd5b600083013567ffffffffffffffff8111156121d457600080fd5b6121e085828601611d40565b92505060206121f185828601611ed3565b9150509250929050565b6000806040838503121561220e57600080fd5b600083013567ffffffffffffffff81111561222857600080fd5b61223485828601611dbe565b925050602061224585828601611ed3565b9150509250929050565b6000806040838503121561226257600080fd5b600061227085828601611dfd565b925050602061228185828601611d16565b9150509250929050565b6000806000606084860312156122a057600080fd5b60006122ae86828701611ebe565b93505060206122bf86828701611ebe565b92505060406122d086828701611efd565b9150509250925092565b6000602082840312156122ec57600080fd5b60006122fa84828501611ee8565b91505092915050565b60006020828403121561231557600080fd5b600061232384828501611f12565b91505092915050565b60006123388383612461565b905092915050565b600061234c838361252c565b60208301905092915050565b6000612364838361253b565b60808301905092915050565b61237981612c2c565b82525050565b61238881612c2c565b82525050565b600061239982612793565b6123a381856127ec565b9350836020820285016123b585612763565b8060005b858110156123f157848403895281516123d2858261232c565b94506123dd836127b4565b925060208a019950506001810190506123b9565b50829750879550505050505092915050565b600061240e8261279e565b61241881856127db565b935061242383612773565b8060005b8381101561245457815161243b8882612340565b9750612446836127c1565b925050600181019050612427565b5085935050505092915050565b600061246c826127a9565b61247681856127fd565b935061248183612783565b8060005b838110156124b25781516124998882612358565b97506124a4836127ce565b925050600181019050612485565b5085935050505092915050565b60006124ca826127a9565b6124d4818561280e565b93506124df83612783565b8060005b838110156125105781516124f78882612358565b9750612502836127ce565b9250506001810190506124e3565b5085935050505092915050565b61252681612c3e565b82525050565b61253581612cc7565b82525050565b608082016000820151612551600085018261252c565b5060208201516125646020850182612590565b5060408201516125776040850182612370565b50606082015161258a6060850182612370565b50505050565b61259981612ca0565b82525050565b6125a881612ca0565b82525050565b60006020820190506125c3600083018461237f565b92915050565b600060208201905081810360008301526125e3818461238e565b905092915050565b600060208201905081810360008301526126058184612403565b905092915050565b6000602082019050818103600083015261262781846124bf565b905092915050565b6000602082019050612644600083018461251d565b92915050565b600060208201905061265f600083018461259f565b92915050565b600060408201905061267a600083018561259f565b612687602083018461259f565b9392505050565b60006126986126a9565b90506126a48282612d5e565b919050565b6000604051905090565b600067ffffffffffffffff8211156126ce576126cd612e7f565b5b602082029050602081019050919050565b600067ffffffffffffffff8211156126fa576126f9612e7f565b5b602082029050602081019050919050565b600067ffffffffffffffff82111561272657612725612e7f565b5b602082029050602081019050919050565b600067ffffffffffffffff82111561275257612751612e7f565b5b602082029050602081019050919050565b6000819050602082019050919050565b6000819050602082019050919050565b6000819050602082019050919050565b600081519050919050565b600081519050919050565b600081519050919050565b6000602082019050919050565b6000602082019050919050565b6000602082019050919050565b600082825260208201905092915050565b600082825260208201905092915050565b600082825260208201905092915050565b600082825260208201905092915050565b600061282a82612c5c565b915061283583612c5c565b9250817f7fffffffffffffffffffffffffffffffffffffffffffffffffffffffffffffff038313600083121516156128705761286f612e21565b5b817f80000000000000000000000000000000000000000000000000000000000000000383126000831216156128a8576128a7612e21565b5b828201905092915050565b60006128be82612c5c565b91506128c983612c5c565b9250826128d9576128d8612e50565b5b600160000383147f80000000000000000000000000000000000000000000000000000000000000008314161561291257612911612e21565b5b828205905092915050565b600061292882612ca0565b915061293383612ca0565b92508261294357612942612e50565b5b828204905092915050565b6000808291508390505b60018511156129985780860481111561297457612973612e21565b5b60018516156129835780820291505b808102905061299185612ebf565b9450612958565b94509492505050565b60006129ac82612ca0565b91506129b783612ca0565b92506129e47fffffffffffffffffffffffffffffffffffffffffffffffffffffffffffffffff8484612a37565b905092915050565b60006129f782612ca0565b9150612a0283612cba565b9250612a2f7fffffffffffffffffffffffffffffffffffffffffffffffffffffffffffffffff8484612a37565b905092915050565b600082612a475760019050612b03565b81612a555760009050612b03565b8160018114612a6b5760028114612a7557612aa4565b6001915050612b03565b60ff841115612a8757612a86612e21565b5b8360020a915084821115612a9e57612a9d612e21565b5b50612b03565b5060208310610133831016604e8410600b8410161715612ad95782820a905083811115612ad457612ad3612e21565b5b612b03565b612ae6848484600161294e565b92509050818404811115612afd57612afc612e21565b5b81810290505b9392505050565b6000612b1582612ca0565b9150612b2083612ca0565b9250817fffffffffffffffffffffffffffffffffffffffffffffffffffffffffffffffff0483118215151615612b5957612b58612e21565b5b828202905092915050565b6000612b6f82612c5c565b9150612b7a83612c5c565b9250827f800000000000000000000000000000000000000000000000000000000000000001821260008412151615612bb557612bb4612e21565b5b827f7fffffffffffffffffffffffffffffffffffffffffffffffffffffffffffffff018213600084121615612bed57612bec612e21565b5b828203905092915050565b6000612c0382612ca0565b9150612c0e83612ca0565b925082821015612c2157612c20612e21565b5b828203905092915050565b6000612c3782612c80565b9050919050565b60008115159050919050565b6000612c5582612c2c565b9050919050565b6000819050919050565b60006dffffffffffffffffffffffffffff82169050919050565b600073ffffffffffffffffffffffffffffffffffffffff82169050919050565b6000819050919050565b600063ffffffff82169050919050565b600060ff82169050919050565b6000612cd282612cd9565b9050919050565b6000612ce482612c80565b9050919050565b6000612cf682612c5c565b91507f8000000000000000000000000000000000000000000000000000000000000000821415612d2957612d28612e21565b5b600182039050919050565b6000612d3f82612ca0565b91506000821415612d5357612d52612e21565b5b600182039050919050565b612d6782612eae565b810181811067ffffffffffffffff82111715612d8657612d85612e7f565b5b80604052505050565b6000612d9a82612c5c565b91507f7fffffffffffffffffffffffffffffffffffffffffffffffffffffffffffffff821415612dcd57612dcc612e21565b5b600182019050919050565b6000612de382612ca0565b91507fffffffffffffffffffffffffffffffffffffffffffffffffffffffffffffffff821415612e1657612e15612e21565b5b600182019050919050565b7f4e487b7100000000000000000000000000000000000000000000000000000000600052601160045260246000fd5b7f4e487b7100000000000000000000000000000000000000000000000000000000600052601260045260246000fd5b7f4e487b7100000000000000000000000000000000000000000000000000000000600052604160045260246000fd5b6000601f19601f8301169050919050565b60008160011c9050919050565b612ed581612c2c565b8114612ee057600080fd5b50565b612eec81612c3e565b8114612ef757600080fd5b50565b612f0381612c4a565b8114612f0e57600080fd5b50565b612f1a81612c66565b8114612f2557600080fd5b50565b612f3181612ca0565b8114612f3c57600080fd5b50565b612f4881612caa565b8114612f5357600080fd5b50565b612f5f81612cba565b8114612f6a57600080fd5b5056fea264697066735822122007ebd9e5eddb5efa2f46754ccfcfdbe394b8aae5f146773fcb18a135cea9208464736f6c63430008040033",
  "libraries": {
    "CustomSort": "0x66a26A9758c1955cCF8c0EF1bCd628b550cdFFe8"
  },
  "devdoc": {
    "kind": "dev",
    "methods": {},
    "version": 1
  },
  "userdoc": {
    "kind": "user",
    "methods": {},
    "version": 1
  },
  "storageLayout": {
    "storage": [
      {
        "astId": 435,
        "contract": "contracts/PriceFetcher.sol:PriceFetcher",
        "label": "pairFactoryAddress",
        "offset": 0,
        "slot": "0",
        "type": "t_address"
      },
      {
        "astId": 438,
        "contract": "contracts/PriceFetcher.sol:PriceFetcher",
        "label": "pairFactory",
        "offset": 0,
        "slot": "1",
        "type": "t_contract(IUniswapV2Factory)168"
      }
    ],
    "types": {
      "t_address": {
        "encoding": "inplace",
        "label": "address",
        "numberOfBytes": "20"
      },
      "t_contract(IUniswapV2Factory)168": {
        "encoding": "inplace",
        "label": "contract IUniswapV2Factory",
        "numberOfBytes": "20"
      }
    }
  }
}