{
  "address": "0x16504a23292496E994bA0bA0968F78b5728adE36",
  "abi": [
    {
      "inputs": [
        {
          "internalType": "string",
          "name": "_name",
          "type": "string"
        },
        {
          "internalType": "string",
          "name": "_symbol",
          "type": "string"
        },
        {
          "internalType": "address",
          "name": "_baseTokenAddress",
          "type": "address"
        },
        {
          "internalType": "address",
          "name": "_WETHAddress",
          "type": "address"
        },
        {
          "internalType": "string",
          "name": "_WETHSymbol",
          "type": "string"
        },
        {
          "internalType": "address[]",
          "name": "_WETHPricePath",
          "type": "address[]"
        }
      ],
      "stateMutability": "nonpayable",
      "type": "constructor"
    },
    {
      "anonymous": false,
      "inputs": [
        {
          "indexed": true,
          "internalType": "address",
          "name": "owner",
          "type": "address"
        },
        {
          "indexed": true,
          "internalType": "address",
          "name": "approved",
          "type": "address"
        },
        {
          "indexed": true,
          "internalType": "uint256",
          "name": "tokenId",
          "type": "uint256"
        }
      ],
      "name": "Approval",
      "type": "event"
    },
    {
      "anonymous": false,
      "inputs": [
        {
          "indexed": true,
          "internalType": "address",
          "name": "owner",
          "type": "address"
        },
        {
          "indexed": true,
          "internalType": "address",
          "name": "operator",
          "type": "address"
        },
        {
          "indexed": false,
          "internalType": "bool",
          "name": "approved",
          "type": "bool"
        }
      ],
      "name": "ApprovalForAll",
      "type": "event"
    },
    {
      "anonymous": false,
      "inputs": [
        {
          "indexed": true,
          "internalType": "address",
          "name": "previousOwner",
          "type": "address"
        },
        {
          "indexed": true,
          "internalType": "address",
          "name": "newOwner",
          "type": "address"
        }
      ],
      "name": "OwnershipTransferred",
      "type": "event"
    },
    {
      "anonymous": false,
      "inputs": [
        {
          "indexed": true,
          "internalType": "address",
          "name": "from",
          "type": "address"
        },
        {
          "indexed": true,
          "internalType": "address",
          "name": "to",
          "type": "address"
        },
        {
          "indexed": true,
          "internalType": "uint256",
          "name": "tokenId",
          "type": "uint256"
        }
      ],
      "name": "Transfer",
      "type": "event"
    },
    {
      "inputs": [],
      "name": "WETHAddress",
      "outputs": [
        {
          "internalType": "address",
          "name": "",
          "type": "address"
        }
      ],
      "stateMutability": "view",
      "type": "function"
    },
    {
      "inputs": [
        {
          "internalType": "uint256",
          "name": "",
          "type": "uint256"
        }
      ],
      "name": "WETHPricePath",
      "outputs": [
        {
          "internalType": "address",
          "name": "",
          "type": "address"
        }
      ],
      "stateMutability": "view",
      "type": "function"
    },
    {
      "inputs": [],
      "name": "WETHSymbol",
      "outputs": [
        {
          "internalType": "string",
          "name": "",
          "type": "string"
        }
      ],
      "stateMutability": "view",
      "type": "function"
    },
    {
      "inputs": [
        {
          "internalType": "address",
          "name": "to",
          "type": "address"
        },
        {
          "internalType": "uint256",
          "name": "tokenId",
          "type": "uint256"
        }
      ],
      "name": "approve",
      "outputs": [],
      "stateMutability": "nonpayable",
      "type": "function"
    },
    {
      "inputs": [
        {
          "internalType": "address",
          "name": "owner",
          "type": "address"
        }
      ],
      "name": "balanceOf",
      "outputs": [
        {
          "internalType": "uint256",
          "name": "",
          "type": "uint256"
        }
      ],
      "stateMutability": "view",
      "type": "function"
    },
    {
      "inputs": [],
      "name": "baseTokenAddress",
      "outputs": [
        {
          "internalType": "address",
          "name": "",
          "type": "address"
        }
      ],
      "stateMutability": "view",
      "type": "function"
    },
    {
      "inputs": [
        {
          "internalType": "uint256",
          "name": "tokenId",
          "type": "uint256"
        }
      ],
      "name": "getApproved",
      "outputs": [
        {
          "internalType": "address",
          "name": "",
          "type": "address"
        }
      ],
      "stateMutability": "view",
      "type": "function"
    },
    {
      "inputs": [
        {
          "internalType": "uint256",
          "name": "_tokenId",
          "type": "uint256"
        },
        {
          "internalType": "address",
          "name": "_tokenAddress",
          "type": "address"
        }
      ],
      "name": "getPricePath",
      "outputs": [
        {
          "internalType": "address[]",
          "name": "",
          "type": "address[]"
        }
      ],
      "stateMutability": "view",
      "type": "function"
    },
    {
      "inputs": [
        {
          "internalType": "uint256",
          "name": "tokenId",
          "type": "uint256"
        }
      ],
      "name": "getTokenAddresses",
      "outputs": [
        {
          "internalType": "address[]",
          "name": "",
          "type": "address[]"
        }
      ],
      "stateMutability": "view",
      "type": "function"
    },
    {
      "inputs": [
        {
          "internalType": "address",
          "name": "owner",
          "type": "address"
        },
        {
          "internalType": "address",
          "name": "operator",
          "type": "address"
        }
      ],
      "name": "isApprovedForAll",
      "outputs": [
        {
          "internalType": "bool",
          "name": "",
          "type": "bool"
        }
      ],
      "stateMutability": "view",
      "type": "function"
    },
    {
      "inputs": [
        {
          "internalType": "address",
          "name": "_address",
          "type": "address"
        }
      ],
      "name": "mint",
      "outputs": [
        {
          "internalType": "uint256",
          "name": "",
          "type": "uint256"
        }
      ],
      "stateMutability": "nonpayable",
      "type": "function"
    },
    {
      "inputs": [],
      "name": "name",
      "outputs": [
        {
          "internalType": "string",
          "name": "",
          "type": "string"
        }
      ],
      "stateMutability": "view",
      "type": "function"
    },
    {
      "inputs": [],
      "name": "owner",
      "outputs": [
        {
          "internalType": "address",
          "name": "",
          "type": "address"
        }
      ],
      "stateMutability": "view",
      "type": "function"
    },
    {
      "inputs": [
        {
          "internalType": "uint256",
          "name": "tokenId",
          "type": "uint256"
        }
      ],
      "name": "ownerOf",
      "outputs": [
        {
          "internalType": "address",
          "name": "",
          "type": "address"
        }
      ],
      "stateMutability": "view",
      "type": "function"
    },
    {
      "inputs": [],
      "name": "portfolioMetadataAddress",
      "outputs": [
        {
          "internalType": "address",
          "name": "",
          "type": "address"
        }
      ],
      "stateMutability": "view",
      "type": "function"
    },
    {
      "inputs": [],
      "name": "priceFetcher",
      "outputs": [
        {
          "internalType": "contract IPriceFetcher",
          "name": "",
          "type": "address"
        }
      ],
      "stateMutability": "view",
      "type": "function"
    },
    {
      "inputs": [],
      "name": "priceFetcherAddress",
      "outputs": [
        {
          "internalType": "address",
          "name": "",
          "type": "address"
        }
      ],
      "stateMutability": "view",
      "type": "function"
    },
    {
      "inputs": [
        {
          "internalType": "uint256",
          "name": "_tokenId",
          "type": "uint256"
        },
        {
          "internalType": "address",
          "name": "_tokenAddress",
          "type": "address"
        }
      ],
      "name": "removeToken",
      "outputs": [],
      "stateMutability": "nonpayable",
      "type": "function"
    },
    {
      "inputs": [
        {
          "internalType": "uint256",
          "name": "_tokenId",
          "type": "uint256"
        },
        {
          "internalType": "address[]",
          "name": "_tokenAddresses",
          "type": "address[]"
        }
      ],
      "name": "removeTokens",
      "outputs": [],
      "stateMutability": "nonpayable",
      "type": "function"
    },
    {
      "inputs": [],
      "name": "renounceOwnership",
      "outputs": [],
      "stateMutability": "nonpayable",
      "type": "function"
    },
    {
      "inputs": [
        {
          "internalType": "address",
          "name": "from",
          "type": "address"
        },
        {
          "internalType": "address",
          "name": "to",
          "type": "address"
        },
        {
          "internalType": "uint256",
          "name": "tokenId",
          "type": "uint256"
        }
      ],
      "name": "safeTransferFrom",
      "outputs": [],
      "stateMutability": "nonpayable",
      "type": "function"
    },
    {
      "inputs": [
        {
          "internalType": "address",
          "name": "from",
          "type": "address"
        },
        {
          "internalType": "address",
          "name": "to",
          "type": "address"
        },
        {
          "internalType": "uint256",
          "name": "tokenId",
          "type": "uint256"
        },
        {
          "internalType": "bytes",
          "name": "_data",
          "type": "bytes"
        }
      ],
      "name": "safeTransferFrom",
      "outputs": [],
      "stateMutability": "nonpayable",
      "type": "function"
    },
    {
      "inputs": [
        {
          "internalType": "address",
          "name": "operator",
          "type": "address"
        },
        {
          "internalType": "bool",
          "name": "approved",
          "type": "bool"
        }
      ],
      "name": "setApprovalForAll",
      "outputs": [],
      "stateMutability": "nonpayable",
      "type": "function"
    },
    {
      "inputs": [
        {
          "internalType": "address",
          "name": "_baseTokenAddress",
          "type": "address"
        }
      ],
      "name": "setBaseTokenAddress",
      "outputs": [],
      "stateMutability": "nonpayable",
      "type": "function"
    },
    {
      "inputs": [
        {
          "internalType": "address",
          "name": "_portfolioMetadataAddress",
          "type": "address"
        }
      ],
      "name": "setPortfolioMetadataAddress",
      "outputs": [],
      "stateMutability": "nonpayable",
      "type": "function"
    },
    {
      "inputs": [
        {
          "internalType": "address",
          "name": "_priceFetcherAddress",
          "type": "address"
        }
      ],
      "name": "setPriceFetcherAddress",
      "outputs": [],
      "stateMutability": "nonpayable",
      "type": "function"
    },
    {
      "inputs": [
        {
          "internalType": "bytes4",
          "name": "interfaceId",
          "type": "bytes4"
        }
      ],
      "name": "supportsInterface",
      "outputs": [
        {
          "internalType": "bool",
          "name": "",
          "type": "bool"
        }
      ],
      "stateMutability": "view",
      "type": "function"
    },
    {
      "inputs": [],
      "name": "symbol",
      "outputs": [
        {
          "internalType": "string",
          "name": "",
          "type": "string"
        }
      ],
      "stateMutability": "view",
      "type": "function"
    },
    {
      "inputs": [
        {
          "internalType": "uint256",
          "name": "tokenId",
          "type": "uint256"
        }
      ],
      "name": "tokenURI",
      "outputs": [
        {
          "internalType": "string",
          "name": "",
          "type": "string"
        }
      ],
      "stateMutability": "view",
      "type": "function"
    },
    {
      "inputs": [
        {
          "internalType": "uint256",
          "name": "_tokenId",
          "type": "uint256"
        },
        {
          "internalType": "address",
          "name": "_tokenAddress",
          "type": "address"
        },
        {
          "internalType": "address[]",
          "name": "_pricePath",
          "type": "address[]"
        }
      ],
      "name": "trackToken",
      "outputs": [],
      "stateMutability": "nonpayable",
      "type": "function"
    },
    {
      "inputs": [
        {
          "internalType": "uint256",
          "name": "_tokenId",
          "type": "uint256"
        },
        {
          "internalType": "address[]",
          "name": "_tokenAddresses",
          "type": "address[]"
        },
        {
          "internalType": "address[][]",
          "name": "_pricePaths",
          "type": "address[][]"
        }
      ],
      "name": "trackTokens",
      "outputs": [],
      "stateMutability": "nonpayable",
      "type": "function"
    },
    {
      "inputs": [
        {
          "internalType": "address",
          "name": "from",
          "type": "address"
        },
        {
          "internalType": "address",
          "name": "to",
          "type": "address"
        },
        {
          "internalType": "uint256",
          "name": "tokenId",
          "type": "uint256"
        }
      ],
      "name": "transferFrom",
      "outputs": [],
      "stateMutability": "nonpayable",
      "type": "function"
    },
    {
      "inputs": [
        {
          "internalType": "address",
          "name": "newOwner",
          "type": "address"
        }
      ],
      "name": "transferOwnership",
      "outputs": [],
      "stateMutability": "nonpayable",
      "type": "function"
    }
  ],
  "transactionHash": "0xe3af0941a603232be966bae3e82607d1ae40d930b53f6cb53c66c8390c28e786",
  "args": [
    "Test Portfolio NFT",
    "TPNFT",
    "0x2791Bca1f2de4661ED88A30C99A7a9449Aa84174",
    "0x0d500B1d8E8eF31E21C99d1Db9A6444d3ADf1270",
    "ETH",
    [
      "0x0d500B1d8E8eF31E21C99d1Db9A6444d3ADf1270",
      "0x2791Bca1f2de4661ED88A30C99A7a9449Aa84174"
    ]
  ],
  "numDeployments": 4,
  "solcInputHash": "760ea7a316093945492fb6a5aa575bf1",
  "bytecode": "0x60806040523480156200001157600080fd5b5060405162004c2338038062004c23833981810160405281019062000037919062000552565b8585816000908051906020019062000051929190620002e8565b5080600190805190602001906200006a929190620002e8565b5050506200008d620000816200011d60201b60201c565b6200012560201b60201c565b6200009e84620001eb60201b60201c565b82600b60006101000a81548173ffffffffffffffffffffffffffffffffffffffff021916908373ffffffffffffffffffffffffffffffffffffffff16021790555081600c9080519060200190620000f7929190620002e8565b5080600d90805190602001906200011092919062000379565b50505050505050620008bc565b600033905090565b6000600660009054906101000a900473ffffffffffffffffffffffffffffffffffffffff16905081600660006101000a81548173ffffffffffffffffffffffffffffffffffffffff021916908373ffffffffffffffffffffffffffffffffffffffff1602179055508173ffffffffffffffffffffffffffffffffffffffff168173ffffffffffffffffffffffffffffffffffffffff167f8be0079c531659141344cd1fd0a4f28419497f9722a3daafe3b4186f6b6457e060405160405180910390a35050565b620001fb6200011d60201b60201c565b73ffffffffffffffffffffffffffffffffffffffff1662000221620002be60201b60201c565b73ffffffffffffffffffffffffffffffffffffffff16146200027a576040517f08c379a0000000000000000000000000000000000000000000000000000000008152600401620002719062000673565b60405180910390fd5b80600a60006101000a81548173ffffffffffffffffffffffffffffffffffffffff021916908373ffffffffffffffffffffffffffffffffffffffff16021790555050565b6000600660009054906101000a900473ffffffffffffffffffffffffffffffffffffffff16905090565b828054620002f6906200079e565b90600052602060002090601f0160209004810192826200031a576000855562000366565b82601f106200033557805160ff191683800117855562000366565b8280016001018555821562000366579182015b828111156200036557825182559160200191906001019062000348565b5b50905062000375919062000408565b5090565b828054828255906000526020600020908101928215620003f5579160200282015b82811115620003f45782518260006101000a81548173ffffffffffffffffffffffffffffffffffffffff021916908373ffffffffffffffffffffffffffffffffffffffff160217905550916020019190600101906200039a565b5b50905062000404919062000408565b5090565b5b808211156200042357600081600090555060010162000409565b5090565b60006200043e6200043884620006be565b62000695565b905080838252602082019050828560208602820111156200045e57600080fd5b60005b85811015620004925781620004778882620004e1565b84526020840193506020830192505060018101905062000461565b5050509392505050565b6000620004b3620004ad84620006ed565b62000695565b905082815260208101848484011115620004cc57600080fd5b620004d984828562000768565b509392505050565b600081519050620004f281620008a2565b92915050565b600082601f8301126200050a57600080fd5b81516200051c84826020860162000427565b91505092915050565b600082601f8301126200053757600080fd5b8151620005498482602086016200049c565b91505092915050565b60008060008060008060c087890312156200056c57600080fd5b600087015167ffffffffffffffff8111156200058757600080fd5b6200059589828a0162000525565b965050602087015167ffffffffffffffff811115620005b357600080fd5b620005c189828a0162000525565b9550506040620005d489828a01620004e1565b9450506060620005e789828a01620004e1565b935050608087015167ffffffffffffffff8111156200060557600080fd5b6200061389828a0162000525565b92505060a087015167ffffffffffffffff8111156200063157600080fd5b6200063f89828a01620004f8565b9150509295509295509295565b60006200065b60208362000723565b9150620006688262000879565b602082019050919050565b600060208201905081810360008301526200068e816200064c565b9050919050565b6000620006a1620006b4565b9050620006af8282620007d4565b919050565b6000604051905090565b600067ffffffffffffffff821115620006dc57620006db62000839565b5b602082029050602081019050919050565b600067ffffffffffffffff8211156200070b576200070a62000839565b5b620007168262000868565b9050602081019050919050565b600082825260208201905092915050565b6000620007418262000748565b9050919050565b600073ffffffffffffffffffffffffffffffffffffffff82169050919050565b60005b83811015620007885780820151818401526020810190506200076b565b8381111562000798576000848401525b50505050565b60006002820490506001821680620007b757607f821691505b60208210811415620007ce57620007cd6200080a565b5b50919050565b620007df8262000868565b810181811067ffffffffffffffff8211171562000801576200080062000839565b5b80604052505050565b7f4e487b7100000000000000000000000000000000000000000000000000000000600052602260045260246000fd5b7f4e487b7100000000000000000000000000000000000000000000000000000000600052604160045260246000fd5b6000601f19601f8301169050919050565b7f4f776e61626c653a2063616c6c6572206973206e6f7420746865206f776e6572600082015250565b620008ad8162000734565b8114620008b957600080fd5b50565b61435780620008cc6000396000f3fe608060405234801561001057600080fd5b50600436106101fb5760003560e01c80635dfc34d41161011a57806390a23fb5116100ad578063c591a4911161007c578063c591a4911461059c578063c87b56dd146105cc578063dc4d3171146105fc578063e985e9c514610618578063f2fde38b14610648576101fb565b806390a23fb51461052a57806395d89b4114610546578063a22cb46514610564578063b88d4fde14610580576101fb565b8063715018a6116100e9578063715018a6146104b4578063738a0182146104be5780637cb374bd146104ee5780638da5cb5b1461050c576101fb565b80635dfc34d4146104085780636352211e146104245780636a6278421461045457806370a0823114610484576101fb565b806323b872dd11610192578063357ba70411610161578063357ba7041461039657806340e5bfeb146103b457806342842e0e146103d05780635de1cf68146103ec576101fb565b806323b872dd146103225780632421d7261461033e578063311b6db91461035c57806333fe56761461037a576101fb565b8063095ea7b3116101ce578063095ea7b31461029a5780630a0eac41146102b65780630af88b24146102e65780631a4d2c5814610304576101fb565b806301ffc9a71461020057806304506bc21461023057806306fdde031461024c578063081812fc1461026a575b600080fd5b61021a60048036038101906102159190612fe9565b610664565b60405161022791906136d5565b60405180910390f35b61024a600480360381019061024591906131c5565b610746565b005b610254610804565b604051610261919061370b565b60405180910390f35b610284600480360381019061027f919061307c565b610896565b604051610291919061364c565b60405180910390f35b6102b460048036038101906102af9190612fad565b61091b565b005b6102d060048036038101906102cb919061307c565b610a33565b6040516102dd919061364c565b60405180910390f35b6102ee610a72565b6040516102fb919061364c565b60405180910390f35b61030c610a98565b604051610319919061364c565b60405180910390f35b61033c60048036038101906103379190612ea7565b610abe565b005b610346610b1e565b60405161035391906136f0565b60405180910390f35b610364610b44565b604051610371919061364c565b60405180910390f35b610394600480360381019061038f91906130ce565b610b6a565b005b61039e610c0a565b6040516103ab919061370b565b60405180910390f35b6103ce60048036038101906103c99190612e42565b610c98565b005b6103ea60048036038101906103e59190612ea7565b610d99565b005b61040660048036038101906104019190612e42565b610db9565b005b610422600480360381019061041d9190612e42565b610e79565b005b61043e6004803603810190610439919061307c565b610f39565b60405161044b919061364c565b60405180910390f35b61046e60048036038101906104699190612e42565b610feb565b60405161047b919061398d565b60405180910390f35b61049e60048036038101906104999190612e42565b6110cb565b6040516104ab919061398d565b60405180910390f35b6104bc611183565b005b6104d860048036038101906104d391906130ce565b61120b565b6040516104e591906136b3565b60405180910390f35b6104f66112ea565b604051610503919061364c565b60405180910390f35b610514611310565b604051610521919061364c565b60405180910390f35b610544600480360381019061053f919061310a565b61133a565b005b61054e6117d6565b60405161055b919061370b565b60405180910390f35b61057e60048036038101906105799190612f71565b611868565b005b61059a60048036038101906105959190612ef6565b61187e565b005b6105b660048036038101906105b1919061307c565b6118e0565b6040516105c391906136b3565b60405180910390f35b6105e660048036038101906105e1919061307c565b611a49565b6040516105f3919061370b565b60405180910390f35b61061660048036038101906106119190613171565b611b02565b005b610632600480360381019061062d9190612e6b565b611b70565b60405161063f91906136d5565b60405180910390f35b610662600480360381019061065d9190612e42565b611c04565b005b60007f80ac58cd000000000000000000000000000000000000000000000000000000007bffffffffffffffffffffffffffffffffffffffffffffffffffffffff1916827bffffffffffffffffffffffffffffffffffffffffffffffffffffffff1916148061072f57507f5b5e139f000000000000000000000000000000000000000000000000000000007bffffffffffffffffffffffffffffffffffffffffffffffffffffffff1916827bffffffffffffffffffffffffffffffffffffffffffffffffffffffff1916145b8061073f575061073e82611cfc565b5b9050919050565b805182511461075457600080fd5b60005b82518110156107fe576107eb8484838151811061079d577f4e487b7100000000000000000000000000000000000000000000000000000000600052603260045260246000fd5b60200260200101518484815181106107de577f4e487b7100000000000000000000000000000000000000000000000000000000600052603260045260246000fd5b602002602001015161133a565b80806107f690613cbf565b915050610757565b50505050565b60606000805461081390613c5c565b80601f016020809104026020016040519081016040528092919081815260200182805461083f90613c5c565b801561088c5780601f106108615761010080835404028352916020019161088c565b820191906000526020600020905b81548152906001019060200180831161086f57829003601f168201915b5050505050905090565b60006108a182611d66565b6108e0576040517f08c379a00000000000000000000000000000000000000000000000000000000081526004016108d7906138ad565b60405180910390fd5b6004600083815260200190815260200160002060009054906101000a900473ffffffffffffffffffffffffffffffffffffffff169050919050565b600061092682610f39565b90508073ffffffffffffffffffffffffffffffffffffffff168373ffffffffffffffffffffffffffffffffffffffff161415610997576040517f08c379a000000000000000000000000000000000000000000000000000000000815260040161098e9061392d565b60405180910390fd5b8073ffffffffffffffffffffffffffffffffffffffff166109b6611dd2565b73ffffffffffffffffffffffffffffffffffffffff1614806109e557506109e4816109df611dd2565b611b70565b5b610a24576040517f08c379a0000000000000000000000000000000000000000000000000000000008152600401610a1b9061380d565b60405180910390fd5b610a2e8383611dda565b505050565b600d8181548110610a4357600080fd5b906000526020600020016000915054906101000a900473ffffffffffffffffffffffffffffffffffffffff1681565b600b60009054906101000a900473ffffffffffffffffffffffffffffffffffffffff1681565b600e60009054906101000a900473ffffffffffffffffffffffffffffffffffffffff1681565b610acf610ac9611dd2565b82611e93565b610b0e576040517f08c379a0000000000000000000000000000000000000000000000000000000008152600401610b059061396d565b60405180910390fd5b610b19838383611f71565b505050565b601060009054906101000a900473ffffffffffffffffffffffffffffffffffffffff1681565b600f60009054906101000a900473ffffffffffffffffffffffffffffffffffffffff1681565b3373ffffffffffffffffffffffffffffffffffffffff16610b8a83610f39565b73ffffffffffffffffffffffffffffffffffffffff1614610be0576040517f08c379a0000000000000000000000000000000000000000000000000000000008152600401610bd79061394d565b60405180910390fd5b610c0581600860008581526020019081526020016000206121cd90919063ffffffff16565b505050565b600c8054610c1790613c5c565b80601f0160208091040260200160405190810160405280929190818152602001828054610c4390613c5c565b8015610c905780601f10610c6557610100808354040283529160200191610c90565b820191906000526020600020905b815481529060010190602001808311610c7357829003601f168201915b505050505081565b610ca0611dd2565b73ffffffffffffffffffffffffffffffffffffffff16610cbe611310565b73ffffffffffffffffffffffffffffffffffffffff1614610d14576040517f08c379a0000000000000000000000000000000000000000000000000000000008152600401610d0b906138cd565b60405180910390fd5b80600e60006101000a81548173ffffffffffffffffffffffffffffffffffffffff021916908373ffffffffffffffffffffffffffffffffffffffff16021790555080601060006101000a81548173ffffffffffffffffffffffffffffffffffffffff021916908373ffffffffffffffffffffffffffffffffffffffff16021790555050565b610db48383836040518060200160405280600081525061187e565b505050565b610dc1611dd2565b73ffffffffffffffffffffffffffffffffffffffff16610ddf611310565b73ffffffffffffffffffffffffffffffffffffffff1614610e35576040517f08c379a0000000000000000000000000000000000000000000000000000000008152600401610e2c906138cd565b60405180910390fd5b80600f60006101000a81548173ffffffffffffffffffffffffffffffffffffffff021916908373ffffffffffffffffffffffffffffffffffffffff16021790555050565b610e81611dd2565b73ffffffffffffffffffffffffffffffffffffffff16610e9f611310565b73ffffffffffffffffffffffffffffffffffffffff1614610ef5576040517f08c379a0000000000000000000000000000000000000000000000000000000008152600401610eec906138cd565b60405180910390fd5b80600a60006101000a81548173ffffffffffffffffffffffffffffffffffffffff021916908373ffffffffffffffffffffffffffffffffffffffff16021790555050565b6000806002600084815260200190815260200160002060009054906101000a900473ffffffffffffffffffffffffffffffffffffffff169050600073ffffffffffffffffffffffffffffffffffffffff168173ffffffffffffffffffffffffffffffffffffffff161415610fe2576040517f08c379a0000000000000000000000000000000000000000000000000000000008152600401610fd99061386d565b60405180910390fd5b80915050919050565b6000610ff760076121fd565b60006110036007612213565b905061100f8382612221565b6110c281600b60009054906101000a900473ffffffffffffffffffffffffffffffffffffffff16600d8054806020026020016040519081016040528092919081815260200182805480156110b857602002820191906000526020600020905b8160009054906101000a900473ffffffffffffffffffffffffffffffffffffffff1673ffffffffffffffffffffffffffffffffffffffff168152602001906001019080831161106e575b505050505061133a565b80915050919050565b60008073ffffffffffffffffffffffffffffffffffffffff168273ffffffffffffffffffffffffffffffffffffffff16141561113c576040517f08c379a00000000000000000000000000000000000000000000000000000000081526004016111339061384d565b60405180910390fd5b600360008373ffffffffffffffffffffffffffffffffffffffff1673ffffffffffffffffffffffffffffffffffffffff168152602001908152602001600020549050919050565b61118b611dd2565b73ffffffffffffffffffffffffffffffffffffffff166111a9611310565b73ffffffffffffffffffffffffffffffffffffffff16146111ff576040517f08c379a00000000000000000000000000000000000000000000000000000000081526004016111f6906138cd565b60405180910390fd5b61120960006123ef565b565b60606009600084815260200190815260200160002060008373ffffffffffffffffffffffffffffffffffffffff1673ffffffffffffffffffffffffffffffffffffffff1681526020019081526020016000208054806020026020016040519081016040528092919081815260200182805480156112dd57602002820191906000526020600020905b8160009054906101000a900473ffffffffffffffffffffffffffffffffffffffff1673ffffffffffffffffffffffffffffffffffffffff1681526020019060010190808311611293575b5050505050905092915050565b600a60009054906101000a900473ffffffffffffffffffffffffffffffffffffffff1681565b6000600660009054906101000a900473ffffffffffffffffffffffffffffffffffffffff16905090565b3373ffffffffffffffffffffffffffffffffffffffff1661135a84610f39565b73ffffffffffffffffffffffffffffffffffffffff16146113b0576040517f08c379a00000000000000000000000000000000000000000000000000000000081526004016113a79061394d565b60405180910390fd5b8173ffffffffffffffffffffffffffffffffffffffff166395d89b416040518163ffffffff1660e01b815260040160006040518083038186803b1580156113f657600080fd5b505afa15801561140a573d6000803e3d6000fd5b505050506040513d6000823e3d601f19601f82011682018060405250810190611433919061303b565b508173ffffffffffffffffffffffffffffffffffffffff166370a08231336040518263ffffffff1660e01b815260040161146d919061364c565b60206040518083038186803b15801561148557600080fd5b505afa158015611499573d6000803e3d6000fd5b505050506040513d601f19601f820116820180604052508101906114bd91906130a5565b506000815111156117465760028151101561150d576040517f08c379a00000000000000000000000000000000000000000000000000000000081526004016115049061390d565b60405180910390fd5b8173ffffffffffffffffffffffffffffffffffffffff168160008151811061155e577f4e487b7100000000000000000000000000000000000000000000000000000000600052603260045260246000fd5b602002602001015173ffffffffffffffffffffffffffffffffffffffff16146115bc576040517f08c379a00000000000000000000000000000000000000000000000000000000081526004016115b39061382d565b60405180910390fd5b600a60009054906101000a900473ffffffffffffffffffffffffffffffffffffffff1673ffffffffffffffffffffffffffffffffffffffff1681600183516116049190613b4e565b8151811061163b577f4e487b7100000000000000000000000000000000000000000000000000000000600052603260045260246000fd5b602002602001015173ffffffffffffffffffffffffffffffffffffffff1614611699576040517f08c379a00000000000000000000000000000000000000000000000000000000081526004016116909061372d565b60405180910390fd5b601060009054906101000a900473ffffffffffffffffffffffffffffffffffffffff1673ffffffffffffffffffffffffffffffffffffffff166327987afa826040518263ffffffff1660e01b81526004016116f491906136b3565b604080518083038186803b15801561170b57600080fd5b505afa15801561171f573d6000803e3d6000fd5b505050506040513d601f19601f820116820180604052508101906117439190613244565b50505b61176b82600860008681526020019081526020016000206124b590919063ffffffff16565b50806009600085815260200190815260200160002060008473ffffffffffffffffffffffffffffffffffffffff1673ffffffffffffffffffffffffffffffffffffffff16815260200190815260200160002090805190602001906117d0929190612b07565b50505050565b6060600180546117e590613c5c565b80601f016020809104026020016040519081016040528092919081815260200182805461181190613c5c565b801561185e5780601f106118335761010080835404028352916020019161185e565b820191906000526020600020905b81548152906001019060200180831161184157829003601f168201915b5050505050905090565b61187a611873611dd2565b83836124e5565b5050565b61188f611889611dd2565b83611e93565b6118ce576040517f08c379a00000000000000000000000000000000000000000000000000000000081526004016118c59061396d565b60405180910390fd5b6118da84848484612652565b50505050565b606060006118ff600860008581526020019081526020016000206126ae565b67ffffffffffffffff81111561193e577f4e487b7100000000000000000000000000000000000000000000000000000000600052604160045260246000fd5b60405190808252806020026020018201604052801561196c5781602001602082028036833780820191505090505b50905060005b61198d600860008681526020019081526020016000206126ae565b811015611a3f576119b981600860008781526020019081526020016000206126c390919063ffffffff16565b8282815181106119f2577f4e487b7100000000000000000000000000000000000000000000000000000000600052603260045260246000fd5b602002602001019073ffffffffffffffffffffffffffffffffffffffff16908173ffffffffffffffffffffffffffffffffffffffff16815250508080611a3790613cbf565b915050611972565b5080915050919050565b6060600f60009054906101000a900473ffffffffffffffffffffffffffffffffffffffff1673ffffffffffffffffffffffffffffffffffffffff1663c87b56dd836040518263ffffffff1660e01b8152600401611aa6919061398d565b60006040518083038186803b158015611abe57600080fd5b505afa158015611ad2573d6000803e3d6000fd5b505050506040513d6000823e3d601f19601f82011682018060405250810190611afb919061303b565b9050919050565b60005b8151811015611b6b57611b5883838381518110611b4b577f4e487b7100000000000000000000000000000000000000000000000000000000600052603260045260246000fd5b6020026020010151610b6a565b8080611b6390613cbf565b915050611b05565b505050565b6000600560008473ffffffffffffffffffffffffffffffffffffffff1673ffffffffffffffffffffffffffffffffffffffff16815260200190815260200160002060008373ffffffffffffffffffffffffffffffffffffffff1673ffffffffffffffffffffffffffffffffffffffff16815260200190815260200160002060009054906101000a900460ff16905092915050565b611c0c611dd2565b73ffffffffffffffffffffffffffffffffffffffff16611c2a611310565b73ffffffffffffffffffffffffffffffffffffffff1614611c80576040517f08c379a0000000000000000000000000000000000000000000000000000000008152600401611c77906138cd565b60405180910390fd5b600073ffffffffffffffffffffffffffffffffffffffff168173ffffffffffffffffffffffffffffffffffffffff161415611cf0576040517f08c379a0000000000000000000000000000000000000000000000000000000008152600401611ce79061376d565b60405180910390fd5b611cf9816123ef565b50565b60007f01ffc9a7000000000000000000000000000000000000000000000000000000007bffffffffffffffffffffffffffffffffffffffffffffffffffffffff1916827bffffffffffffffffffffffffffffffffffffffffffffffffffffffff1916149050919050565b60008073ffffffffffffffffffffffffffffffffffffffff166002600084815260200190815260200160002060009054906101000a900473ffffffffffffffffffffffffffffffffffffffff1673ffffffffffffffffffffffffffffffffffffffff1614159050919050565b600033905090565b816004600083815260200190815260200160002060006101000a81548173ffffffffffffffffffffffffffffffffffffffff021916908373ffffffffffffffffffffffffffffffffffffffff160217905550808273ffffffffffffffffffffffffffffffffffffffff16611e4d83610f39565b73ffffffffffffffffffffffffffffffffffffffff167f8c5be1e5ebec7d5bd14f71427d1e84f3dd0314c0f7b2291e5b200ac8c7c3b92560405160405180910390a45050565b6000611e9e82611d66565b611edd576040517f08c379a0000000000000000000000000000000000000000000000000000000008152600401611ed4906137ed565b60405180910390fd5b6000611ee883610f39565b90508073ffffffffffffffffffffffffffffffffffffffff168473ffffffffffffffffffffffffffffffffffffffff161480611f5757508373ffffffffffffffffffffffffffffffffffffffff16611f3f84610896565b73ffffffffffffffffffffffffffffffffffffffff16145b80611f685750611f678185611b70565b5b91505092915050565b8273ffffffffffffffffffffffffffffffffffffffff16611f9182610f39565b73ffffffffffffffffffffffffffffffffffffffff1614611fe7576040517f08c379a0000000000000000000000000000000000000000000000000000000008152600401611fde906138ed565b60405180910390fd5b600073ffffffffffffffffffffffffffffffffffffffff168273ffffffffffffffffffffffffffffffffffffffff161415612057576040517f08c379a000000000000000000000000000000000000000000000000000000000815260040161204e906137ad565b60405180910390fd5b6120628383836126dd565b61206d600082611dda565b6001600360008573ffffffffffffffffffffffffffffffffffffffff1673ffffffffffffffffffffffffffffffffffffffff16815260200190815260200160002060008282546120bd9190613b4e565b925050819055506001600360008473ffffffffffffffffffffffffffffffffffffffff1673ffffffffffffffffffffffffffffffffffffffff16815260200190815260200160002060008282546121149190613af8565b92505081905550816002600083815260200190815260200160002060006101000a81548173ffffffffffffffffffffffffffffffffffffffff021916908373ffffffffffffffffffffffffffffffffffffffff160217905550808273ffffffffffffffffffffffffffffffffffffffff168473ffffffffffffffffffffffffffffffffffffffff167fddf252ad1be2c89b69c2b068fc378daa952ba7f163c4a11628f55a4df523b3ef60405160405180910390a4505050565b60006121f5836000018373ffffffffffffffffffffffffffffffffffffffff1660001b6126e2565b905092915050565b6001816000016000828254019250508190555050565b600081600001549050919050565b600073ffffffffffffffffffffffffffffffffffffffff168273ffffffffffffffffffffffffffffffffffffffff161415612291576040517f08c379a00000000000000000000000000000000000000000000000000000000081526004016122889061388d565b60405180910390fd5b61229a81611d66565b156122da576040517f08c379a00000000000000000000000000000000000000000000000000000000081526004016122d19061378d565b60405180910390fd5b6122e6600083836126dd565b6001600360008473ffffffffffffffffffffffffffffffffffffffff1673ffffffffffffffffffffffffffffffffffffffff16815260200190815260200160002060008282546123369190613af8565b92505081905550816002600083815260200190815260200160002060006101000a81548173ffffffffffffffffffffffffffffffffffffffff021916908373ffffffffffffffffffffffffffffffffffffffff160217905550808273ffffffffffffffffffffffffffffffffffffffff16600073ffffffffffffffffffffffffffffffffffffffff167fddf252ad1be2c89b69c2b068fc378daa952ba7f163c4a11628f55a4df523b3ef60405160405180910390a45050565b6000600660009054906101000a900473ffffffffffffffffffffffffffffffffffffffff16905081600660006101000a81548173ffffffffffffffffffffffffffffffffffffffff021916908373ffffffffffffffffffffffffffffffffffffffff1602179055508173ffffffffffffffffffffffffffffffffffffffff168173ffffffffffffffffffffffffffffffffffffffff167f8be0079c531659141344cd1fd0a4f28419497f9722a3daafe3b4186f6b6457e060405160405180910390a35050565b60006124dd836000018373ffffffffffffffffffffffffffffffffffffffff1660001b612868565b905092915050565b8173ffffffffffffffffffffffffffffffffffffffff168373ffffffffffffffffffffffffffffffffffffffff161415612554576040517f08c379a000000000000000000000000000000000000000000000000000000000815260040161254b906137cd565b60405180910390fd5b80600560008573ffffffffffffffffffffffffffffffffffffffff1673ffffffffffffffffffffffffffffffffffffffff16815260200190815260200160002060008473ffffffffffffffffffffffffffffffffffffffff1673ffffffffffffffffffffffffffffffffffffffff16815260200190815260200160002060006101000a81548160ff0219169083151502179055508173ffffffffffffffffffffffffffffffffffffffff168373ffffffffffffffffffffffffffffffffffffffff167f17307eab39ab6107e8899845ad3d59bd9653f200f220920489ca2b5937696c318360405161264591906136d5565b60405180910390a3505050565b61265d848484611f71565b612669848484846128d8565b6126a8576040517f08c379a000000000000000000000000000000000000000000000000000000000815260040161269f9061374d565b60405180910390fd5b50505050565b60006126bc82600001612a6f565b9050919050565b60006126d28360000183612a80565b60001c905092915050565b505050565b6000808360010160008481526020019081526020016000205490506000811461285c5760006001826127149190613b4e565b905060006001866000018054905061272c9190613b4e565b90508181146127e7576000866000018281548110612773577f4e487b7100000000000000000000000000000000000000000000000000000000600052603260045260246000fd5b90600052602060002001549050808760000184815481106127bd577f4e487b7100000000000000000000000000000000000000000000000000000000600052603260045260246000fd5b90600052602060002001819055508387600101600083815260200190815260200160002081905550505b85600001805480612821577f4e487b7100000000000000000000000000000000000000000000000000000000600052603160045260246000fd5b600190038181906000526020600020016000905590558560010160008681526020019081526020016000206000905560019350505050612862565b60009150505b92915050565b60006128748383612ad1565b6128cd5782600001829080600181540180825580915050600190039060005260206000200160009091909190915055826000018054905083600101600084815260200190815260200160002081905550600190506128d2565b600090505b92915050565b60006128f98473ffffffffffffffffffffffffffffffffffffffff16612af4565b15612a62578373ffffffffffffffffffffffffffffffffffffffff1663150b7a02612922611dd2565b8786866040518563ffffffff1660e01b81526004016129449493929190613667565b602060405180830381600087803b15801561295e57600080fd5b505af192505050801561298f57506040513d601f19601f8201168201806040525081019061298c9190613012565b60015b612a12573d80600081146129bf576040519150601f19603f3d011682016040523d82523d6000602084013e6129c4565b606091505b50600081511415612a0a576040517f08c379a0000000000000000000000000000000000000000000000000000000008152600401612a019061374d565b60405180910390fd5b805181602001fd5b63150b7a0260e01b7bffffffffffffffffffffffffffffffffffffffffffffffffffffffff1916817bffffffffffffffffffffffffffffffffffffffffffffffffffffffff191614915050612a67565b600190505b949350505050565b600081600001805490509050919050565b6000826000018281548110612abe577f4e487b7100000000000000000000000000000000000000000000000000000000600052603260045260246000fd5b9060005260206000200154905092915050565b600080836001016000848152602001908152602001600020541415905092915050565b600080823b905060008111915050919050565b828054828255906000526020600020908101928215612b80579160200282015b82811115612b7f5782518260006101000a81548173ffffffffffffffffffffffffffffffffffffffff021916908373ffffffffffffffffffffffffffffffffffffffff16021790555091602001919060010190612b27565b5b509050612b8d9190612b91565b5090565b5b80821115612baa576000816000905550600101612b92565b5090565b6000612bc1612bbc846139cd565b6139a8565b90508083825260208201905082856020860282011115612be057600080fd5b60005b85811015612c105781612bf68882612d1c565b845260208401935060208301925050600181019050612be3565b5050509392505050565b6000612c2d612c28846139f9565b6139a8565b90508083825260208201905082856020860282011115612c4c57600080fd5b60005b85811015612c9657813567ffffffffffffffff811115612c6e57600080fd5b808601612c7b8982612d31565b85526020850194506020840193505050600181019050612c4f565b5050509392505050565b6000612cb3612cae84613a25565b6139a8565b905082815260208101848484011115612ccb57600080fd5b612cd6848285613c1a565b509392505050565b6000612cf1612cec84613a56565b6139a8565b905082815260208101848484011115612d0957600080fd5b612d14848285613c29565b509392505050565b600081359050612d2b816142c5565b92915050565b600082601f830112612d4257600080fd5b8135612d52848260208601612bae565b91505092915050565b600082601f830112612d6c57600080fd5b8135612d7c848260208601612c1a565b91505092915050565b600081359050612d94816142dc565b92915050565b600081359050612da9816142f3565b92915050565b600081519050612dbe816142f3565b92915050565b600082601f830112612dd557600080fd5b8135612de5848260208601612ca0565b91505092915050565b600082601f830112612dff57600080fd5b8151612e0f848260208601612cde565b91505092915050565b600081359050612e278161430a565b92915050565b600081519050612e3c8161430a565b92915050565b600060208284031215612e5457600080fd5b6000612e6284828501612d1c565b91505092915050565b60008060408385031215612e7e57600080fd5b6000612e8c85828601612d1c565b9250506020612e9d85828601612d1c565b9150509250929050565b600080600060608486031215612ebc57600080fd5b6000612eca86828701612d1c565b9350506020612edb86828701612d1c565b9250506040612eec86828701612e18565b9150509250925092565b60008060008060808587031215612f0c57600080fd5b6000612f1a87828801612d1c565b9450506020612f2b87828801612d1c565b9350506040612f3c87828801612e18565b925050606085013567ffffffffffffffff811115612f5957600080fd5b612f6587828801612dc4565b91505092959194509250565b60008060408385031215612f8457600080fd5b6000612f9285828601612d1c565b9250506020612fa385828601612d85565b9150509250929050565b60008060408385031215612fc057600080fd5b6000612fce85828601612d1c565b9250506020612fdf85828601612e18565b9150509250929050565b600060208284031215612ffb57600080fd5b600061300984828501612d9a565b91505092915050565b60006020828403121561302457600080fd5b600061303284828501612daf565b91505092915050565b60006020828403121561304d57600080fd5b600082015167ffffffffffffffff81111561306757600080fd5b61307384828501612dee565b91505092915050565b60006020828403121561308e57600080fd5b600061309c84828501612e18565b91505092915050565b6000602082840312156130b757600080fd5b60006130c584828501612e2d565b91505092915050565b600080604083850312156130e157600080fd5b60006130ef85828601612e18565b925050602061310085828601612d1c565b9150509250929050565b60008060006060848603121561311f57600080fd5b600061312d86828701612e18565b935050602061313e86828701612d1c565b925050604084013567ffffffffffffffff81111561315b57600080fd5b61316786828701612d31565b9150509250925092565b6000806040838503121561318457600080fd5b600061319285828601612e18565b925050602083013567ffffffffffffffff8111156131af57600080fd5b6131bb85828601612d31565b9150509250929050565b6000806000606084860312156131da57600080fd5b60006131e886828701612e18565b935050602084013567ffffffffffffffff81111561320557600080fd5b61321186828701612d31565b925050604084013567ffffffffffffffff81111561322e57600080fd5b61323a86828701612d5b565b9150509250925092565b6000806040838503121561325757600080fd5b600061326585828601612e2d565b925050602061327685828601612e2d565b9150509250929050565b600061328c8383613298565b60208301905092915050565b6132a181613b82565b82525050565b6132b081613b82565b82525050565b60006132c182613a97565b6132cb8185613ac5565b93506132d683613a87565b8060005b838110156133075781516132ee8882613280565b97506132f983613ab8565b9250506001810190506132da565b5085935050505092915050565b61331d81613b94565b82525050565b600061332e82613aa2565b6133388185613ad6565b9350613348818560208601613c29565b61335181613d95565b840191505092915050565b61336581613bf6565b82525050565b600061337682613aad565b6133808185613ae7565b9350613390818560208601613c29565b61339981613d95565b840191505092915050565b60006133b1602383613ae7565b91506133bc82613da6565b604082019050919050565b60006133d4603283613ae7565b91506133df82613df5565b604082019050919050565b60006133f7602683613ae7565b915061340282613e44565b604082019050919050565b600061341a601c83613ae7565b915061342582613e93565b602082019050919050565b600061343d602483613ae7565b915061344882613ebc565b604082019050919050565b6000613460601983613ae7565b915061346b82613f0b565b602082019050919050565b6000613483602c83613ae7565b915061348e82613f34565b604082019050919050565b60006134a6603883613ae7565b91506134b182613f83565b604082019050919050565b60006134c9602a83613ae7565b91506134d482613fd2565b604082019050919050565b60006134ec602a83613ae7565b91506134f782614021565b604082019050919050565b600061350f602983613ae7565b915061351a82614070565b604082019050919050565b6000613532602083613ae7565b915061353d826140bf565b602082019050919050565b6000613555602c83613ae7565b9150613560826140e8565b604082019050919050565b6000613578602083613ae7565b915061358382614137565b602082019050919050565b600061359b602983613ae7565b91506135a682614160565b604082019050919050565b60006135be603083613ae7565b91506135c9826141af565b604082019050919050565b60006135e1602183613ae7565b91506135ec826141fe565b604082019050919050565b6000613604601483613ae7565b915061360f8261424d565b602082019050919050565b6000613627603183613ae7565b915061363282614276565b604082019050919050565b61364681613bec565b82525050565b600060208201905061366160008301846132a7565b92915050565b600060808201905061367c60008301876132a7565b61368960208301866132a7565b613696604083018561363d565b81810360608301526136a88184613323565b905095945050505050565b600060208201905081810360008301526136cd81846132b6565b905092915050565b60006020820190506136ea6000830184613314565b92915050565b6000602082019050613705600083018461335c565b92915050565b60006020820190508181036000830152613725818461336b565b905092915050565b60006020820190508181036000830152613746816133a4565b9050919050565b60006020820190508181036000830152613766816133c7565b9050919050565b60006020820190508181036000830152613786816133ea565b9050919050565b600060208201905081810360008301526137a68161340d565b9050919050565b600060208201905081810360008301526137c681613430565b9050919050565b600060208201905081810360008301526137e681613453565b9050919050565b6000602082019050818103600083015261380681613476565b9050919050565b6000602082019050818103600083015261382681613499565b9050919050565b60006020820190508181036000830152613846816134bc565b9050919050565b60006020820190508181036000830152613866816134df565b9050919050565b6000602082019050818103600083015261388681613502565b9050919050565b600060208201905081810360008301526138a681613525565b9050919050565b600060208201905081810360008301526138c681613548565b9050919050565b600060208201905081810360008301526138e68161356b565b9050919050565b600060208201905081810360008301526139068161358e565b9050919050565b60006020820190508181036000830152613926816135b1565b9050919050565b60006020820190508181036000830152613946816135d4565b9050919050565b60006020820190508181036000830152613966816135f7565b9050919050565b600060208201905081810360008301526139868161361a565b9050919050565b60006020820190506139a2600083018461363d565b92915050565b60006139b26139c3565b90506139be8282613c8e565b919050565b6000604051905090565b600067ffffffffffffffff8211156139e8576139e7613d66565b5b602082029050602081019050919050565b600067ffffffffffffffff821115613a1457613a13613d66565b5b602082029050602081019050919050565b600067ffffffffffffffff821115613a4057613a3f613d66565b5b613a4982613d95565b9050602081019050919050565b600067ffffffffffffffff821115613a7157613a70613d66565b5b613a7a82613d95565b9050602081019050919050565b6000819050602082019050919050565b600081519050919050565b600081519050919050565b600081519050919050565b6000602082019050919050565b600082825260208201905092915050565b600082825260208201905092915050565b600082825260208201905092915050565b6000613b0382613bec565b9150613b0e83613bec565b9250827fffffffffffffffffffffffffffffffffffffffffffffffffffffffffffffffff03821115613b4357613b42613d08565b5b828201905092915050565b6000613b5982613bec565b9150613b6483613bec565b925082821015613b7757613b76613d08565b5b828203905092915050565b6000613b8d82613bcc565b9050919050565b60008115159050919050565b60007fffffffff0000000000000000000000000000000000000000000000000000000082169050919050565b600073ffffffffffffffffffffffffffffffffffffffff82169050919050565b6000819050919050565b6000613c0182613c08565b9050919050565b6000613c1382613bcc565b9050919050565b82818337600083830152505050565b60005b83811015613c47578082015181840152602081019050613c2c565b83811115613c56576000848401525b50505050565b60006002820490506001821680613c7457607f821691505b60208210811415613c8857613c87613d37565b5b50919050565b613c9782613d95565b810181811067ffffffffffffffff82111715613cb657613cb5613d66565b5b80604052505050565b6000613cca82613bec565b91507fffffffffffffffffffffffffffffffffffffffffffffffffffffffffffffffff821415613cfd57613cfc613d08565b5b600182019050919050565b7f4e487b7100000000000000000000000000000000000000000000000000000000600052601160045260246000fd5b7f4e487b7100000000000000000000000000000000000000000000000000000000600052602260045260246000fd5b7f4e487b7100000000000000000000000000000000000000000000000000000000600052604160045260246000fd5b6000601f19601f8301169050919050565b7f50617468206d75737420656e6420776974682062617365546f6b656e4164647260008201527f6573730000000000000000000000000000000000000000000000000000000000602082015250565b7f4552433732313a207472616e7366657220746f206e6f6e20455243373231526560008201527f63656976657220696d706c656d656e7465720000000000000000000000000000602082015250565b7f4f776e61626c653a206e6577206f776e657220697320746865207a65726f206160008201527f6464726573730000000000000000000000000000000000000000000000000000602082015250565b7f4552433732313a20746f6b656e20616c7265616479206d696e74656400000000600082015250565b7f4552433732313a207472616e7366657220746f20746865207a65726f2061646460008201527f7265737300000000000000000000000000000000000000000000000000000000602082015250565b7f4552433732313a20617070726f766520746f2063616c6c657200000000000000600082015250565b7f4552433732313a206f70657261746f7220717565727920666f72206e6f6e657860008201527f697374656e7420746f6b656e0000000000000000000000000000000000000000602082015250565b7f4552433732313a20617070726f76652063616c6c6572206973206e6f74206f7760008201527f6e6572206e6f7220617070726f76656420666f7220616c6c0000000000000000602082015250565b7f50617468206d757374207374617274207769746820747261636b656420746f6b60008201527f656e206164647265737300000000000000000000000000000000000000000000602082015250565b7f4552433732313a2062616c616e636520717565727920666f7220746865207a6560008201527f726f206164647265737300000000000000000000000000000000000000000000602082015250565b7f4552433732313a206f776e657220717565727920666f72206e6f6e657869737460008201527f656e7420746f6b656e0000000000000000000000000000000000000000000000602082015250565b7f4552433732313a206d696e7420746f20746865207a65726f2061646472657373600082015250565b7f4552433732313a20617070726f76656420717565727920666f72206e6f6e657860008201527f697374656e7420746f6b656e0000000000000000000000000000000000000000602082015250565b7f4f776e61626c653a2063616c6c6572206973206e6f7420746865206f776e6572600082015250565b7f4552433732313a207472616e73666572206f6620746f6b656e2074686174206960008201527f73206e6f74206f776e0000000000000000000000000000000000000000000000602082015250565b7f50617468206e6565647320746f20636f6e7461696e206174206c65617374203260008201527f20746f6b656e2061646472657373657300000000000000000000000000000000602082015250565b7f4552433732313a20617070726f76616c20746f2063757272656e74206f776e6560008201527f7200000000000000000000000000000000000000000000000000000000000000602082015250565b7f4e6f74206f776e6572206f662061646472657373000000000000000000000000600082015250565b7f4552433732313a207472616e736665722063616c6c6572206973206e6f74206f60008201527f776e6572206e6f7220617070726f766564000000000000000000000000000000602082015250565b6142ce81613b82565b81146142d957600080fd5b50565b6142e581613b94565b81146142f057600080fd5b50565b6142fc81613ba0565b811461430757600080fd5b50565b61431381613bec565b811461431e57600080fd5b5056fea264697066735822122067500136d1602cfb5d9f3683c9f555d3ee69f9e7ef28942d03364e0a239c91a164736f6c63430008040033",
  "devdoc": {
    "kind": "dev",
    "methods": {
      "approve(address,uint256)": {
        "details": "See {IERC721-approve}."
      },
      "balanceOf(address)": {
        "details": "See {IERC721-balanceOf}."
      },
      "getApproved(uint256)": {
        "details": "See {IERC721-getApproved}."
      },
      "isApprovedForAll(address,address)": {
        "details": "See {IERC721-isApprovedForAll}."
      },
      "name()": {
        "details": "See {IERC721Metadata-name}."
      },
      "owner()": {
        "details": "Returns the address of the current owner."
      },
      "ownerOf(uint256)": {
        "details": "See {IERC721-ownerOf}."
      },
      "renounceOwnership()": {
        "details": "Leaves the contract without owner. It will not be possible to call `onlyOwner` functions anymore. Can only be called by the current owner. NOTE: Renouncing ownership will leave the contract without an owner, thereby removing any functionality that is only available to the owner."
      },
      "safeTransferFrom(address,address,uint256)": {
        "details": "See {IERC721-safeTransferFrom}."
      },
      "safeTransferFrom(address,address,uint256,bytes)": {
        "details": "See {IERC721-safeTransferFrom}."
      },
      "setApprovalForAll(address,bool)": {
        "details": "See {IERC721-setApprovalForAll}."
      },
      "supportsInterface(bytes4)": {
        "details": "See {IERC165-supportsInterface}."
      },
      "symbol()": {
        "details": "See {IERC721Metadata-symbol}."
      },
      "tokenURI(uint256)": {
        "details": "See {IERC721Metadata-tokenURI}."
      },
      "transferFrom(address,address,uint256)": {
        "details": "See {IERC721-transferFrom}."
      },
      "transferOwnership(address)": {
        "details": "Transfers ownership of the contract to a new account (`newOwner`). Can only be called by the current owner."
      }
    },
    "version": 1
  },
  "userdoc": {
    "kind": "user",
    "methods": {},
    "version": 1
  },
  "storageLayout": {
    "storage": [
      {
        "astId": 239,
        "contract": "contracts/PortfolioNFT.sol:PortfolioNFT",
        "label": "_name",
        "offset": 0,
        "slot": "0",
        "type": "t_string_storage"
      },
      {
        "astId": 241,
        "contract": "contracts/PortfolioNFT.sol:PortfolioNFT",
        "label": "_symbol",
        "offset": 0,
        "slot": "1",
        "type": "t_string_storage"
      },
      {
        "astId": 245,
        "contract": "contracts/PortfolioNFT.sol:PortfolioNFT",
        "label": "_owners",
        "offset": 0,
        "slot": "2",
        "type": "t_mapping(t_uint256,t_address)"
      },
      {
        "astId": 249,
        "contract": "contracts/PortfolioNFT.sol:PortfolioNFT",
        "label": "_balances",
        "offset": 0,
        "slot": "3",
        "type": "t_mapping(t_address,t_uint256)"
      },
      {
        "astId": 253,
        "contract": "contracts/PortfolioNFT.sol:PortfolioNFT",
        "label": "_tokenApprovals",
        "offset": 0,
        "slot": "4",
        "type": "t_mapping(t_uint256,t_address)"
      },
      {
        "astId": 259,
        "contract": "contracts/PortfolioNFT.sol:PortfolioNFT",
        "label": "_operatorApprovals",
        "offset": 0,
        "slot": "5",
        "type": "t_mapping(t_address,t_mapping(t_address,t_bool))"
      },
      {
        "astId": 7,
        "contract": "contracts/PortfolioNFT.sol:PortfolioNFT",
        "label": "_owner",
        "offset": 0,
        "slot": "6",
        "type": "t_address"
      },
      {
        "astId": 3546,
        "contract": "contracts/PortfolioNFT.sol:PortfolioNFT",
        "label": "_tokenIds",
        "offset": 0,
        "slot": "7",
        "type": "t_struct(Counter)1530_storage"
      },
      {
        "astId": 3551,
        "contract": "contracts/PortfolioNFT.sol:PortfolioNFT",
        "label": "tokenAddresses",
        "offset": 0,
        "slot": "8",
        "type": "t_mapping(t_uint256,t_struct(AddressSet)2149_storage)"
      },
      {
        "astId": 3558,
        "contract": "contracts/PortfolioNFT.sol:PortfolioNFT",
        "label": "tokenPricePaths",
        "offset": 0,
        "slot": "9",
        "type": "t_mapping(t_uint256,t_mapping(t_address,t_array(t_address)dyn_storage))"
      },
      {
        "astId": 3560,
        "contract": "contracts/PortfolioNFT.sol:PortfolioNFT",
        "label": "baseTokenAddress",
        "offset": 0,
        "slot": "10",
        "type": "t_address"
      },
      {
        "astId": 3562,
        "contract": "contracts/PortfolioNFT.sol:PortfolioNFT",
        "label": "WETHAddress",
        "offset": 0,
        "slot": "11",
        "type": "t_address"
      },
      {
        "astId": 3564,
        "contract": "contracts/PortfolioNFT.sol:PortfolioNFT",
        "label": "WETHSymbol",
        "offset": 0,
        "slot": "12",
        "type": "t_string_storage"
      },
      {
        "astId": 3567,
        "contract": "contracts/PortfolioNFT.sol:PortfolioNFT",
        "label": "WETHPricePath",
        "offset": 0,
        "slot": "13",
        "type": "t_array(t_address)dyn_storage"
      },
      {
        "astId": 3569,
        "contract": "contracts/PortfolioNFT.sol:PortfolioNFT",
        "label": "priceFetcherAddress",
        "offset": 0,
        "slot": "14",
        "type": "t_address"
      },
      {
        "astId": 3571,
        "contract": "contracts/PortfolioNFT.sol:PortfolioNFT",
        "label": "portfolioMetadataAddress",
        "offset": 0,
        "slot": "15",
        "type": "t_address"
      },
      {
        "astId": 3574,
        "contract": "contracts/PortfolioNFT.sol:PortfolioNFT",
        "label": "priceFetcher",
        "offset": 0,
        "slot": "16",
        "type": "t_contract(IPriceFetcher)4025"
      }
    ],
    "types": {
      "t_address": {
        "encoding": "inplace",
        "label": "address",
        "numberOfBytes": "20"
      },
      "t_array(t_address)dyn_storage": {
        "base": "t_address",
        "encoding": "dynamic_array",
        "label": "address[]",
        "numberOfBytes": "32"
      },
      "t_array(t_bytes32)dyn_storage": {
        "base": "t_bytes32",
        "encoding": "dynamic_array",
        "label": "bytes32[]",
        "numberOfBytes": "32"
      },
      "t_bool": {
        "encoding": "inplace",
        "label": "bool",
        "numberOfBytes": "1"
      },
      "t_bytes32": {
        "encoding": "inplace",
        "label": "bytes32",
        "numberOfBytes": "32"
      },
      "t_contract(IPriceFetcher)4025": {
        "encoding": "inplace",
        "label": "contract IPriceFetcher",
        "numberOfBytes": "20"
      },
      "t_mapping(t_address,t_array(t_address)dyn_storage)": {
        "encoding": "mapping",
        "key": "t_address",
        "label": "mapping(address => address[])",
        "numberOfBytes": "32",
        "value": "t_array(t_address)dyn_storage"
      },
      "t_mapping(t_address,t_bool)": {
        "encoding": "mapping",
        "key": "t_address",
        "label": "mapping(address => bool)",
        "numberOfBytes": "32",
        "value": "t_bool"
      },
      "t_mapping(t_address,t_mapping(t_address,t_bool))": {
        "encoding": "mapping",
        "key": "t_address",
        "label": "mapping(address => mapping(address => bool))",
        "numberOfBytes": "32",
        "value": "t_mapping(t_address,t_bool)"
      },
      "t_mapping(t_address,t_uint256)": {
        "encoding": "mapping",
        "key": "t_address",
        "label": "mapping(address => uint256)",
        "numberOfBytes": "32",
        "value": "t_uint256"
      },
      "t_mapping(t_bytes32,t_uint256)": {
        "encoding": "mapping",
        "key": "t_bytes32",
        "label": "mapping(bytes32 => uint256)",
        "numberOfBytes": "32",
        "value": "t_uint256"
      },
      "t_mapping(t_uint256,t_address)": {
        "encoding": "mapping",
        "key": "t_uint256",
        "label": "mapping(uint256 => address)",
        "numberOfBytes": "32",
        "value": "t_address"
      },
      "t_mapping(t_uint256,t_mapping(t_address,t_array(t_address)dyn_storage))": {
        "encoding": "mapping",
        "key": "t_uint256",
        "label": "mapping(uint256 => mapping(address => address[]))",
        "numberOfBytes": "32",
        "value": "t_mapping(t_address,t_array(t_address)dyn_storage)"
      },
      "t_mapping(t_uint256,t_struct(AddressSet)2149_storage)": {
        "encoding": "mapping",
        "key": "t_uint256",
        "label": "mapping(uint256 => struct EnumerableSet.AddressSet)",
        "numberOfBytes": "32",
        "value": "t_struct(AddressSet)2149_storage"
      },
      "t_string_storage": {
        "encoding": "bytes",
        "label": "string",
        "numberOfBytes": "32"
      },
      "t_struct(AddressSet)2149_storage": {
        "encoding": "inplace",
        "label": "struct EnumerableSet.AddressSet",
        "members": [
          {
            "astId": 2148,
            "contract": "contracts/PortfolioNFT.sol:PortfolioNFT",
            "label": "_inner",
            "offset": 0,
            "slot": "0",
            "type": "t_struct(Set)1848_storage"
          }
        ],
        "numberOfBytes": "64"
      },
      "t_struct(Counter)1530_storage": {
        "encoding": "inplace",
        "label": "struct Counters.Counter",
        "members": [
          {
            "astId": 1529,
            "contract": "contracts/PortfolioNFT.sol:PortfolioNFT",
            "label": "_value",
            "offset": 0,
            "slot": "0",
            "type": "t_uint256"
          }
        ],
        "numberOfBytes": "32"
      },
      "t_struct(Set)1848_storage": {
        "encoding": "inplace",
        "label": "struct EnumerableSet.Set",
        "members": [
          {
            "astId": 1843,
            "contract": "contracts/PortfolioNFT.sol:PortfolioNFT",
            "label": "_values",
            "offset": 0,
            "slot": "0",
            "type": "t_array(t_bytes32)dyn_storage"
          },
          {
            "astId": 1847,
            "contract": "contracts/PortfolioNFT.sol:PortfolioNFT",
            "label": "_indexes",
            "offset": 0,
            "slot": "1",
            "type": "t_mapping(t_bytes32,t_uint256)"
          }
        ],
        "numberOfBytes": "64"
      },
      "t_uint256": {
        "encoding": "inplace",
        "label": "uint256",
        "numberOfBytes": "32"
      }
    }
  }
}