{
  "address": "0x527853759D01937B345388A6AD2dfd73dFb2f16d",
  "abi": [
    {
      "inputs": [
        {
          "internalType": "address",
          "name": "_baseTokenAddress",
          "type": "address"
        },
        {
          "internalType": "address",
          "name": "_WETHAddress",
          "type": "address"
        },
        {
          "internalType": "string",
          "name": "_WETHSymbol",
          "type": "string"
        }
      ],
      "stateMutability": "nonpayable",
      "type": "constructor"
    },
    {
      "anonymous": false,
      "inputs": [
        {
          "indexed": true,
          "internalType": "address",
          "name": "owner",
          "type": "address"
        },
        {
          "indexed": true,
          "internalType": "address",
          "name": "approved",
          "type": "address"
        },
        {
          "indexed": true,
          "internalType": "uint256",
          "name": "tokenId",
          "type": "uint256"
        }
      ],
      "name": "Approval",
      "type": "event"
    },
    {
      "anonymous": false,
      "inputs": [
        {
          "indexed": true,
          "internalType": "address",
          "name": "owner",
          "type": "address"
        },
        {
          "indexed": true,
          "internalType": "address",
          "name": "operator",
          "type": "address"
        },
        {
          "indexed": false,
          "internalType": "bool",
          "name": "approved",
          "type": "bool"
        }
      ],
      "name": "ApprovalForAll",
      "type": "event"
    },
    {
      "anonymous": false,
      "inputs": [
        {
          "indexed": true,
          "internalType": "address",
          "name": "previousOwner",
          "type": "address"
        },
        {
          "indexed": true,
          "internalType": "address",
          "name": "newOwner",
          "type": "address"
        }
      ],
      "name": "OwnershipTransferred",
      "type": "event"
    },
    {
      "anonymous": false,
      "inputs": [
        {
          "indexed": true,
          "internalType": "address",
          "name": "from",
          "type": "address"
        },
        {
          "indexed": true,
          "internalType": "address",
          "name": "to",
          "type": "address"
        },
        {
          "indexed": true,
          "internalType": "uint256",
          "name": "tokenId",
          "type": "uint256"
        }
      ],
      "name": "Transfer",
      "type": "event"
    },
    {
      "inputs": [],
      "name": "WETHAddress",
      "outputs": [
        {
          "internalType": "address",
          "name": "",
          "type": "address"
        }
      ],
      "stateMutability": "view",
      "type": "function"
    },
    {
      "inputs": [],
      "name": "WETHSymbol",
      "outputs": [
        {
          "internalType": "string",
          "name": "",
          "type": "string"
        }
      ],
      "stateMutability": "view",
      "type": "function"
    },
    {
      "inputs": [
        {
          "internalType": "address",
          "name": "to",
          "type": "address"
        },
        {
          "internalType": "uint256",
          "name": "tokenId",
          "type": "uint256"
        }
      ],
      "name": "approve",
      "outputs": [],
      "stateMutability": "nonpayable",
      "type": "function"
    },
    {
      "inputs": [
        {
          "internalType": "address",
          "name": "owner",
          "type": "address"
        }
      ],
      "name": "balanceOf",
      "outputs": [
        {
          "internalType": "uint256",
          "name": "",
          "type": "uint256"
        }
      ],
      "stateMutability": "view",
      "type": "function"
    },
    {
      "inputs": [],
      "name": "baseTokenAddress",
      "outputs": [
        {
          "internalType": "address",
          "name": "",
          "type": "address"
        }
      ],
      "stateMutability": "view",
      "type": "function"
    },
    {
      "inputs": [
        {
          "internalType": "uint256",
          "name": "tokenId",
          "type": "uint256"
        }
      ],
      "name": "getApproved",
      "outputs": [
        {
          "internalType": "address",
          "name": "",
          "type": "address"
        }
      ],
      "stateMutability": "view",
      "type": "function"
    },
    {
      "inputs": [
        {
          "internalType": "uint256",
          "name": "tokenId",
          "type": "uint256"
        }
      ],
      "name": "getTokenAddresses",
      "outputs": [
        {
          "internalType": "address[]",
          "name": "",
          "type": "address[]"
        }
      ],
      "stateMutability": "view",
      "type": "function"
    },
    {
      "inputs": [
        {
          "internalType": "address",
          "name": "owner",
          "type": "address"
        },
        {
          "internalType": "address",
          "name": "operator",
          "type": "address"
        }
      ],
      "name": "isApprovedForAll",
      "outputs": [
        {
          "internalType": "bool",
          "name": "",
          "type": "bool"
        }
      ],
      "stateMutability": "view",
      "type": "function"
    },
    {
      "inputs": [
        {
          "internalType": "address",
          "name": "_address",
          "type": "address"
        }
      ],
      "name": "mint",
      "outputs": [
        {
          "internalType": "uint256",
          "name": "",
          "type": "uint256"
        }
      ],
      "stateMutability": "nonpayable",
      "type": "function"
    },
    {
      "inputs": [],
      "name": "name",
      "outputs": [
        {
          "internalType": "string",
          "name": "",
          "type": "string"
        }
      ],
      "stateMutability": "view",
      "type": "function"
    },
    {
      "inputs": [],
      "name": "owner",
      "outputs": [
        {
          "internalType": "address",
          "name": "",
          "type": "address"
        }
      ],
      "stateMutability": "view",
      "type": "function"
    },
    {
      "inputs": [
        {
          "internalType": "uint256",
          "name": "tokenId",
          "type": "uint256"
        }
      ],
      "name": "ownerOf",
      "outputs": [
        {
          "internalType": "address",
          "name": "",
          "type": "address"
        }
      ],
      "stateMutability": "view",
      "type": "function"
    },
    {
      "inputs": [],
      "name": "portfolioMetadataAddress",
      "outputs": [
        {
          "internalType": "address",
          "name": "",
          "type": "address"
        }
      ],
      "stateMutability": "view",
      "type": "function"
    },
    {
      "inputs": [],
      "name": "priceFetcher",
      "outputs": [
        {
          "internalType": "contract IPriceFetcher",
          "name": "",
          "type": "address"
        }
      ],
      "stateMutability": "view",
      "type": "function"
    },
    {
      "inputs": [],
      "name": "priceFetcherAddress",
      "outputs": [
        {
          "internalType": "address",
          "name": "",
          "type": "address"
        }
      ],
      "stateMutability": "view",
      "type": "function"
    },
    {
      "inputs": [
        {
          "internalType": "uint256",
          "name": "_tokenId",
          "type": "uint256"
        },
        {
          "internalType": "address",
          "name": "_tokenAddress",
          "type": "address"
        }
      ],
      "name": "removeToken",
      "outputs": [],
      "stateMutability": "nonpayable",
      "type": "function"
    },
    {
      "inputs": [
        {
          "internalType": "uint256",
          "name": "_tokenId",
          "type": "uint256"
        },
        {
          "internalType": "address[]",
          "name": "_tokenAddresses",
          "type": "address[]"
        }
      ],
      "name": "removeTokens",
      "outputs": [],
      "stateMutability": "nonpayable",
      "type": "function"
    },
    {
      "inputs": [],
      "name": "renounceOwnership",
      "outputs": [],
      "stateMutability": "nonpayable",
      "type": "function"
    },
    {
      "inputs": [
        {
          "internalType": "address",
          "name": "from",
          "type": "address"
        },
        {
          "internalType": "address",
          "name": "to",
          "type": "address"
        },
        {
          "internalType": "uint256",
          "name": "tokenId",
          "type": "uint256"
        }
      ],
      "name": "safeTransferFrom",
      "outputs": [],
      "stateMutability": "nonpayable",
      "type": "function"
    },
    {
      "inputs": [
        {
          "internalType": "address",
          "name": "from",
          "type": "address"
        },
        {
          "internalType": "address",
          "name": "to",
          "type": "address"
        },
        {
          "internalType": "uint256",
          "name": "tokenId",
          "type": "uint256"
        },
        {
          "internalType": "bytes",
          "name": "_data",
          "type": "bytes"
        }
      ],
      "name": "safeTransferFrom",
      "outputs": [],
      "stateMutability": "nonpayable",
      "type": "function"
    },
    {
      "inputs": [
        {
          "internalType": "address",
          "name": "operator",
          "type": "address"
        },
        {
          "internalType": "bool",
          "name": "approved",
          "type": "bool"
        }
      ],
      "name": "setApprovalForAll",
      "outputs": [],
      "stateMutability": "nonpayable",
      "type": "function"
    },
    {
      "inputs": [
        {
          "internalType": "address",
          "name": "_baseTokenAddress",
          "type": "address"
        }
      ],
      "name": "setBaseTokenAddress",
      "outputs": [],
      "stateMutability": "nonpayable",
      "type": "function"
    },
    {
      "inputs": [
        {
          "internalType": "address",
          "name": "_portfolioMetadataAddress",
          "type": "address"
        }
      ],
      "name": "setPortfolioMetadataAddress",
      "outputs": [],
      "stateMutability": "nonpayable",
      "type": "function"
    },
    {
      "inputs": [
        {
          "internalType": "address",
          "name": "_priceFetcherAddress",
          "type": "address"
        }
      ],
      "name": "setPriceFetcherAddress",
      "outputs": [],
      "stateMutability": "nonpayable",
      "type": "function"
    },
    {
      "inputs": [
        {
          "internalType": "bytes4",
          "name": "interfaceId",
          "type": "bytes4"
        }
      ],
      "name": "supportsInterface",
      "outputs": [
        {
          "internalType": "bool",
          "name": "",
          "type": "bool"
        }
      ],
      "stateMutability": "view",
      "type": "function"
    },
    {
      "inputs": [],
      "name": "symbol",
      "outputs": [
        {
          "internalType": "string",
          "name": "",
          "type": "string"
        }
      ],
      "stateMutability": "view",
      "type": "function"
    },
    {
      "inputs": [
        {
          "internalType": "uint256",
          "name": "tokenId",
          "type": "uint256"
        }
      ],
      "name": "tokenURI",
      "outputs": [
        {
          "internalType": "string",
          "name": "",
          "type": "string"
        }
      ],
      "stateMutability": "view",
      "type": "function"
    },
    {
      "inputs": [
        {
          "internalType": "uint256",
          "name": "_tokenId",
          "type": "uint256"
        },
        {
          "internalType": "address",
          "name": "_tokenAddress",
          "type": "address"
        }
      ],
      "name": "trackToken",
      "outputs": [],
      "stateMutability": "nonpayable",
      "type": "function"
    },
    {
      "inputs": [
        {
          "internalType": "uint256",
          "name": "_tokenId",
          "type": "uint256"
        },
        {
          "internalType": "address[]",
          "name": "_tokenAddresses",
          "type": "address[]"
        }
      ],
      "name": "trackTokens",
      "outputs": [],
      "stateMutability": "nonpayable",
      "type": "function"
    },
    {
      "inputs": [
        {
          "internalType": "address",
          "name": "from",
          "type": "address"
        },
        {
          "internalType": "address",
          "name": "to",
          "type": "address"
        },
        {
          "internalType": "uint256",
          "name": "tokenId",
          "type": "uint256"
        }
      ],
      "name": "transferFrom",
      "outputs": [],
      "stateMutability": "nonpayable",
      "type": "function"
    },
    {
      "inputs": [
        {
          "internalType": "address",
          "name": "newOwner",
          "type": "address"
        }
      ],
      "name": "transferOwnership",
      "outputs": [],
      "stateMutability": "nonpayable",
      "type": "function"
    }
  ],
  "transactionHash": "0x4337e8b6dcee0072fa80ec4fcb4fc3330d1da0553740d94724646c132f211625",
  "args": [
    "0x2791Bca1f2de4661ED88A30C99A7a9449Aa84174",
    "0x0d500B1d8E8eF31E21C99d1Db9A6444d3ADf1270",
    "MATIC"
  ],
  "numDeployments": 1,
  "solcInputHash": "28e296f461fc5a840d77936ac2fe8dbc",
  "bytecode": "0x60806040523480156200001157600080fd5b50604051620040d2380380620040d283398181016040528101906200003791906200046f565b6040518060400160405280600e81526020017f4c656e7320506f7274666f6c696f0000000000000000000000000000000000008152506040518060400160405280600481526020017f4c454e53000000000000000000000000000000000000000000000000000000008152508160009080519060200190620000bb92919062000336565b508060019080519060200190620000d492919062000336565b505050620000f7620000eb6200016b60201b60201c565b6200017360201b60201c565b62000108836200023960201b60201c565b81600a60006101000a81548173ffffffffffffffffffffffffffffffffffffffff021916908373ffffffffffffffffffffffffffffffffffffffff16021790555080600b90805190602001906200016192919062000336565b505050506200071f565b600033905090565b6000600660009054906101000a900473ffffffffffffffffffffffffffffffffffffffff16905081600660006101000a81548173ffffffffffffffffffffffffffffffffffffffff021916908373ffffffffffffffffffffffffffffffffffffffff1602179055508173ffffffffffffffffffffffffffffffffffffffff168173ffffffffffffffffffffffffffffffffffffffff167f8be0079c531659141344cd1fd0a4f28419497f9722a3daafe3b4186f6b6457e060405160405180910390a35050565b620002496200016b60201b60201c565b73ffffffffffffffffffffffffffffffffffffffff166200026f6200030c60201b60201c565b73ffffffffffffffffffffffffffffffffffffffff1614620002c8576040517f08c379a0000000000000000000000000000000000000000000000000000000008152600401620002bf9062000505565b60405180910390fd5b80600960006101000a81548173ffffffffffffffffffffffffffffffffffffffff021916908373ffffffffffffffffffffffffffffffffffffffff16021790555050565b6000600660009054906101000a900473ffffffffffffffffffffffffffffffffffffffff16905090565b828054620003449062000601565b90600052602060002090601f016020900481019282620003685760008555620003b4565b82601f106200038357805160ff1916838001178555620003b4565b82800160010185558215620003b4579182015b82811115620003b357825182559160200191906001019062000396565b5b509050620003c39190620003c7565b5090565b5b80821115620003e2576000816000905550600101620003c8565b5090565b6000620003fd620003f78462000550565b62000527565b9050828152602081018484840111156200041657600080fd5b62000423848285620005cb565b509392505050565b6000815190506200043c8162000705565b92915050565b600082601f8301126200045457600080fd5b815162000466848260208601620003e6565b91505092915050565b6000806000606084860312156200048557600080fd5b600062000495868287016200042b565b9350506020620004a8868287016200042b565b925050604084015167ffffffffffffffff811115620004c657600080fd5b620004d48682870162000442565b9150509250925092565b6000620004ed60208362000586565b9150620004fa82620006dc565b602082019050919050565b600060208201905081810360008301526200052081620004de565b9050919050565b60006200053362000546565b905062000541828262000637565b919050565b6000604051905090565b600067ffffffffffffffff8211156200056e576200056d6200069c565b5b6200057982620006cb565b9050602081019050919050565b600082825260208201905092915050565b6000620005a482620005ab565b9050919050565b600073ffffffffffffffffffffffffffffffffffffffff82169050919050565b60005b83811015620005eb578082015181840152602081019050620005ce565b83811115620005fb576000848401525b50505050565b600060028204905060018216806200061a57607f821691505b602082108114156200063157620006306200066d565b5b50919050565b6200064282620006cb565b810181811067ffffffffffffffff821117156200066457620006636200069c565b5b80604052505050565b7f4e487b7100000000000000000000000000000000000000000000000000000000600052602260045260246000fd5b7f4e487b7100000000000000000000000000000000000000000000000000000000600052604160045260246000fd5b6000601f19601f8301169050919050565b7f4f776e61626c653a2063616c6c6572206973206e6f7420746865206f776e6572600082015250565b620007108162000597565b81146200071c57600080fd5b50565b6139a3806200072f6000396000f3fe608060405234801561001057600080fd5b50600436106101e55760003560e01c80635dfc34d41161010f578063a22cb465116100a2578063c87b56dd11610071578063c87b56dd14610556578063dc4d317114610586578063e985e9c5146105a2578063f2fde38b146105d2576101e5565b8063a22cb465146104d2578063b88d4fde146104ee578063bc48ac681461050a578063c591a49114610526576101e5565b8063715018a6116100de578063715018a61461046e5780637cb374bd146104785780638da5cb5b1461049657806395d89b41146104b4576101e5565b80635dfc34d4146103c25780636352211e146103de5780636a6278421461040e57806370a082311461043e576101e5565b80632421d726116101875780633ce7066a116101565780633ce7066a1461035257806340e5bfeb1461036e57806342842e0e1461038a5780635de1cf68146103a6576101e5565b80632421d726146102dc578063311b6db9146102fa57806333fe567614610318578063357ba70414610334576101e5565b8063095ea7b3116101c3578063095ea7b3146102685780630af88b24146102845780631a4d2c58146102a257806323b872dd146102c0576101e5565b806301ffc9a7146101ea57806306fdde031461021a578063081812fc14610238575b600080fd5b61020460048036038101906101ff9190612939565b6105ee565b6040516102119190612e9a565b60405180910390f35b6102226106d0565b60405161022f9190612ed0565b60405180910390f35b610252600480360381019061024d91906129cc565b610762565b60405161025f9190612e11565b60405180910390f35b610282600480360381019061027d91906128fd565b6107e7565b005b61028c6108ff565b6040516102999190612e11565b60405180910390f35b6102aa610925565b6040516102b79190612e11565b60405180910390f35b6102da60048036038101906102d591906127f7565b61094b565b005b6102e46109ab565b6040516102f19190612eb5565b60405180910390f35b6103026109d1565b60405161030f9190612e11565b60405180910390f35b610332600480360381019061032d9190612a1e565b6109f7565b005b61033c610a97565b6040516103499190612ed0565b60405180910390f35b61036c60048036038101906103679190612a5a565b610b25565b005b61038860048036038101906103839190612792565b610b93565b005b6103a4600480360381019061039f91906127f7565b610c94565b005b6103c060048036038101906103bb9190612792565b610cb4565b005b6103dc60048036038101906103d79190612792565b610d74565b005b6103f860048036038101906103f391906129cc565b610e34565b6040516104059190612e11565b60405180910390f35b61042860048036038101906104239190612792565b610ee6565b60405161043591906130f2565b60405180910390f35b61045860048036038101906104539190612792565b610f3f565b60405161046591906130f2565b60405180910390f35b610476610ff7565b005b61048061107f565b60405161048d9190612e11565b60405180910390f35b61049e6110a5565b6040516104ab9190612e11565b60405180910390f35b6104bc6110cf565b6040516104c99190612ed0565b60405180910390f35b6104ec60048036038101906104e791906128c1565b611161565b005b61050860048036038101906105039190612846565b611177565b005b610524600480360381019061051f9190612a1e565b6111d9565b005b610540600480360381019061053b91906129cc565b611387565b60405161054d9190612e78565b60405180910390f35b610570600480360381019061056b91906129cc565b6114f0565b60405161057d9190612ed0565b60405180910390f35b6105a0600480360381019061059b9190612a5a565b6115a9565b005b6105bc60048036038101906105b791906127bb565b611617565b6040516105c99190612e9a565b60405180910390f35b6105ec60048036038101906105e79190612792565b6116ab565b005b60007f80ac58cd000000000000000000000000000000000000000000000000000000007bffffffffffffffffffffffffffffffffffffffffffffffffffffffff1916827bffffffffffffffffffffffffffffffffffffffffffffffffffffffff191614806106b957507f5b5e139f000000000000000000000000000000000000000000000000000000007bffffffffffffffffffffffffffffffffffffffffffffffffffffffff1916827bffffffffffffffffffffffffffffffffffffffffffffffffffffffff1916145b806106c957506106c8826117a3565b5b9050919050565b6060600080546106df90613395565b80601f016020809104026020016040519081016040528092919081815260200182805461070b90613395565b80156107585780601f1061072d57610100808354040283529160200191610758565b820191906000526020600020905b81548152906001019060200180831161073b57829003601f168201915b5050505050905090565b600061076d8261180d565b6107ac576040517f08c379a00000000000000000000000000000000000000000000000000000000081526004016107a390613032565b60405180910390fd5b6004600083815260200190815260200160002060009054906101000a900473ffffffffffffffffffffffffffffffffffffffff169050919050565b60006107f282610e34565b90508073ffffffffffffffffffffffffffffffffffffffff168373ffffffffffffffffffffffffffffffffffffffff161415610863576040517f08c379a000000000000000000000000000000000000000000000000000000000815260040161085a90613092565b60405180910390fd5b8073ffffffffffffffffffffffffffffffffffffffff16610882611879565b73ffffffffffffffffffffffffffffffffffffffff1614806108b157506108b0816108ab611879565b611617565b5b6108f0576040517f08c379a00000000000000000000000000000000000000000000000000000000081526004016108e790612fb2565b60405180910390fd5b6108fa8383611881565b505050565b600a60009054906101000a900473ffffffffffffffffffffffffffffffffffffffff1681565b600c60009054906101000a900473ffffffffffffffffffffffffffffffffffffffff1681565b61095c610956611879565b8261193a565b61099b576040517f08c379a0000000000000000000000000000000000000000000000000000000008152600401610992906130d2565b60405180910390fd5b6109a6838383611a18565b505050565b600e60009054906101000a900473ffffffffffffffffffffffffffffffffffffffff1681565b600d60009054906101000a900473ffffffffffffffffffffffffffffffffffffffff1681565b3373ffffffffffffffffffffffffffffffffffffffff16610a1783610e34565b73ffffffffffffffffffffffffffffffffffffffff1614610a6d576040517f08c379a0000000000000000000000000000000000000000000000000000000008152600401610a64906130b2565b60405180910390fd5b610a928160086000858152602001908152602001600020611c7490919063ffffffff16565b505050565b600b8054610aa490613395565b80601f0160208091040260200160405190810160405280929190818152602001828054610ad090613395565b8015610b1d5780601f10610af257610100808354040283529160200191610b1d565b820191906000526020600020905b815481529060010190602001808311610b0057829003601f168201915b505050505081565b60005b8151811015610b8e57610b7b83838381518110610b6e577f4e487b7100000000000000000000000000000000000000000000000000000000600052603260045260246000fd5b60200260200101516111d9565b8080610b86906133f8565b915050610b28565b505050565b610b9b611879565b73ffffffffffffffffffffffffffffffffffffffff16610bb96110a5565b73ffffffffffffffffffffffffffffffffffffffff1614610c0f576040517f08c379a0000000000000000000000000000000000000000000000000000000008152600401610c0690613052565b60405180910390fd5b80600c60006101000a81548173ffffffffffffffffffffffffffffffffffffffff021916908373ffffffffffffffffffffffffffffffffffffffff16021790555080600e60006101000a81548173ffffffffffffffffffffffffffffffffffffffff021916908373ffffffffffffffffffffffffffffffffffffffff16021790555050565b610caf83838360405180602001604052806000815250611177565b505050565b610cbc611879565b73ffffffffffffffffffffffffffffffffffffffff16610cda6110a5565b73ffffffffffffffffffffffffffffffffffffffff1614610d30576040517f08c379a0000000000000000000000000000000000000000000000000000000008152600401610d2790613052565b60405180910390fd5b80600d60006101000a81548173ffffffffffffffffffffffffffffffffffffffff021916908373ffffffffffffffffffffffffffffffffffffffff16021790555050565b610d7c611879565b73ffffffffffffffffffffffffffffffffffffffff16610d9a6110a5565b73ffffffffffffffffffffffffffffffffffffffff1614610df0576040517f08c379a0000000000000000000000000000000000000000000000000000000008152600401610de790613052565b60405180910390fd5b80600960006101000a81548173ffffffffffffffffffffffffffffffffffffffff021916908373ffffffffffffffffffffffffffffffffffffffff16021790555050565b6000806002600084815260200190815260200160002060009054906101000a900473ffffffffffffffffffffffffffffffffffffffff169050600073ffffffffffffffffffffffffffffffffffffffff168173ffffffffffffffffffffffffffffffffffffffff161415610edd576040517f08c379a0000000000000000000000000000000000000000000000000000000008152600401610ed490612ff2565b60405180910390fd5b80915050919050565b6000610ef26007611ca4565b6000610efe6007611cba565b9050610f0a8382611cc8565b610f3681600a60009054906101000a900473ffffffffffffffffffffffffffffffffffffffff166111d9565b80915050919050565b60008073ffffffffffffffffffffffffffffffffffffffff168273ffffffffffffffffffffffffffffffffffffffff161415610fb0576040517f08c379a0000000000000000000000000000000000000000000000000000000008152600401610fa790612fd2565b60405180910390fd5b600360008373ffffffffffffffffffffffffffffffffffffffff1673ffffffffffffffffffffffffffffffffffffffff168152602001908152602001600020549050919050565b610fff611879565b73ffffffffffffffffffffffffffffffffffffffff1661101d6110a5565b73ffffffffffffffffffffffffffffffffffffffff1614611073576040517f08c379a000000000000000000000000000000000000000000000000000000000815260040161106a90613052565b60405180910390fd5b61107d6000611e96565b565b600960009054906101000a900473ffffffffffffffffffffffffffffffffffffffff1681565b6000600660009054906101000a900473ffffffffffffffffffffffffffffffffffffffff16905090565b6060600180546110de90613395565b80601f016020809104026020016040519081016040528092919081815260200182805461110a90613395565b80156111575780601f1061112c57610100808354040283529160200191611157565b820191906000526020600020905b81548152906001019060200180831161113a57829003601f168201915b5050505050905090565b61117361116c611879565b8383611f5c565b5050565b611188611182611879565b8361193a565b6111c7576040517f08c379a00000000000000000000000000000000000000000000000000000000081526004016111be906130d2565b60405180910390fd5b6111d3848484846120c9565b50505050565b3373ffffffffffffffffffffffffffffffffffffffff166111f983610e34565b73ffffffffffffffffffffffffffffffffffffffff161461124f576040517f08c379a0000000000000000000000000000000000000000000000000000000008152600401611246906130b2565b60405180910390fd5b8073ffffffffffffffffffffffffffffffffffffffff166395d89b416040518163ffffffff1660e01b815260040160006040518083038186803b15801561129557600080fd5b505afa1580156112a9573d6000803e3d6000fd5b505050506040513d6000823e3d601f19601f820116820180604052508101906112d2919061298b565b508073ffffffffffffffffffffffffffffffffffffffff166370a08231336040518263ffffffff1660e01b815260040161130c9190612e11565b60206040518083038186803b15801561132457600080fd5b505afa158015611338573d6000803e3d6000fd5b505050506040513d601f19601f8201168201806040525081019061135c91906129f5565b50611382816008600085815260200190815260200160002061212590919063ffffffff16565b505050565b606060006113a660086000858152602001908152602001600020612155565b67ffffffffffffffff8111156113e5577f4e487b7100000000000000000000000000000000000000000000000000000000600052604160045260246000fd5b6040519080825280602002602001820160405280156114135781602001602082028036833780820191505090505b50905060005b61143460086000868152602001908152602001600020612155565b8110156114e657611460816008600087815260200190815260200160002061216a90919063ffffffff16565b828281518110611499577f4e487b7100000000000000000000000000000000000000000000000000000000600052603260045260246000fd5b602002602001019073ffffffffffffffffffffffffffffffffffffffff16908173ffffffffffffffffffffffffffffffffffffffff168152505080806114de906133f8565b915050611419565b5080915050919050565b6060600d60009054906101000a900473ffffffffffffffffffffffffffffffffffffffff1673ffffffffffffffffffffffffffffffffffffffff1663c87b56dd836040518263ffffffff1660e01b815260040161154d91906130f2565b60006040518083038186803b15801561156557600080fd5b505afa158015611579573d6000803e3d6000fd5b505050506040513d6000823e3d601f19601f820116820180604052508101906115a2919061298b565b9050919050565b60005b8151811015611612576115ff838383815181106115f2577f4e487b7100000000000000000000000000000000000000000000000000000000600052603260045260246000fd5b60200260200101516109f7565b808061160a906133f8565b9150506115ac565b505050565b6000600560008473ffffffffffffffffffffffffffffffffffffffff1673ffffffffffffffffffffffffffffffffffffffff16815260200190815260200160002060008373ffffffffffffffffffffffffffffffffffffffff1673ffffffffffffffffffffffffffffffffffffffff16815260200190815260200160002060009054906101000a900460ff16905092915050565b6116b3611879565b73ffffffffffffffffffffffffffffffffffffffff166116d16110a5565b73ffffffffffffffffffffffffffffffffffffffff1614611727576040517f08c379a000000000000000000000000000000000000000000000000000000000815260040161171e90613052565b60405180910390fd5b600073ffffffffffffffffffffffffffffffffffffffff168173ffffffffffffffffffffffffffffffffffffffff161415611797576040517f08c379a000000000000000000000000000000000000000000000000000000000815260040161178e90612f12565b60405180910390fd5b6117a081611e96565b50565b60007f01ffc9a7000000000000000000000000000000000000000000000000000000007bffffffffffffffffffffffffffffffffffffffffffffffffffffffff1916827bffffffffffffffffffffffffffffffffffffffffffffffffffffffff1916149050919050565b60008073ffffffffffffffffffffffffffffffffffffffff166002600084815260200190815260200160002060009054906101000a900473ffffffffffffffffffffffffffffffffffffffff1673ffffffffffffffffffffffffffffffffffffffff1614159050919050565b600033905090565b816004600083815260200190815260200160002060006101000a81548173ffffffffffffffffffffffffffffffffffffffff021916908373ffffffffffffffffffffffffffffffffffffffff160217905550808273ffffffffffffffffffffffffffffffffffffffff166118f483610e34565b73ffffffffffffffffffffffffffffffffffffffff167f8c5be1e5ebec7d5bd14f71427d1e84f3dd0314c0f7b2291e5b200ac8c7c3b92560405160405180910390a45050565b60006119458261180d565b611984576040517f08c379a000000000000000000000000000000000000000000000000000000000815260040161197b90612f92565b60405180910390fd5b600061198f83610e34565b90508073ffffffffffffffffffffffffffffffffffffffff168473ffffffffffffffffffffffffffffffffffffffff1614806119fe57508373ffffffffffffffffffffffffffffffffffffffff166119e684610762565b73ffffffffffffffffffffffffffffffffffffffff16145b80611a0f5750611a0e8185611617565b5b91505092915050565b8273ffffffffffffffffffffffffffffffffffffffff16611a3882610e34565b73ffffffffffffffffffffffffffffffffffffffff1614611a8e576040517f08c379a0000000000000000000000000000000000000000000000000000000008152600401611a8590613072565b60405180910390fd5b600073ffffffffffffffffffffffffffffffffffffffff168273ffffffffffffffffffffffffffffffffffffffff161415611afe576040517f08c379a0000000000000000000000000000000000000000000000000000000008152600401611af590612f52565b60405180910390fd5b611b09838383612184565b611b14600082611881565b6001600360008573ffffffffffffffffffffffffffffffffffffffff1673ffffffffffffffffffffffffffffffffffffffff1681526020019081526020016000206000828254611b649190613287565b925050819055506001600360008473ffffffffffffffffffffffffffffffffffffffff1673ffffffffffffffffffffffffffffffffffffffff1681526020019081526020016000206000828254611bbb9190613231565b92505081905550816002600083815260200190815260200160002060006101000a81548173ffffffffffffffffffffffffffffffffffffffff021916908373ffffffffffffffffffffffffffffffffffffffff160217905550808273ffffffffffffffffffffffffffffffffffffffff168473ffffffffffffffffffffffffffffffffffffffff167fddf252ad1be2c89b69c2b068fc378daa952ba7f163c4a11628f55a4df523b3ef60405160405180910390a4505050565b6000611c9c836000018373ffffffffffffffffffffffffffffffffffffffff1660001b612189565b905092915050565b6001816000016000828254019250508190555050565b600081600001549050919050565b600073ffffffffffffffffffffffffffffffffffffffff168273ffffffffffffffffffffffffffffffffffffffff161415611d38576040517f08c379a0000000000000000000000000000000000000000000000000000000008152600401611d2f90613012565b60405180910390fd5b611d418161180d565b15611d81576040517f08c379a0000000000000000000000000000000000000000000000000000000008152600401611d7890612f32565b60405180910390fd5b611d8d60008383612184565b6001600360008473ffffffffffffffffffffffffffffffffffffffff1673ffffffffffffffffffffffffffffffffffffffff1681526020019081526020016000206000828254611ddd9190613231565b92505081905550816002600083815260200190815260200160002060006101000a81548173ffffffffffffffffffffffffffffffffffffffff021916908373ffffffffffffffffffffffffffffffffffffffff160217905550808273ffffffffffffffffffffffffffffffffffffffff16600073ffffffffffffffffffffffffffffffffffffffff167fddf252ad1be2c89b69c2b068fc378daa952ba7f163c4a11628f55a4df523b3ef60405160405180910390a45050565b6000600660009054906101000a900473ffffffffffffffffffffffffffffffffffffffff16905081600660006101000a81548173ffffffffffffffffffffffffffffffffffffffff021916908373ffffffffffffffffffffffffffffffffffffffff1602179055508173ffffffffffffffffffffffffffffffffffffffff168173ffffffffffffffffffffffffffffffffffffffff167f8be0079c531659141344cd1fd0a4f28419497f9722a3daafe3b4186f6b6457e060405160405180910390a35050565b8173ffffffffffffffffffffffffffffffffffffffff168373ffffffffffffffffffffffffffffffffffffffff161415611fcb576040517f08c379a0000000000000000000000000000000000000000000000000000000008152600401611fc290612f72565b60405180910390fd5b80600560008573ffffffffffffffffffffffffffffffffffffffff1673ffffffffffffffffffffffffffffffffffffffff16815260200190815260200160002060008473ffffffffffffffffffffffffffffffffffffffff1673ffffffffffffffffffffffffffffffffffffffff16815260200190815260200160002060006101000a81548160ff0219169083151502179055508173ffffffffffffffffffffffffffffffffffffffff168373ffffffffffffffffffffffffffffffffffffffff167f17307eab39ab6107e8899845ad3d59bd9653f200f220920489ca2b5937696c31836040516120bc9190612e9a565b60405180910390a3505050565b6120d4848484611a18565b6120e08484848461230f565b61211f576040517f08c379a000000000000000000000000000000000000000000000000000000000815260040161211690612ef2565b60405180910390fd5b50505050565b600061214d836000018373ffffffffffffffffffffffffffffffffffffffff1660001b6124a6565b905092915050565b600061216382600001612516565b9050919050565b60006121798360000183612527565b60001c905092915050565b505050565b600080836001016000848152602001908152602001600020549050600081146123035760006001826121bb9190613287565b90506000600186600001805490506121d39190613287565b905081811461228e57600086600001828154811061221a577f4e487b7100000000000000000000000000000000000000000000000000000000600052603260045260246000fd5b9060005260206000200154905080876000018481548110612264577f4e487b7100000000000000000000000000000000000000000000000000000000600052603260045260246000fd5b90600052602060002001819055508387600101600083815260200190815260200160002081905550505b856000018054806122c8577f4e487b7100000000000000000000000000000000000000000000000000000000600052603160045260246000fd5b600190038181906000526020600020016000905590558560010160008681526020019081526020016000206000905560019350505050612309565b60009150505b92915050565b60006123308473ffffffffffffffffffffffffffffffffffffffff16612578565b15612499578373ffffffffffffffffffffffffffffffffffffffff1663150b7a02612359611879565b8786866040518563ffffffff1660e01b815260040161237b9493929190612e2c565b602060405180830381600087803b15801561239557600080fd5b505af19250505080156123c657506040513d601f19601f820116820180604052508101906123c39190612962565b60015b612449573d80600081146123f6576040519150601f19603f3d011682016040523d82523d6000602084013e6123fb565b606091505b50600081511415612441576040517f08c379a000000000000000000000000000000000000000000000000000000000815260040161243890612ef2565b60405180910390fd5b805181602001fd5b63150b7a0260e01b7bffffffffffffffffffffffffffffffffffffffffffffffffffffffff1916817bffffffffffffffffffffffffffffffffffffffffffffffffffffffff19161491505061249e565b600190505b949350505050565b60006124b2838361258b565b61250b578260000182908060018154018082558091505060019003906000526020600020016000909190919091505582600001805490508360010160008481526020019081526020016000208190555060019050612510565b600090505b92915050565b600081600001805490509050919050565b6000826000018281548110612565577f4e487b7100000000000000000000000000000000000000000000000000000000600052603260045260246000fd5b9060005260206000200154905092915050565b600080823b905060008111915050919050565b600080836001016000848152602001908152602001600020541415905092915050565b60006125c16125bc84613132565b61310d565b905080838252602082019050828560208602820111156125e057600080fd5b60005b8581101561261057816125f68882612696565b8452602084019350602083019250506001810190506125e3565b5050509392505050565b600061262d6126288461315e565b61310d565b90508281526020810184848401111561264557600080fd5b612650848285613353565b509392505050565b600061266b6126668461318f565b61310d565b90508281526020810184848401111561268357600080fd5b61268e848285613362565b509392505050565b6000813590506126a581613911565b92915050565b600082601f8301126126bc57600080fd5b81356126cc8482602086016125ae565b91505092915050565b6000813590506126e481613928565b92915050565b6000813590506126f98161393f565b92915050565b60008151905061270e8161393f565b92915050565b600082601f83011261272557600080fd5b813561273584826020860161261a565b91505092915050565b600082601f83011261274f57600080fd5b815161275f848260208601612658565b91505092915050565b60008135905061277781613956565b92915050565b60008151905061278c81613956565b92915050565b6000602082840312156127a457600080fd5b60006127b284828501612696565b91505092915050565b600080604083850312156127ce57600080fd5b60006127dc85828601612696565b92505060206127ed85828601612696565b9150509250929050565b60008060006060848603121561280c57600080fd5b600061281a86828701612696565b935050602061282b86828701612696565b925050604061283c86828701612768565b9150509250925092565b6000806000806080858703121561285c57600080fd5b600061286a87828801612696565b945050602061287b87828801612696565b935050604061288c87828801612768565b925050606085013567ffffffffffffffff8111156128a957600080fd5b6128b587828801612714565b91505092959194509250565b600080604083850312156128d457600080fd5b60006128e285828601612696565b92505060206128f3858286016126d5565b9150509250929050565b6000806040838503121561291057600080fd5b600061291e85828601612696565b925050602061292f85828601612768565b9150509250929050565b60006020828403121561294b57600080fd5b6000612959848285016126ea565b91505092915050565b60006020828403121561297457600080fd5b6000612982848285016126ff565b91505092915050565b60006020828403121561299d57600080fd5b600082015167ffffffffffffffff8111156129b757600080fd5b6129c38482850161273e565b91505092915050565b6000602082840312156129de57600080fd5b60006129ec84828501612768565b91505092915050565b600060208284031215612a0757600080fd5b6000612a158482850161277d565b91505092915050565b60008060408385031215612a3157600080fd5b6000612a3f85828601612768565b9250506020612a5085828601612696565b9150509250929050565b60008060408385031215612a6d57600080fd5b6000612a7b85828601612768565b925050602083013567ffffffffffffffff811115612a9857600080fd5b612aa4858286016126ab565b9150509250929050565b6000612aba8383612ac6565b60208301905092915050565b612acf816132bb565b82525050565b612ade816132bb565b82525050565b6000612aef826131d0565b612af981856131fe565b9350612b04836131c0565b8060005b83811015612b35578151612b1c8882612aae565b9750612b27836131f1565b925050600181019050612b08565b5085935050505092915050565b612b4b816132cd565b82525050565b6000612b5c826131db565b612b66818561320f565b9350612b76818560208601613362565b612b7f816134ce565b840191505092915050565b612b938161332f565b82525050565b6000612ba4826131e6565b612bae8185613220565b9350612bbe818560208601613362565b612bc7816134ce565b840191505092915050565b6000612bdf603283613220565b9150612bea826134df565b604082019050919050565b6000612c02602683613220565b9150612c0d8261352e565b604082019050919050565b6000612c25601c83613220565b9150612c308261357d565b602082019050919050565b6000612c48602483613220565b9150612c53826135a6565b604082019050919050565b6000612c6b601983613220565b9150612c76826135f5565b602082019050919050565b6000612c8e602c83613220565b9150612c998261361e565b604082019050919050565b6000612cb1603883613220565b9150612cbc8261366d565b604082019050919050565b6000612cd4602a83613220565b9150612cdf826136bc565b604082019050919050565b6000612cf7602983613220565b9150612d028261370b565b604082019050919050565b6000612d1a602083613220565b9150612d258261375a565b602082019050919050565b6000612d3d602c83613220565b9150612d4882613783565b604082019050919050565b6000612d60602083613220565b9150612d6b826137d2565b602082019050919050565b6000612d83602983613220565b9150612d8e826137fb565b604082019050919050565b6000612da6602183613220565b9150612db18261384a565b604082019050919050565b6000612dc9601483613220565b9150612dd482613899565b602082019050919050565b6000612dec603183613220565b9150612df7826138c2565b604082019050919050565b612e0b81613325565b82525050565b6000602082019050612e266000830184612ad5565b92915050565b6000608082019050612e416000830187612ad5565b612e4e6020830186612ad5565b612e5b6040830185612e02565b8181036060830152612e6d8184612b51565b905095945050505050565b60006020820190508181036000830152612e928184612ae4565b905092915050565b6000602082019050612eaf6000830184612b42565b92915050565b6000602082019050612eca6000830184612b8a565b92915050565b60006020820190508181036000830152612eea8184612b99565b905092915050565b60006020820190508181036000830152612f0b81612bd2565b9050919050565b60006020820190508181036000830152612f2b81612bf5565b9050919050565b60006020820190508181036000830152612f4b81612c18565b9050919050565b60006020820190508181036000830152612f6b81612c3b565b9050919050565b60006020820190508181036000830152612f8b81612c5e565b9050919050565b60006020820190508181036000830152612fab81612c81565b9050919050565b60006020820190508181036000830152612fcb81612ca4565b9050919050565b60006020820190508181036000830152612feb81612cc7565b9050919050565b6000602082019050818103600083015261300b81612cea565b9050919050565b6000602082019050818103600083015261302b81612d0d565b9050919050565b6000602082019050818103600083015261304b81612d30565b9050919050565b6000602082019050818103600083015261306b81612d53565b9050919050565b6000602082019050818103600083015261308b81612d76565b9050919050565b600060208201905081810360008301526130ab81612d99565b9050919050565b600060208201905081810360008301526130cb81612dbc565b9050919050565b600060208201905081810360008301526130eb81612ddf565b9050919050565b60006020820190506131076000830184612e02565b92915050565b6000613117613128565b905061312382826133c7565b919050565b6000604051905090565b600067ffffffffffffffff82111561314d5761314c61349f565b5b602082029050602081019050919050565b600067ffffffffffffffff8211156131795761317861349f565b5b613182826134ce565b9050602081019050919050565b600067ffffffffffffffff8211156131aa576131a961349f565b5b6131b3826134ce565b9050602081019050919050565b6000819050602082019050919050565b600081519050919050565b600081519050919050565b600081519050919050565b6000602082019050919050565b600082825260208201905092915050565b600082825260208201905092915050565b600082825260208201905092915050565b600061323c82613325565b915061324783613325565b9250827fffffffffffffffffffffffffffffffffffffffffffffffffffffffffffffffff0382111561327c5761327b613441565b5b828201905092915050565b600061329282613325565b915061329d83613325565b9250828210156132b0576132af613441565b5b828203905092915050565b60006132c682613305565b9050919050565b60008115159050919050565b60007fffffffff0000000000000000000000000000000000000000000000000000000082169050919050565b600073ffffffffffffffffffffffffffffffffffffffff82169050919050565b6000819050919050565b600061333a82613341565b9050919050565b600061334c82613305565b9050919050565b82818337600083830152505050565b60005b83811015613380578082015181840152602081019050613365565b8381111561338f576000848401525b50505050565b600060028204905060018216806133ad57607f821691505b602082108114156133c1576133c0613470565b5b50919050565b6133d0826134ce565b810181811067ffffffffffffffff821117156133ef576133ee61349f565b5b80604052505050565b600061340382613325565b91507fffffffffffffffffffffffffffffffffffffffffffffffffffffffffffffffff82141561343657613435613441565b5b600182019050919050565b7f4e487b7100000000000000000000000000000000000000000000000000000000600052601160045260246000fd5b7f4e487b7100000000000000000000000000000000000000000000000000000000600052602260045260246000fd5b7f4e487b7100000000000000000000000000000000000000000000000000000000600052604160045260246000fd5b6000601f19601f8301169050919050565b7f4552433732313a207472616e7366657220746f206e6f6e20455243373231526560008201527f63656976657220696d706c656d656e7465720000000000000000000000000000602082015250565b7f4f776e61626c653a206e6577206f776e657220697320746865207a65726f206160008201527f6464726573730000000000000000000000000000000000000000000000000000602082015250565b7f4552433732313a20746f6b656e20616c7265616479206d696e74656400000000600082015250565b7f4552433732313a207472616e7366657220746f20746865207a65726f2061646460008201527f7265737300000000000000000000000000000000000000000000000000000000602082015250565b7f4552433732313a20617070726f766520746f2063616c6c657200000000000000600082015250565b7f4552433732313a206f70657261746f7220717565727920666f72206e6f6e657860008201527f697374656e7420746f6b656e0000000000000000000000000000000000000000602082015250565b7f4552433732313a20617070726f76652063616c6c6572206973206e6f74206f7760008201527f6e6572206e6f7220617070726f76656420666f7220616c6c0000000000000000602082015250565b7f4552433732313a2062616c616e636520717565727920666f7220746865207a6560008201527f726f206164647265737300000000000000000000000000000000000000000000602082015250565b7f4552433732313a206f776e657220717565727920666f72206e6f6e657869737460008201527f656e7420746f6b656e0000000000000000000000000000000000000000000000602082015250565b7f4552433732313a206d696e7420746f20746865207a65726f2061646472657373600082015250565b7f4552433732313a20617070726f76656420717565727920666f72206e6f6e657860008201527f697374656e7420746f6b656e0000000000000000000000000000000000000000602082015250565b7f4f776e61626c653a2063616c6c6572206973206e6f7420746865206f776e6572600082015250565b7f4552433732313a207472616e73666572206f6620746f6b656e2074686174206960008201527f73206e6f74206f776e0000000000000000000000000000000000000000000000602082015250565b7f4552433732313a20617070726f76616c20746f2063757272656e74206f776e6560008201527f7200000000000000000000000000000000000000000000000000000000000000602082015250565b7f4e6f74206f776e6572206f662061646472657373000000000000000000000000600082015250565b7f4552433732313a207472616e736665722063616c6c6572206973206e6f74206f60008201527f776e6572206e6f7220617070726f766564000000000000000000000000000000602082015250565b61391a816132bb565b811461392557600080fd5b50565b613931816132cd565b811461393c57600080fd5b50565b613948816132d9565b811461395357600080fd5b50565b61395f81613325565b811461396a57600080fd5b5056fea264697066735822122070044b5e8ad57e21d0bea97ef2daf4aeeb2d01d761a60078adaf20691ba4babc64736f6c63430008040033",
  "devdoc": {
    "kind": "dev",
    "methods": {
      "approve(address,uint256)": {
        "details": "See {IERC721-approve}."
      },
      "balanceOf(address)": {
        "details": "See {IERC721-balanceOf}."
      },
      "getApproved(uint256)": {
        "details": "See {IERC721-getApproved}."
      },
      "isApprovedForAll(address,address)": {
        "details": "See {IERC721-isApprovedForAll}."
      },
      "name()": {
        "details": "See {IERC721Metadata-name}."
      },
      "owner()": {
        "details": "Returns the address of the current owner."
      },
      "ownerOf(uint256)": {
        "details": "See {IERC721-ownerOf}."
      },
      "renounceOwnership()": {
        "details": "Leaves the contract without owner. It will not be possible to call `onlyOwner` functions anymore. Can only be called by the current owner. NOTE: Renouncing ownership will leave the contract without an owner, thereby removing any functionality that is only available to the owner."
      },
      "safeTransferFrom(address,address,uint256)": {
        "details": "See {IERC721-safeTransferFrom}."
      },
      "safeTransferFrom(address,address,uint256,bytes)": {
        "details": "See {IERC721-safeTransferFrom}."
      },
      "setApprovalForAll(address,bool)": {
        "details": "See {IERC721-setApprovalForAll}."
      },
      "supportsInterface(bytes4)": {
        "details": "See {IERC165-supportsInterface}."
      },
      "symbol()": {
        "details": "See {IERC721Metadata-symbol}."
      },
      "tokenURI(uint256)": {
        "details": "See {IERC721Metadata-tokenURI}."
      },
      "transferFrom(address,address,uint256)": {
        "details": "See {IERC721-transferFrom}."
      },
      "transferOwnership(address)": {
        "details": "Transfers ownership of the contract to a new account (`newOwner`). Can only be called by the current owner."
      }
    },
    "version": 1
  },
  "userdoc": {
    "kind": "user",
    "methods": {},
    "version": 1
  },
  "storageLayout": {
    "storage": [
      {
        "astId": 239,
        "contract": "contracts/PortfolioNFT.sol:PortfolioNFT",
        "label": "_name",
        "offset": 0,
        "slot": "0",
        "type": "t_string_storage"
      },
      {
        "astId": 241,
        "contract": "contracts/PortfolioNFT.sol:PortfolioNFT",
        "label": "_symbol",
        "offset": 0,
        "slot": "1",
        "type": "t_string_storage"
      },
      {
        "astId": 245,
        "contract": "contracts/PortfolioNFT.sol:PortfolioNFT",
        "label": "_owners",
        "offset": 0,
        "slot": "2",
        "type": "t_mapping(t_uint256,t_address)"
      },
      {
        "astId": 249,
        "contract": "contracts/PortfolioNFT.sol:PortfolioNFT",
        "label": "_balances",
        "offset": 0,
        "slot": "3",
        "type": "t_mapping(t_address,t_uint256)"
      },
      {
        "astId": 253,
        "contract": "contracts/PortfolioNFT.sol:PortfolioNFT",
        "label": "_tokenApprovals",
        "offset": 0,
        "slot": "4",
        "type": "t_mapping(t_uint256,t_address)"
      },
      {
        "astId": 259,
        "contract": "contracts/PortfolioNFT.sol:PortfolioNFT",
        "label": "_operatorApprovals",
        "offset": 0,
        "slot": "5",
        "type": "t_mapping(t_address,t_mapping(t_address,t_bool))"
      },
      {
        "astId": 7,
        "contract": "contracts/PortfolioNFT.sol:PortfolioNFT",
        "label": "_owner",
        "offset": 0,
        "slot": "6",
        "type": "t_address"
      },
      {
        "astId": 3843,
        "contract": "contracts/PortfolioNFT.sol:PortfolioNFT",
        "label": "_tokenIds",
        "offset": 0,
        "slot": "7",
        "type": "t_struct(Counter)1530_storage"
      },
      {
        "astId": 3848,
        "contract": "contracts/PortfolioNFT.sol:PortfolioNFT",
        "label": "tokenAddresses",
        "offset": 0,
        "slot": "8",
        "type": "t_mapping(t_uint256,t_struct(AddressSet)2149_storage)"
      },
      {
        "astId": 3850,
        "contract": "contracts/PortfolioNFT.sol:PortfolioNFT",
        "label": "baseTokenAddress",
        "offset": 0,
        "slot": "9",
        "type": "t_address"
      },
      {
        "astId": 3852,
        "contract": "contracts/PortfolioNFT.sol:PortfolioNFT",
        "label": "WETHAddress",
        "offset": 0,
        "slot": "10",
        "type": "t_address"
      },
      {
        "astId": 3854,
        "contract": "contracts/PortfolioNFT.sol:PortfolioNFT",
        "label": "WETHSymbol",
        "offset": 0,
        "slot": "11",
        "type": "t_string_storage"
      },
      {
        "astId": 3856,
        "contract": "contracts/PortfolioNFT.sol:PortfolioNFT",
        "label": "priceFetcherAddress",
        "offset": 0,
        "slot": "12",
        "type": "t_address"
      },
      {
        "astId": 3858,
        "contract": "contracts/PortfolioNFT.sol:PortfolioNFT",
        "label": "portfolioMetadataAddress",
        "offset": 0,
        "slot": "13",
        "type": "t_address"
      },
      {
        "astId": 3861,
        "contract": "contracts/PortfolioNFT.sol:PortfolioNFT",
        "label": "priceFetcher",
        "offset": 0,
        "slot": "14",
        "type": "t_contract(IPriceFetcher)4994"
      }
    ],
    "types": {
      "t_address": {
        "encoding": "inplace",
        "label": "address",
        "numberOfBytes": "20"
      },
      "t_array(t_bytes32)dyn_storage": {
        "base": "t_bytes32",
        "encoding": "dynamic_array",
        "label": "bytes32[]",
        "numberOfBytes": "32"
      },
      "t_bool": {
        "encoding": "inplace",
        "label": "bool",
        "numberOfBytes": "1"
      },
      "t_bytes32": {
        "encoding": "inplace",
        "label": "bytes32",
        "numberOfBytes": "32"
      },
      "t_contract(IPriceFetcher)4994": {
        "encoding": "inplace",
        "label": "contract IPriceFetcher",
        "numberOfBytes": "20"
      },
      "t_mapping(t_address,t_bool)": {
        "encoding": "mapping",
        "key": "t_address",
        "label": "mapping(address => bool)",
        "numberOfBytes": "32",
        "value": "t_bool"
      },
      "t_mapping(t_address,t_mapping(t_address,t_bool))": {
        "encoding": "mapping",
        "key": "t_address",
        "label": "mapping(address => mapping(address => bool))",
        "numberOfBytes": "32",
        "value": "t_mapping(t_address,t_bool)"
      },
      "t_mapping(t_address,t_uint256)": {
        "encoding": "mapping",
        "key": "t_address",
        "label": "mapping(address => uint256)",
        "numberOfBytes": "32",
        "value": "t_uint256"
      },
      "t_mapping(t_bytes32,t_uint256)": {
        "encoding": "mapping",
        "key": "t_bytes32",
        "label": "mapping(bytes32 => uint256)",
        "numberOfBytes": "32",
        "value": "t_uint256"
      },
      "t_mapping(t_uint256,t_address)": {
        "encoding": "mapping",
        "key": "t_uint256",
        "label": "mapping(uint256 => address)",
        "numberOfBytes": "32",
        "value": "t_address"
      },
      "t_mapping(t_uint256,t_struct(AddressSet)2149_storage)": {
        "encoding": "mapping",
        "key": "t_uint256",
        "label": "mapping(uint256 => struct EnumerableSet.AddressSet)",
        "numberOfBytes": "32",
        "value": "t_struct(AddressSet)2149_storage"
      },
      "t_string_storage": {
        "encoding": "bytes",
        "label": "string",
        "numberOfBytes": "32"
      },
      "t_struct(AddressSet)2149_storage": {
        "encoding": "inplace",
        "label": "struct EnumerableSet.AddressSet",
        "members": [
          {
            "astId": 2148,
            "contract": "contracts/PortfolioNFT.sol:PortfolioNFT",
            "label": "_inner",
            "offset": 0,
            "slot": "0",
            "type": "t_struct(Set)1848_storage"
          }
        ],
        "numberOfBytes": "64"
      },
      "t_struct(Counter)1530_storage": {
        "encoding": "inplace",
        "label": "struct Counters.Counter",
        "members": [
          {
            "astId": 1529,
            "contract": "contracts/PortfolioNFT.sol:PortfolioNFT",
            "label": "_value",
            "offset": 0,
            "slot": "0",
            "type": "t_uint256"
          }
        ],
        "numberOfBytes": "32"
      },
      "t_struct(Set)1848_storage": {
        "encoding": "inplace",
        "label": "struct EnumerableSet.Set",
        "members": [
          {
            "astId": 1843,
            "contract": "contracts/PortfolioNFT.sol:PortfolioNFT",
            "label": "_values",
            "offset": 0,
            "slot": "0",
            "type": "t_array(t_bytes32)dyn_storage"
          },
          {
            "astId": 1847,
            "contract": "contracts/PortfolioNFT.sol:PortfolioNFT",
            "label": "_indexes",
            "offset": 0,
            "slot": "1",
            "type": "t_mapping(t_bytes32,t_uint256)"
          }
        ],
        "numberOfBytes": "64"
      },
      "t_uint256": {
        "encoding": "inplace",
        "label": "uint256",
        "numberOfBytes": "32"
      }
    }
  }
}