{
  "address": "0xEA5a596BdE67f3c747c0A54499c1B894784e028d",
  "abi": [
    {
      "inputs": [
        {
          "internalType": "address",
          "name": "_pairFactoryAddress",
          "type": "address"
        }
      ],
      "stateMutability": "nonpayable",
      "type": "constructor"
    },
    {
      "anonymous": false,
      "inputs": [
        {
          "indexed": true,
          "internalType": "address",
          "name": "previousOwner",
          "type": "address"
        },
        {
          "indexed": true,
          "internalType": "address",
          "name": "newOwner",
          "type": "address"
        }
      ],
      "name": "OwnershipTransferred",
      "type": "event"
    },
    {
      "inputs": [],
      "name": "DECIMALS",
      "outputs": [
        {
          "internalType": "uint256",
          "name": "",
          "type": "uint256"
        }
      ],
      "stateMutability": "view",
      "type": "function"
    },
    {
      "inputs": [
        {
          "internalType": "address",
          "name": "_tokenIn",
          "type": "address"
        },
        {
          "internalType": "address",
          "name": "_tokenOut",
          "type": "address"
        }
      ],
      "name": "computeAllRoutes",
      "outputs": [
        {
          "components": [
            {
              "internalType": "contract IUniswapV2Pair",
              "name": "pair",
              "type": "address"
            },
            {
              "internalType": "uint256",
              "name": "price",
              "type": "uint256"
            },
            {
              "internalType": "address",
              "name": "inToken",
              "type": "address"
            },
            {
              "internalType": "address",
              "name": "outToken",
              "type": "address"
            }
          ],
          "internalType": "struct PriceFetcher.PairWithPrice[][]",
          "name": "",
          "type": "tuple[][]"
        }
      ],
      "stateMutability": "view",
      "type": "function"
    },
    {
      "inputs": [
        {
          "internalType": "address",
          "name": "_tokenIn",
          "type": "address"
        },
        {
          "internalType": "address",
          "name": "_tokenOut",
          "type": "address"
        },
        {
          "internalType": "contract IUniswapV2Pair[]",
          "name": "_pools",
          "type": "address[]"
        },
        {
          "internalType": "uint256",
          "name": "_maxHops",
          "type": "uint256"
        }
      ],
      "name": "computeAllRoutes",
      "outputs": [
        {
          "components": [
            {
              "internalType": "contract IUniswapV2Pair",
              "name": "pair",
              "type": "address"
            },
            {
              "internalType": "uint256",
              "name": "price",
              "type": "uint256"
            },
            {
              "internalType": "address",
              "name": "inToken",
              "type": "address"
            },
            {
              "internalType": "address",
              "name": "outToken",
              "type": "address"
            }
          ],
          "internalType": "struct PriceFetcher.PairWithPrice[][]",
          "name": "",
          "type": "tuple[][]"
        }
      ],
      "stateMutability": "view",
      "type": "function"
    },
    {
      "inputs": [
        {
          "internalType": "address",
          "name": "_tokenIn",
          "type": "address"
        },
        {
          "internalType": "address",
          "name": "_tokenOut",
          "type": "address"
        },
        {
          "internalType": "contract IUniswapV2Pair[]",
          "name": "_pools",
          "type": "address[]"
        },
        {
          "internalType": "uint256",
          "name": "_maxHops",
          "type": "uint256"
        },
        {
          "components": [
            {
              "internalType": "contract IUniswapV2Pair",
              "name": "pair",
              "type": "address"
            },
            {
              "internalType": "uint256",
              "name": "price",
              "type": "uint256"
            },
            {
              "internalType": "address",
              "name": "inToken",
              "type": "address"
            },
            {
              "internalType": "address",
              "name": "outToken",
              "type": "address"
            }
          ],
          "internalType": "struct PriceFetcher.PairWithPrice[][]",
          "name": "_routes",
          "type": "tuple[][]"
        },
        {
          "components": [
            {
              "internalType": "uint256",
              "name": "value",
              "type": "uint256"
            }
          ],
          "internalType": "struct PriceFetcher.Counter",
          "name": "_routesCount",
          "type": "tuple"
        },
        {
          "components": [
            {
              "internalType": "contract IUniswapV2Pair",
              "name": "pair",
              "type": "address"
            },
            {
              "internalType": "uint256",
              "name": "price",
              "type": "uint256"
            },
            {
              "internalType": "address",
              "name": "inToken",
              "type": "address"
            },
            {
              "internalType": "address",
              "name": "outToken",
              "type": "address"
            }
          ],
          "internalType": "struct PriceFetcher.PairWithPrice[]",
          "name": "_currentRoute",
          "type": "tuple[]"
        },
        {
          "internalType": "uint256",
          "name": "_currentRouteCount",
          "type": "uint256"
        },
        {
          "internalType": "bool[]",
          "name": "_poolsUsed",
          "type": "bool[]"
        },
        {
          "internalType": "address",
          "name": "_previousTokenOut",
          "type": "address"
        }
      ],
      "name": "computeRoutes",
      "outputs": [],
      "stateMutability": "view",
      "type": "function"
    },
    {
      "inputs": [],
      "name": "getAllPairs",
      "outputs": [
        {
          "internalType": "contract IUniswapV2Pair[]",
          "name": "",
          "type": "address[]"
        }
      ],
      "stateMutability": "view",
      "type": "function"
    },
    {
      "inputs": [
        {
          "internalType": "address",
          "name": "_tokenAddress",
          "type": "address"
        },
        {
          "internalType": "contract IUniswapV2Pair",
          "name": "_pair",
          "type": "address"
        }
      ],
      "name": "involvesToken",
      "outputs": [
        {
          "internalType": "bool",
          "name": "",
          "type": "bool"
        }
      ],
      "stateMutability": "view",
      "type": "function"
    },
    {
      "inputs": [],
      "name": "owner",
      "outputs": [
        {
          "internalType": "address",
          "name": "",
          "type": "address"
        }
      ],
      "stateMutability": "view",
      "type": "function"
    },
    {
      "inputs": [],
      "name": "pairFactoryAddress",
      "outputs": [
        {
          "internalType": "address",
          "name": "",
          "type": "address"
        }
      ],
      "stateMutability": "view",
      "type": "function"
    },
    {
      "inputs": [
        {
          "internalType": "address",
          "name": "_baseTokenAddress",
          "type": "address"
        },
        {
          "internalType": "address",
          "name": "_tokenAddress",
          "type": "address"
        }
      ],
      "name": "quote",
      "outputs": [
        {
          "internalType": "uint256",
          "name": "",
          "type": "uint256"
        },
        {
          "internalType": "uint256",
          "name": "",
          "type": "uint256"
        }
      ],
      "stateMutability": "view",
      "type": "function"
    },
    {
      "inputs": [
        {
          "internalType": "contract IUniswapV2Pair",
          "name": "_pair",
          "type": "address"
        },
        {
          "internalType": "address",
          "name": "_tokenAddress",
          "type": "address"
        }
      ],
      "name": "quoteForPair",
      "outputs": [
        {
          "internalType": "uint256",
          "name": "",
          "type": "uint256"
        }
      ],
      "stateMutability": "view",
      "type": "function"
    },
    {
      "inputs": [],
      "name": "renounceOwnership",
      "outputs": [],
      "stateMutability": "nonpayable",
      "type": "function"
    },
    {
      "inputs": [
        {
          "components": [
            {
              "internalType": "contract IUniswapV2Pair",
              "name": "pair",
              "type": "address"
            },
            {
              "internalType": "uint256",
              "name": "price",
              "type": "uint256"
            },
            {
              "internalType": "address",
              "name": "inToken",
              "type": "address"
            },
            {
              "internalType": "address",
              "name": "outToken",
              "type": "address"
            }
          ],
          "internalType": "struct PriceFetcher.PairWithPrice[]",
          "name": "_route",
          "type": "tuple[]"
        },
        {
          "internalType": "uint256",
          "name": "_size",
          "type": "uint256"
        }
      ],
      "name": "resizeRoute",
      "outputs": [
        {
          "components": [
            {
              "internalType": "contract IUniswapV2Pair",
              "name": "pair",
              "type": "address"
            },
            {
              "internalType": "uint256",
              "name": "price",
              "type": "uint256"
            },
            {
              "internalType": "address",
              "name": "inToken",
              "type": "address"
            },
            {
              "internalType": "address",
              "name": "outToken",
              "type": "address"
            }
          ],
          "internalType": "struct PriceFetcher.PairWithPrice[]",
          "name": "",
          "type": "tuple[]"
        }
      ],
      "stateMutability": "pure",
      "type": "function"
    },
    {
      "inputs": [
        {
          "components": [
            {
              "internalType": "contract IUniswapV2Pair",
              "name": "pair",
              "type": "address"
            },
            {
              "internalType": "uint256",
              "name": "price",
              "type": "uint256"
            },
            {
              "internalType": "address",
              "name": "inToken",
              "type": "address"
            },
            {
              "internalType": "address",
              "name": "outToken",
              "type": "address"
            }
          ],
          "internalType": "struct PriceFetcher.PairWithPrice[][]",
          "name": "_routes",
          "type": "tuple[][]"
        },
        {
          "internalType": "uint256",
          "name": "_size",
          "type": "uint256"
        }
      ],
      "name": "resizeRoutes",
      "outputs": [
        {
          "components": [
            {
              "internalType": "contract IUniswapV2Pair",
              "name": "pair",
              "type": "address"
            },
            {
              "internalType": "uint256",
              "name": "price",
              "type": "uint256"
            },
            {
              "internalType": "address",
              "name": "inToken",
              "type": "address"
            },
            {
              "internalType": "address",
              "name": "outToken",
              "type": "address"
            }
          ],
          "internalType": "struct PriceFetcher.PairWithPrice[][]",
          "name": "",
          "type": "tuple[][]"
        }
      ],
      "stateMutability": "pure",
      "type": "function"
    },
    {
      "inputs": [
        {
          "internalType": "address",
          "name": "_pairFactoryAddress",
          "type": "address"
        }
      ],
      "name": "setPairFactoryAddress",
      "outputs": [],
      "stateMutability": "nonpayable",
      "type": "function"
    },
    {
      "inputs": [
        {
          "internalType": "address",
          "name": "newOwner",
          "type": "address"
        }
      ],
      "name": "transferOwnership",
      "outputs": [],
      "stateMutability": "nonpayable",
      "type": "function"
    }
  ],
  "transactionHash": "0xbfe9ce49eb9837b16551874658f169cb6728d6363234e3b4f34dc0d328c8689b",
  "args": [
    "0x5C69bEe701ef814a2B6a3EDD4B1652CB9cc5aA6f"
  ],
  "numDeployments": 1,
  "solcInputHash": "4c95c4ea9b930a7be0d1a55843ea2b33",
  "bytecode": "0x60806040523480156200001157600080fd5b50604051620037c7380380620037c783398181016040528101906200003791906200028f565b620000576200004b6200006f60201b60201c565b6200007760201b60201c565b62000068816200013b60201b60201c565b506200038c565b600033905090565b60008060009054906101000a900473ffffffffffffffffffffffffffffffffffffffff169050816000806101000a81548173ffffffffffffffffffffffffffffffffffffffff021916908373ffffffffffffffffffffffffffffffffffffffff1602179055508173ffffffffffffffffffffffffffffffffffffffff168173ffffffffffffffffffffffffffffffffffffffff167f8be0079c531659141344cd1fd0a4f28419497f9722a3daafe3b4186f6b6457e060405160405180910390a35050565b6200014b6200006f60201b60201c565b73ffffffffffffffffffffffffffffffffffffffff16620001716200024f60201b60201c565b73ffffffffffffffffffffffffffffffffffffffff1614620001ca576040517f08c379a0000000000000000000000000000000000000000000000000000000008152600401620001c190620002e2565b60405180910390fd5b80600160006101000a81548173ffffffffffffffffffffffffffffffffffffffff021916908373ffffffffffffffffffffffffffffffffffffffff16021790555080600260006101000a81548173ffffffffffffffffffffffffffffffffffffffff021916908373ffffffffffffffffffffffffffffffffffffffff16021790555050565b60008060009054906101000a900473ffffffffffffffffffffffffffffffffffffffff16905090565b600081519050620002898162000372565b92915050565b600060208284031215620002a257600080fd5b6000620002b28482850162000278565b91505092915050565b6000620002ca60208362000304565b9150620002d78262000349565b602082019050919050565b60006020820190508181036000830152620002fd81620002bb565b9050919050565b600082825260208201905092915050565b6000620003228262000329565b9050919050565b600073ffffffffffffffffffffffffffffffffffffffff82169050919050565b7f4f776e61626c653a2063616c6c6572206973206e6f7420746865206f776e6572600082015250565b6200037d8162000315565b81146200038957600080fd5b50565b61342b806200039c6000396000f3fe608060405234801561001057600080fd5b50600436106100f55760003560e01c806384051d8e116100975780639e9fc6b7116100665780639e9fc6b714610287578063f2fde38b146102b7578063f7377a28146102d3578063f800ece914610303576100f5565b806384051d8e146101ff5780638cb6effb1461022f5780638da5cb5b1461024b5780639892c7f114610269576100f5565b806356b6a67e116100d357806356b6a67e1461016557806358ca03961461019557806370e3bb29146101c5578063715018a6146101f5576100f5565b80632e0f2625146100fa5780633a1f656e146101185780634a5aa71114610134575b600080fd5b610102610321565b60405161010f9190612a49565b60405180910390f35b610132600480360381019061012d91906122a0565b610326565b005b61014e600480360381019061014991906122f2565b610427565b60405161015c929190612a64565b60405180910390f35b61017f600480360381019061017a91906125c8565b610702565b60405161018c9190612a49565b60405180910390f35b6101af60048036038101906101aa91906122f2565b610b82565b6040516101bc9190612988565b60405180910390f35b6101df60048036038101906101da919061232e565b610ba6565b6040516101ec9190612988565b60405180910390f35b6101fd610d4c565b005b61021960048036038101906102149190612574565b610dd4565b60405161022691906129cc565b60405180910390f35b610249600480360381019061024491906123a9565b610f02565b005b610253611433565b604051610260919061296d565b60405180910390f35b61027161145c565b60405161027e919061296d565b60405180910390f35b6102a1600480360381019061029c91906124e4565b611482565b6040516102ae91906129ee565b60405180910390f35b6102d160048036038101906102cc91906122a0565b6114b9565b005b6102ed60048036038101906102e89190612520565b6115b1565b6040516102fa9190612988565b60405180910390f35b61030b6116d9565b60405161031891906129aa565b60405180910390f35b600681565b61032e611943565b73ffffffffffffffffffffffffffffffffffffffff1661034c611433565b73ffffffffffffffffffffffffffffffffffffffff16146103a2576040517f08c379a000000000000000000000000000000000000000000000000000000000815260040161039990612a29565b60405180910390fd5b80600160006101000a81548173ffffffffffffffffffffffffffffffffffffffff021916908373ffffffffffffffffffffffffffffffffffffffff16021790555080600260006101000a81548173ffffffffffffffffffffffffffffffffffffffff021916908373ffffffffffffffffffffffffffffffffffffffff16021790555050565b6000808273ffffffffffffffffffffffffffffffffffffffff168473ffffffffffffffffffffffffffffffffffffffff16141561046b5760016006915091506106fb565b60006104778486610b82565b9050600081511415610491576000600692509250506106fb565b6000815167ffffffffffffffff8111156104d4577f4e487b7100000000000000000000000000000000000000000000000000000000600052604160045260246000fd5b6040519080825280602002602001820160405280156105025781602001602082028036833780820191505090505b50905060005b825181101561069657600083828151811061054c577f4e487b7100000000000000000000000000000000000000000000000000000000600052603260045260246000fd5b60200260200101519050600080600090505b825181101561063a5760008214156105bc578281815181106105a9577f4e487b7100000000000000000000000000000000000000000000000000000000600052603260045260246000fd5b6020026020010151602001519150610627565b6006600a6105ca9190612db1565b838281518110610603577f4e487b7100000000000000000000000000000000000000000000000000000000600052603260045260246000fd5b6020026020010151602001516106199190612d2d565b826106249190612f1a565b91505b8080610632906131e8565b91505061055e565b5080848481518110610675577f4e487b7100000000000000000000000000000000000000000000000000000000600052603260045260246000fd5b6020026020010181815250505050808061068e906131e8565b915050610508565b506106b0816000600184516106ab9190613008565b61194b565b806000815181106106ea577f4e487b7100000000000000000000000000000000000000000000000000000000600052603260045260246000fd5b602002602001015160069350935050505b9250929050565b6000808273ffffffffffffffffffffffffffffffffffffffff168473ffffffffffffffffffffffffffffffffffffffff16630dfe16816040518163ffffffff1660e01b815260040160206040518083038186803b15801561076257600080fd5b505afa158015610776573d6000803e3d6000fd5b505050506040513d601f19601f8201168201806040525081019061079a91906122c9565b73ffffffffffffffffffffffffffffffffffffffff1614610838578373ffffffffffffffffffffffffffffffffffffffff16630dfe16816040518163ffffffff1660e01b815260040160206040518083038186803b1580156107fb57600080fd5b505afa15801561080f573d6000803e3d6000fd5b505050506040513d601f19601f8201168201806040525081019061083391906122c9565b6108b7565b8373ffffffffffffffffffffffffffffffffffffffff1663d21220a76040518163ffffffff1660e01b815260040160206040518083038186803b15801561087e57600080fd5b505afa158015610892573d6000803e3d6000fd5b505050506040513d601f19601f820116820180604052508101906108b691906122c9565b5b9050600083905060008290506000808773ffffffffffffffffffffffffffffffffffffffff16630902f1ac6040518163ffffffff1660e01b815260040160606040518083038186803b15801561090c57600080fd5b505afa158015610920573d6000803e3d6000fd5b505050506040513d601f19601f820116820180604052508101906109449190612604565b506dffffffffffffffffffffffffffff1691506dffffffffffffffffffffffffffff1691508473ffffffffffffffffffffffffffffffffffffffff168873ffffffffffffffffffffffffffffffffffffffff16630dfe16816040518163ffffffff1660e01b815260040160206040518083038186803b1580156109c657600080fd5b505afa1580156109da573d6000803e3d6000fd5b505050506040513d601f19601f820116820180604052508101906109fe91906122c9565b73ffffffffffffffffffffffffffffffffffffffff1614610a26576000829050819250809150505b8373ffffffffffffffffffffffffffffffffffffffff1663313ce5676040518163ffffffff1660e01b815260040160206040518083038186803b158015610a6c57600080fd5b505afa158015610a80573d6000803e3d6000fd5b505050506040513d601f19601f82011682018060405250810190610aa4919061267c565b600a610ab09190612dfc565b82610abb9190612f1a565b915060068373ffffffffffffffffffffffffffffffffffffffff1663313ce5676040518163ffffffff1660e01b815260040160206040518083038186803b158015610b0557600080fd5b505afa158015610b19573d6000803e3d6000fd5b505050506040513d601f19601f82011682018060405250810190610b3d919061267c565b60ff16610b4a9190613008565b600a610b569190612db1565b81610b619190612f1a565b905060008183610b719190612d2d565b905080965050505050505092915050565b60606000610b8e6116d9565b9050610b9d848483600a610ba6565b91505092915050565b60606000835167ffffffffffffffff811115610beb577f4e487b7100000000000000000000000000000000000000000000000000000000600052604160045260246000fd5b604051908082528060200260200182016040528015610c1e57816020015b6060815260200190600190039081610c095790505b5090506000604051806020016040528060008152509050610d328787878786868b5167ffffffffffffffff811115610c7f577f4e487b7100000000000000000000000000000000000000000000000000000000600052604160045260246000fd5b604051908082528060200260200182016040528015610cb857816020015b610ca5611e5b565b815260200190600190039081610c9d5790505b5060008d5167ffffffffffffffff811115610cfc577f4e487b7100000000000000000000000000000000000000000000000000000000600052604160045260246000fd5b604051908082528060200260200182016040528015610d2a5781602001602082028036833780820191505090505b506000610f02565b610d408282600001516115b1565b92505050949350505050565b610d54611943565b73ffffffffffffffffffffffffffffffffffffffff16610d72611433565b73ffffffffffffffffffffffffffffffffffffffff1614610dc8576040517f08c379a0000000000000000000000000000000000000000000000000000000008152600401610dbf90612a29565b60405180910390fd5b610dd26000611bf7565b565b606060008267ffffffffffffffff811115610e18577f4e487b7100000000000000000000000000000000000000000000000000000000600052604160045260246000fd5b604051908082528060200260200182016040528015610e5157816020015b610e3e611e5b565b815260200190600190039081610e365790505b50905060005b83811015610ef757848181518110610e98577f4e487b7100000000000000000000000000000000000000000000000000000000600052603260045260246000fd5b6020026020010151828281518110610ed9577f4e487b7100000000000000000000000000000000000000000000000000000000600052603260045260246000fd5b60200260200101819052508080610eef906131e8565b915050610e57565b508091505092915050565b86831115610f0f57611427565b600083118015610f755750610f748985600186610f2c9190613008565b81518110610f63577f4e487b7100000000000000000000000000000000000000000000000000000000600052603260045260246000fd5b602002602001015160000151611482565b5b15610fe157610f848484610dd4565b86866000018051809190610f97906131e8565b81525081518110610fd1577f4e487b7100000000000000000000000000000000000000000000000000000000600052603260045260246000fd5b6020026020010181905250611427565b60005b885181101561142557828181518110611026577f4e487b7100000000000000000000000000000000000000000000000000000000600052603260045260246000fd5b60200260200101511561103857611412565b6000898281518110611073577f4e487b7100000000000000000000000000000000000000000000000000000000600052603260045260246000fd5b6020026020010151905060008073ffffffffffffffffffffffffffffffffffffffff168473ffffffffffffffffffffffffffffffffffffffff1614156110b9578c6110bb565b835b90506110c78183611482565b6110d2575050611412565b60008173ffffffffffffffffffffffffffffffffffffffff168373ffffffffffffffffffffffffffffffffffffffff16630dfe16816040518163ffffffff1660e01b815260040160206040518083038186803b15801561113157600080fd5b505afa158015611145573d6000803e3d6000fd5b505050506040513d601f19601f8201168201806040525081019061116991906122c9565b73ffffffffffffffffffffffffffffffffffffffff1614611207578273ffffffffffffffffffffffffffffffffffffffff16630dfe16816040518163ffffffff1660e01b815260040160206040518083038186803b1580156111ca57600080fd5b505afa1580156111de573d6000803e3d6000fd5b505050506040513d601f19601f8201168201806040525081019061120291906122c9565b611286565b8273ffffffffffffffffffffffffffffffffffffffff1663d21220a76040518163ffffffff1660e01b815260040160206040518083038186803b15801561124d57600080fd5b505afa158015611261573d6000803e3d6000fd5b505050506040513d601f19601f8201168201806040525081019061128591906122c9565b5b905060006112948484610702565b905060405180608001604052808573ffffffffffffffffffffffffffffffffffffffff1681526020018281526020018473ffffffffffffffffffffffffffffffffffffffff1681526020018373ffffffffffffffffffffffffffffffffffffffff16815250898980611305906131e8565b9a508151811061133e577f4e487b7100000000000000000000000000000000000000000000000000000000600052603260045260246000fd5b60200260200101819052506001878681518110611384577f4e487b7100000000000000000000000000000000000000000000000000000000600052603260045260246000fd5b6020026020010190151590811515815250506113a88f8f8f8f8f8f8f8f8f8b610f02565b60008786815181106113e3577f4e487b7100000000000000000000000000000000000000000000000000000000600052603260045260246000fd5b602002602001019015159081151581525050600088111561140d57878061140990613144565b9850505b505050505b808061141d906131e8565b915050610fe4565b505b50505050505050505050565b60008060009054906101000a900473ffffffffffffffffffffffffffffffffffffffff16905090565b600160009054906101000a900473ffffffffffffffffffffffffffffffffffffffff1681565b60007fffffffffffffffffffffffffffffffffffffffffffffffffffffffffffffffff6114af8484611cbb565b1415905092915050565b6114c1611943565b73ffffffffffffffffffffffffffffffffffffffff166114df611433565b73ffffffffffffffffffffffffffffffffffffffff1614611535576040517f08c379a000000000000000000000000000000000000000000000000000000000815260040161152c90612a29565b60405180910390fd5b600073ffffffffffffffffffffffffffffffffffffffff168173ffffffffffffffffffffffffffffffffffffffff1614156115a5576040517f08c379a000000000000000000000000000000000000000000000000000000000815260040161159c90612a09565b60405180910390fd5b6115ae81611bf7565b50565b606060008267ffffffffffffffff8111156115f5577f4e487b7100000000000000000000000000000000000000000000000000000000600052604160045260246000fd5b60405190808252806020026020018201604052801561162857816020015b60608152602001906001900390816116135790505b50905060005b838110156116ce5784818151811061166f577f4e487b7100000000000000000000000000000000000000000000000000000000600052603260045260246000fd5b60200260200101518282815181106116b0577f4e487b7100000000000000000000000000000000000000000000000000000000600052603260045260246000fd5b602002602001018190525080806116c6906131e8565b91505061162e565b508091505092915050565b60606000600260009054906101000a900473ffffffffffffffffffffffffffffffffffffffff1673ffffffffffffffffffffffffffffffffffffffff1663574f2ba36040518163ffffffff1660e01b815260040160206040518083038186803b15801561174557600080fd5b505afa158015611759573d6000803e3d6000fd5b505050506040513d601f19601f8201168201806040525081019061177d9190612653565b905060008167ffffffffffffffff8111156117c1577f4e487b7100000000000000000000000000000000000000000000000000000000600052604160045260246000fd5b6040519080825280602002602001820160405280156117ef5781602001602082028036833780820191505090505b50905060005b8281101561193a576000600260009054906101000a900473ffffffffffffffffffffffffffffffffffffffff1673ffffffffffffffffffffffffffffffffffffffff16631e3dd18b836040518263ffffffff1660e01b815260040161185a9190612a49565b60206040518083038186803b15801561187257600080fd5b505afa158015611886573d6000803e3d6000fd5b505050506040513d601f19601f820116820180604052508101906118aa91906122c9565b90506000819050808484815181106118eb577f4e487b7100000000000000000000000000000000000000000000000000000000600052603260045260246000fd5b602002602001019073ffffffffffffffffffffffffffffffffffffffff16908173ffffffffffffffffffffffffffffffffffffffff168152505050508080611932906131e8565b9150506117f5565b50809250505090565b600033905090565b6000829050600082905080821415611964575050611bf2565b600085600286866119759190612f74565b61197f9190612cc3565b8661198a9190612c2f565b815181106119c1577f4e487b7100000000000000000000000000000000000000000000000000000000600052603260045260246000fd5b602002602001015190505b818313611bc6575b80868481518110611a0e577f4e487b7100000000000000000000000000000000000000000000000000000000600052603260045260246000fd5b60200260200101511115611a2f578280611a279061319f565b9350506119d4565b5b858281518110611a69577f4e487b7100000000000000000000000000000000000000000000000000000000600052603260045260246000fd5b6020026020010151811115611a8b578180611a83906130fb565b925050611a30565b818313611bc1576000868381518110611acd577f4e487b7100000000000000000000000000000000000000000000000000000000600052603260045260246000fd5b60200260200101519050868481518110611b10577f4e487b7100000000000000000000000000000000000000000000000000000000600052603260045260246000fd5b6020026020010151878481518110611b51577f4e487b7100000000000000000000000000000000000000000000000000000000600052603260045260246000fd5b60200260200101818152505080878581518110611b97577f4e487b7100000000000000000000000000000000000000000000000000000000600052603260045260246000fd5b6020026020010181815250508380611bae9061319f565b9450508280611bbc906130fb565b935050505b6119cc565b81851215611bda57611bd986868461194b565b5b83831215611bee57611bed86848661194b565b5b5050505b505050565b60008060009054906101000a900473ffffffffffffffffffffffffffffffffffffffff169050816000806101000a81548173ffffffffffffffffffffffffffffffffffffffff021916908373ffffffffffffffffffffffffffffffffffffffff1602179055508173ffffffffffffffffffffffffffffffffffffffff168173ffffffffffffffffffffffffffffffffffffffff167f8be0079c531659141344cd1fd0a4f28419497f9722a3daafe3b4186f6b6457e060405160405180910390a35050565b60008273ffffffffffffffffffffffffffffffffffffffff168273ffffffffffffffffffffffffffffffffffffffff16630dfe16816040518163ffffffff1660e01b815260040160206040518083038186803b158015611d1a57600080fd5b505afa158015611d2e573d6000803e3d6000fd5b505050506040513d601f19601f82011682018060405250810190611d5291906122c9565b73ffffffffffffffffffffffffffffffffffffffff161415611d775760009050611e55565b8273ffffffffffffffffffffffffffffffffffffffff168273ffffffffffffffffffffffffffffffffffffffff1663d21220a76040518163ffffffff1660e01b815260040160206040518083038186803b158015611dd457600080fd5b505afa158015611de8573d6000803e3d6000fd5b505050506040513d601f19601f82011682018060405250810190611e0c91906122c9565b73ffffffffffffffffffffffffffffffffffffffff161415611e315760019050611e55565b7fffffffffffffffffffffffffffffffffffffffffffffffffffffffffffffffff90505b92915050565b6040518060800160405280600073ffffffffffffffffffffffffffffffffffffffff16815260200160008152602001600073ffffffffffffffffffffffffffffffffffffffff168152602001600073ffffffffffffffffffffffffffffffffffffffff1681525090565b6000611ed8611ed384612ab2565b612a8d565b90508083825260208201905082856020860282011115611ef757600080fd5b60005b85811015611f4157813567ffffffffffffffff811115611f1957600080fd5b808601611f268982612137565b85526020850194506020840193505050600181019050611efa565b5050509392505050565b6000611f5e611f5984612ade565b612a8d565b90508083825260208201905082856020860282011115611f7d57600080fd5b60005b85811015611fad5781611f938882612161565b845260208401935060208301925050600181019050611f80565b5050509392505050565b6000611fca611fc584612b0a565b612a8d565b90508083825260208201905082856020860282011115611fe957600080fd5b60005b858110156120195781611fff8882612176565b845260208401935060208301925050600181019050611fec565b5050509392505050565b600061203661203184612b36565b612a8d565b9050808382526020820190508285608086028201111561205557600080fd5b60005b85811015612085578161206b88826121c3565b845260208401935060808301925050600181019050612058565b5050509392505050565b60008135905061209e81613354565b92915050565b6000815190506120b381613354565b92915050565b600082601f8301126120ca57600080fd5b81356120da848260208601611ec5565b91505092915050565b600082601f8301126120f457600080fd5b8135612104848260208601611f4b565b91505092915050565b600082601f83011261211e57600080fd5b813561212e848260208601611fb7565b91505092915050565b600082601f83011261214857600080fd5b8135612158848260208601612023565b91505092915050565b6000813590506121708161336b565b92915050565b60008135905061218581613382565b92915050565b60006020828403121561219d57600080fd5b6121a76020612a8d565b905060006121b78482850161224c565b60008301525092915050565b6000608082840312156121d557600080fd5b6121df6080612a8d565b905060006121ef84828501612176565b60008301525060206122038482850161224c565b60208301525060406122178482850161208f565b604083015250606061222b8482850161208f565b60608301525092915050565b60008151905061224681613399565b92915050565b60008135905061225b816133b0565b92915050565b600081519050612270816133b0565b92915050565b600081519050612285816133c7565b92915050565b60008151905061229a816133de565b92915050565b6000602082840312156122b257600080fd5b60006122c08482850161208f565b91505092915050565b6000602082840312156122db57600080fd5b60006122e9848285016120a4565b91505092915050565b6000806040838503121561230557600080fd5b60006123138582860161208f565b92505060206123248582860161208f565b9150509250929050565b6000806000806080858703121561234457600080fd5b60006123528782880161208f565b94505060206123638782880161208f565b935050604085013567ffffffffffffffff81111561238057600080fd5b61238c8782880161210d565b925050606061239d8782880161224c565b91505092959194509250565b6000806000806000806000806000806101408b8d0312156123c957600080fd5b60006123d78d828e0161208f565b9a505060206123e88d828e0161208f565b99505060408b013567ffffffffffffffff81111561240557600080fd5b6124118d828e0161210d565b98505060606124228d828e0161224c565b97505060808b013567ffffffffffffffff81111561243f57600080fd5b61244b8d828e016120b9565b96505060a061245c8d828e0161218b565b95505060c08b013567ffffffffffffffff81111561247957600080fd5b6124858d828e01612137565b94505060e06124968d828e0161224c565b9350506101008b013567ffffffffffffffff8111156124b457600080fd5b6124c08d828e016120e3565b9250506101206124d28d828e0161208f565b9150509295989b9194979a5092959850565b600080604083850312156124f757600080fd5b60006125058582860161208f565b925050602061251685828601612176565b9150509250929050565b6000806040838503121561253357600080fd5b600083013567ffffffffffffffff81111561254d57600080fd5b612559858286016120b9565b925050602061256a8582860161224c565b9150509250929050565b6000806040838503121561258757600080fd5b600083013567ffffffffffffffff8111156125a157600080fd5b6125ad85828601612137565b92505060206125be8582860161224c565b9150509250929050565b600080604083850312156125db57600080fd5b60006125e985828601612176565b92505060206125fa8582860161208f565b9150509250929050565b60008060006060848603121561261957600080fd5b600061262786828701612237565b935050602061263886828701612237565b925050604061264986828701612276565b9150509250925092565b60006020828403121561266557600080fd5b600061267384828501612261565b91505092915050565b60006020828403121561268e57600080fd5b600061269c8482850161228b565b91505092915050565b60006126b183836127da565b905092915050565b60006126c583836128a5565b60208301905092915050565b60006126dd83836128fa565b60808301905092915050565b6126f28161303c565b82525050565b6127018161303c565b82525050565b600061271282612b92565b61271c8185612beb565b93508360208202850161272e85612b62565b8060005b8581101561276a578484038952815161274b85826126a5565b945061275683612bb3565b925060208a01995050600181019050612732565b50829750879550505050505092915050565b600061278782612b9d565b6127918185612bda565b935061279c83612b72565b8060005b838110156127cd5781516127b488826126b9565b97506127bf83612bc0565b9250506001810190506127a0565b5085935050505092915050565b60006127e582612ba8565b6127ef8185612bfc565b93506127fa83612b82565b8060005b8381101561282b57815161281288826126d1565b975061281d83612bcd565b9250506001810190506127fe565b5085935050505092915050565b600061284382612ba8565b61284d8185612c0d565b935061285883612b82565b8060005b8381101561288957815161287088826126d1565b975061287b83612bcd565b92505060018101905061285c565b5085935050505092915050565b61289f8161304e565b82525050565b6128ae816130d7565b82525050565b60006128c1602683612c1e565b91506128cc826132dc565b604082019050919050565b60006128e4602083612c1e565b91506128ef8261332b565b602082019050919050565b60808201600082015161291060008501826128a5565b506020820151612923602085018261294f565b50604082015161293660408501826126e9565b50606082015161294960608501826126e9565b50505050565b612958816130b0565b82525050565b612967816130b0565b82525050565b600060208201905061298260008301846126f8565b92915050565b600060208201905081810360008301526129a28184612707565b905092915050565b600060208201905081810360008301526129c4818461277c565b905092915050565b600060208201905081810360008301526129e68184612838565b905092915050565b6000602082019050612a036000830184612896565b92915050565b60006020820190508181036000830152612a22816128b4565b9050919050565b60006020820190508181036000830152612a42816128d7565b9050919050565b6000602082019050612a5e600083018461295e565b92915050565b6000604082019050612a79600083018561295e565b612a86602083018461295e565b9392505050565b6000612a97612aa8565b9050612aa3828261316e565b919050565b6000604051905090565b600067ffffffffffffffff821115612acd57612acc61328f565b5b602082029050602081019050919050565b600067ffffffffffffffff821115612af957612af861328f565b5b602082029050602081019050919050565b600067ffffffffffffffff821115612b2557612b2461328f565b5b602082029050602081019050919050565b600067ffffffffffffffff821115612b5157612b5061328f565b5b602082029050602081019050919050565b6000819050602082019050919050565b6000819050602082019050919050565b6000819050602082019050919050565b600081519050919050565b600081519050919050565b600081519050919050565b6000602082019050919050565b6000602082019050919050565b6000602082019050919050565b600082825260208201905092915050565b600082825260208201905092915050565b600082825260208201905092915050565b600082825260208201905092915050565b600082825260208201905092915050565b6000612c3a8261306c565b9150612c458361306c565b9250817f7fffffffffffffffffffffffffffffffffffffffffffffffffffffffffffffff03831360008312151615612c8057612c7f613231565b5b817f8000000000000000000000000000000000000000000000000000000000000000038312600083121615612cb857612cb7613231565b5b828201905092915050565b6000612cce8261306c565b9150612cd98361306c565b925082612ce957612ce8613260565b5b600160000383147f800000000000000000000000000000000000000000000000000000000000000083141615612d2257612d21613231565b5b828205905092915050565b6000612d38826130b0565b9150612d43836130b0565b925082612d5357612d52613260565b5b828204905092915050565b6000808291508390505b6001851115612da857808604811115612d8457612d83613231565b5b6001851615612d935780820291505b8081029050612da1856132cf565b9450612d68565b94509492505050565b6000612dbc826130b0565b9150612dc7836130b0565b9250612df47fffffffffffffffffffffffffffffffffffffffffffffffffffffffffffffffff8484612e47565b905092915050565b6000612e07826130b0565b9150612e12836130ca565b9250612e3f7fffffffffffffffffffffffffffffffffffffffffffffffffffffffffffffffff8484612e47565b905092915050565b600082612e575760019050612f13565b81612e655760009050612f13565b8160018114612e7b5760028114612e8557612eb4565b6001915050612f13565b60ff841115612e9757612e96613231565b5b8360020a915084821115612eae57612ead613231565b5b50612f13565b5060208310610133831016604e8410600b8410161715612ee95782820a905083811115612ee457612ee3613231565b5b612f13565b612ef68484846001612d5e565b92509050818404811115612f0d57612f0c613231565b5b81810290505b9392505050565b6000612f25826130b0565b9150612f30836130b0565b9250817fffffffffffffffffffffffffffffffffffffffffffffffffffffffffffffffff0483118215151615612f6957612f68613231565b5b828202905092915050565b6000612f7f8261306c565b9150612f8a8361306c565b9250827f800000000000000000000000000000000000000000000000000000000000000001821260008412151615612fc557612fc4613231565b5b827f7fffffffffffffffffffffffffffffffffffffffffffffffffffffffffffffff018213600084121615612ffd57612ffc613231565b5b828203905092915050565b6000613013826130b0565b915061301e836130b0565b92508282101561303157613030613231565b5b828203905092915050565b600061304782613090565b9050919050565b60008115159050919050565b60006130658261303c565b9050919050565b6000819050919050565b60006dffffffffffffffffffffffffffff82169050919050565b600073ffffffffffffffffffffffffffffffffffffffff82169050919050565b6000819050919050565b600063ffffffff82169050919050565b600060ff82169050919050565b60006130e2826130e9565b9050919050565b60006130f482613090565b9050919050565b60006131068261306c565b91507f800000000000000000000000000000000000000000000000000000000000000082141561313957613138613231565b5b600182039050919050565b600061314f826130b0565b9150600082141561316357613162613231565b5b600182039050919050565b613177826132be565b810181811067ffffffffffffffff821117156131965761319561328f565b5b80604052505050565b60006131aa8261306c565b91507f7fffffffffffffffffffffffffffffffffffffffffffffffffffffffffffffff8214156131dd576131dc613231565b5b600182019050919050565b60006131f3826130b0565b91507fffffffffffffffffffffffffffffffffffffffffffffffffffffffffffffffff82141561322657613225613231565b5b600182019050919050565b7f4e487b7100000000000000000000000000000000000000000000000000000000600052601160045260246000fd5b7f4e487b7100000000000000000000000000000000000000000000000000000000600052601260045260246000fd5b7f4e487b7100000000000000000000000000000000000000000000000000000000600052604160045260246000fd5b6000601f19601f8301169050919050565b60008160011c9050919050565b7f4f776e61626c653a206e6577206f776e657220697320746865207a65726f206160008201527f6464726573730000000000000000000000000000000000000000000000000000602082015250565b7f4f776e61626c653a2063616c6c6572206973206e6f7420746865206f776e6572600082015250565b61335d8161303c565b811461336857600080fd5b50565b6133748161304e565b811461337f57600080fd5b50565b61338b8161305a565b811461339657600080fd5b50565b6133a281613076565b81146133ad57600080fd5b50565b6133b9816130b0565b81146133c457600080fd5b50565b6133d0816130ba565b81146133db57600080fd5b50565b6133e7816130ca565b81146133f257600080fd5b5056fea26469706673582212208b0862a816be1f50c16a7d4f67398465d8f2d08bb1016d32a66d22a6b3c3a29464736f6c63430008040033",
  "libraries": {
    "CustomSort": "0x553901Cd7Bb485Ecd625e0A3Dc5c70B40f58FE39"
  },
  "devdoc": {
    "kind": "dev",
    "methods": {
      "owner()": {
        "details": "Returns the address of the current owner."
      },
      "renounceOwnership()": {
        "details": "Leaves the contract without owner. It will not be possible to call `onlyOwner` functions anymore. Can only be called by the current owner. NOTE: Renouncing ownership will leave the contract without an owner, thereby removing any functionality that is only available to the owner."
      },
      "transferOwnership(address)": {
        "details": "Transfers ownership of the contract to a new account (`newOwner`). Can only be called by the current owner."
      }
    },
    "version": 1
  },
  "userdoc": {
    "kind": "user",
    "methods": {},
    "version": 1
  },
  "storageLayout": {
    "storage": [
      {
        "astId": 7,
        "contract": "contracts/PriceFetcher.sol:PriceFetcher",
        "label": "_owner",
        "offset": 0,
        "slot": "0",
        "type": "t_address"
      },
      {
        "astId": 565,
        "contract": "contracts/PriceFetcher.sol:PriceFetcher",
        "label": "pairFactoryAddress",
        "offset": 0,
        "slot": "1",
        "type": "t_address"
      },
      {
        "astId": 568,
        "contract": "contracts/PriceFetcher.sol:PriceFetcher",
        "label": "pairFactory",
        "offset": 0,
        "slot": "2",
        "type": "t_contract(IUniswapV2Factory)295"
      }
    ],
    "types": {
      "t_address": {
        "encoding": "inplace",
        "label": "address",
        "numberOfBytes": "20"
      },
      "t_contract(IUniswapV2Factory)295": {
        "encoding": "inplace",
        "label": "contract IUniswapV2Factory",
        "numberOfBytes": "20"
      }
    }
  }
}