{
  "address": "0xA585e14D8AB59000cA3cd59b3b483eC591E0d9C2",
  "abi": [
    {
      "inputs": [
        {
          "internalType": "address",
          "name": "_pairFactoryAddress",
          "type": "address"
        }
      ],
      "stateMutability": "nonpayable",
      "type": "constructor"
    },
    {
      "anonymous": false,
      "inputs": [
        {
          "indexed": true,
          "internalType": "address",
          "name": "previousOwner",
          "type": "address"
        },
        {
          "indexed": true,
          "internalType": "address",
          "name": "newOwner",
          "type": "address"
        }
      ],
      "name": "OwnershipTransferred",
      "type": "event"
    },
    {
      "inputs": [],
      "name": "DECIMALS",
      "outputs": [
        {
          "internalType": "uint256",
          "name": "",
          "type": "uint256"
        }
      ],
      "stateMutability": "view",
      "type": "function"
    },
    {
      "inputs": [
        {
          "internalType": "address",
          "name": "_tokenIn",
          "type": "address"
        },
        {
          "internalType": "address",
          "name": "_tokenOut",
          "type": "address"
        }
      ],
      "name": "computeAllRoutes",
      "outputs": [
        {
          "components": [
            {
              "internalType": "contract IUniswapV2Pair",
              "name": "pair",
              "type": "address"
            },
            {
              "internalType": "uint256",
              "name": "price",
              "type": "uint256"
            },
            {
              "internalType": "address",
              "name": "inToken",
              "type": "address"
            },
            {
              "internalType": "address",
              "name": "outToken",
              "type": "address"
            }
          ],
          "internalType": "struct PriceFetcher.PairWithPrice[][]",
          "name": "",
          "type": "tuple[][]"
        }
      ],
      "stateMutability": "view",
      "type": "function"
    },
    {
      "inputs": [
        {
          "internalType": "address",
          "name": "_tokenIn",
          "type": "address"
        },
        {
          "internalType": "address",
          "name": "_tokenOut",
          "type": "address"
        },
        {
          "internalType": "contract IUniswapV2Pair[]",
          "name": "_pools",
          "type": "address[]"
        },
        {
          "internalType": "uint256",
          "name": "_maxHops",
          "type": "uint256"
        }
      ],
      "name": "computeAllRoutes",
      "outputs": [
        {
          "components": [
            {
              "internalType": "contract IUniswapV2Pair",
              "name": "pair",
              "type": "address"
            },
            {
              "internalType": "uint256",
              "name": "price",
              "type": "uint256"
            },
            {
              "internalType": "address",
              "name": "inToken",
              "type": "address"
            },
            {
              "internalType": "address",
              "name": "outToken",
              "type": "address"
            }
          ],
          "internalType": "struct PriceFetcher.PairWithPrice[][]",
          "name": "",
          "type": "tuple[][]"
        }
      ],
      "stateMutability": "view",
      "type": "function"
    },
    {
      "inputs": [
        {
          "internalType": "address",
          "name": "_tokenIn",
          "type": "address"
        },
        {
          "internalType": "address",
          "name": "_tokenOut",
          "type": "address"
        },
        {
          "internalType": "contract IUniswapV2Pair[]",
          "name": "_pools",
          "type": "address[]"
        },
        {
          "internalType": "uint256",
          "name": "_maxHops",
          "type": "uint256"
        },
        {
          "components": [
            {
              "internalType": "contract IUniswapV2Pair",
              "name": "pair",
              "type": "address"
            },
            {
              "internalType": "uint256",
              "name": "price",
              "type": "uint256"
            },
            {
              "internalType": "address",
              "name": "inToken",
              "type": "address"
            },
            {
              "internalType": "address",
              "name": "outToken",
              "type": "address"
            }
          ],
          "internalType": "struct PriceFetcher.PairWithPrice[][]",
          "name": "_routes",
          "type": "tuple[][]"
        },
        {
          "components": [
            {
              "internalType": "uint256",
              "name": "value",
              "type": "uint256"
            }
          ],
          "internalType": "struct PriceFetcher.Counter",
          "name": "_routesCount",
          "type": "tuple"
        },
        {
          "components": [
            {
              "internalType": "contract IUniswapV2Pair",
              "name": "pair",
              "type": "address"
            },
            {
              "internalType": "uint256",
              "name": "price",
              "type": "uint256"
            },
            {
              "internalType": "address",
              "name": "inToken",
              "type": "address"
            },
            {
              "internalType": "address",
              "name": "outToken",
              "type": "address"
            }
          ],
          "internalType": "struct PriceFetcher.PairWithPrice[]",
          "name": "_currentRoute",
          "type": "tuple[]"
        },
        {
          "internalType": "uint256",
          "name": "_currentRouteCount",
          "type": "uint256"
        },
        {
          "internalType": "bool[]",
          "name": "_poolsUsed",
          "type": "bool[]"
        },
        {
          "internalType": "address",
          "name": "_previousTokenOut",
          "type": "address"
        }
      ],
      "name": "computeRoutes",
      "outputs": [],
      "stateMutability": "view",
      "type": "function"
    },
    {
      "inputs": [],
      "name": "getAllPairs",
      "outputs": [
        {
          "internalType": "contract IUniswapV2Pair[]",
          "name": "",
          "type": "address[]"
        }
      ],
      "stateMutability": "view",
      "type": "function"
    },
    {
      "inputs": [
        {
          "internalType": "address",
          "name": "_tokenAddress",
          "type": "address"
        },
        {
          "internalType": "contract IUniswapV2Pair",
          "name": "_pair",
          "type": "address"
        }
      ],
      "name": "involvesToken",
      "outputs": [
        {
          "internalType": "bool",
          "name": "",
          "type": "bool"
        }
      ],
      "stateMutability": "view",
      "type": "function"
    },
    {
      "inputs": [],
      "name": "owner",
      "outputs": [
        {
          "internalType": "address",
          "name": "",
          "type": "address"
        }
      ],
      "stateMutability": "view",
      "type": "function"
    },
    {
      "inputs": [],
      "name": "pairFactoryAddress",
      "outputs": [
        {
          "internalType": "address",
          "name": "",
          "type": "address"
        }
      ],
      "stateMutability": "view",
      "type": "function"
    },
    {
      "inputs": [
        {
          "internalType": "address[]",
          "name": "_path",
          "type": "address[]"
        }
      ],
      "name": "quote",
      "outputs": [
        {
          "internalType": "uint256",
          "name": "",
          "type": "uint256"
        },
        {
          "internalType": "uint256",
          "name": "",
          "type": "uint256"
        }
      ],
      "stateMutability": "view",
      "type": "function"
    },
    {
      "inputs": [
        {
          "internalType": "address",
          "name": "_baseTokenAddress",
          "type": "address"
        },
        {
          "internalType": "address",
          "name": "_tokenAddress",
          "type": "address"
        }
      ],
      "name": "quoteAllRoutes",
      "outputs": [
        {
          "internalType": "uint256",
          "name": "",
          "type": "uint256"
        },
        {
          "internalType": "uint256",
          "name": "",
          "type": "uint256"
        }
      ],
      "stateMutability": "view",
      "type": "function"
    },
    {
      "inputs": [
        {
          "internalType": "contract IUniswapV2Pair",
          "name": "_pair",
          "type": "address"
        },
        {
          "internalType": "address",
          "name": "_tokenAddress",
          "type": "address"
        }
      ],
      "name": "quoteForPair",
      "outputs": [
        {
          "internalType": "uint256",
          "name": "",
          "type": "uint256"
        }
      ],
      "stateMutability": "view",
      "type": "function"
    },
    {
      "inputs": [],
      "name": "renounceOwnership",
      "outputs": [],
      "stateMutability": "nonpayable",
      "type": "function"
    },
    {
      "inputs": [
        {
          "components": [
            {
              "internalType": "contract IUniswapV2Pair",
              "name": "pair",
              "type": "address"
            },
            {
              "internalType": "uint256",
              "name": "price",
              "type": "uint256"
            },
            {
              "internalType": "address",
              "name": "inToken",
              "type": "address"
            },
            {
              "internalType": "address",
              "name": "outToken",
              "type": "address"
            }
          ],
          "internalType": "struct PriceFetcher.PairWithPrice[]",
          "name": "_route",
          "type": "tuple[]"
        },
        {
          "internalType": "uint256",
          "name": "_size",
          "type": "uint256"
        }
      ],
      "name": "resizeRoute",
      "outputs": [
        {
          "components": [
            {
              "internalType": "contract IUniswapV2Pair",
              "name": "pair",
              "type": "address"
            },
            {
              "internalType": "uint256",
              "name": "price",
              "type": "uint256"
            },
            {
              "internalType": "address",
              "name": "inToken",
              "type": "address"
            },
            {
              "internalType": "address",
              "name": "outToken",
              "type": "address"
            }
          ],
          "internalType": "struct PriceFetcher.PairWithPrice[]",
          "name": "",
          "type": "tuple[]"
        }
      ],
      "stateMutability": "pure",
      "type": "function"
    },
    {
      "inputs": [
        {
          "components": [
            {
              "internalType": "contract IUniswapV2Pair",
              "name": "pair",
              "type": "address"
            },
            {
              "internalType": "uint256",
              "name": "price",
              "type": "uint256"
            },
            {
              "internalType": "address",
              "name": "inToken",
              "type": "address"
            },
            {
              "internalType": "address",
              "name": "outToken",
              "type": "address"
            }
          ],
          "internalType": "struct PriceFetcher.PairWithPrice[][]",
          "name": "_routes",
          "type": "tuple[][]"
        },
        {
          "internalType": "uint256",
          "name": "_size",
          "type": "uint256"
        }
      ],
      "name": "resizeRoutes",
      "outputs": [
        {
          "components": [
            {
              "internalType": "contract IUniswapV2Pair",
              "name": "pair",
              "type": "address"
            },
            {
              "internalType": "uint256",
              "name": "price",
              "type": "uint256"
            },
            {
              "internalType": "address",
              "name": "inToken",
              "type": "address"
            },
            {
              "internalType": "address",
              "name": "outToken",
              "type": "address"
            }
          ],
          "internalType": "struct PriceFetcher.PairWithPrice[][]",
          "name": "",
          "type": "tuple[][]"
        }
      ],
      "stateMutability": "pure",
      "type": "function"
    },
    {
      "inputs": [
        {
          "internalType": "address",
          "name": "_pairFactoryAddress",
          "type": "address"
        }
      ],
      "name": "setPairFactoryAddress",
      "outputs": [],
      "stateMutability": "nonpayable",
      "type": "function"
    },
    {
      "inputs": [
        {
          "internalType": "address",
          "name": "newOwner",
          "type": "address"
        }
      ],
      "name": "transferOwnership",
      "outputs": [],
      "stateMutability": "nonpayable",
      "type": "function"
    }
  ],
  "transactionHash": "0x9224a0f74867bdc632e0ce1ccd0ada0d11dea8f822948cd59d9f13b7e4874ba1",
  "args": [
    "0x5C69bEe701ef814a2B6a3EDD4B1652CB9cc5aA6f"
  ],
  "numDeployments": 2,
  "solcInputHash": "1ff36e01d690f95b60084b3776879381",
  "bytecode": "0x60806040523480156200001157600080fd5b506040516200407f3803806200407f83398181016040528101906200003791906200028f565b620000576200004b6200006f60201b60201c565b6200007760201b60201c565b62000068816200013b60201b60201c565b506200038c565b600033905090565b60008060009054906101000a900473ffffffffffffffffffffffffffffffffffffffff169050816000806101000a81548173ffffffffffffffffffffffffffffffffffffffff021916908373ffffffffffffffffffffffffffffffffffffffff1602179055508173ffffffffffffffffffffffffffffffffffffffff168173ffffffffffffffffffffffffffffffffffffffff167f8be0079c531659141344cd1fd0a4f28419497f9722a3daafe3b4186f6b6457e060405160405180910390a35050565b6200014b6200006f60201b60201c565b73ffffffffffffffffffffffffffffffffffffffff16620001716200024f60201b60201c565b73ffffffffffffffffffffffffffffffffffffffff1614620001ca576040517f08c379a0000000000000000000000000000000000000000000000000000000008152600401620001c190620002e2565b60405180910390fd5b80600160006101000a81548173ffffffffffffffffffffffffffffffffffffffff021916908373ffffffffffffffffffffffffffffffffffffffff16021790555080600260006101000a81548173ffffffffffffffffffffffffffffffffffffffff021916908373ffffffffffffffffffffffffffffffffffffffff16021790555050565b60008060009054906101000a900473ffffffffffffffffffffffffffffffffffffffff16905090565b600081519050620002898162000372565b92915050565b600060208284031215620002a257600080fd5b6000620002b28482850162000278565b91505092915050565b6000620002ca60208362000304565b9150620002d78262000349565b602082019050919050565b60006020820190508181036000830152620002fd81620002bb565b9050919050565b600082825260208201905092915050565b6000620003228262000329565b9050919050565b600073ffffffffffffffffffffffffffffffffffffffff82169050919050565b7f4f776e61626c653a2063616c6c6572206973206e6f7420746865206f776e6572600082015250565b6200037d8162000315565b81146200038957600080fd5b50565b613ce3806200039c6000396000f3fe608060405234801561001057600080fd5b50600436106101005760003560e01c806384051d8e116100975780639e9fc6b7116100665780639e9fc6b7146102c3578063f2fde38b146102f3578063f7377a281461030f578063f800ece91461033f57610100565b806384051d8e1461023b5780638cb6effb1461026b5780638da5cb5b146102875780639892c7f1146102a557610100565b806356b6a67e116100d357806356b6a67e146101a157806358ca0396146101d157806370e3bb2914610201578063715018a61461023157610100565b806327987afa146101055780632e0f2625146101365780633a1f656e14610154578063453bda2a14610170575b600080fd5b61011f600480360381019061011a9190612bb6565b61035d565b60405161012d929190613258565b60405180910390f35b61013e6107f4565b60405161014b919061323d565b60405180910390f35b61016e60048036038101906101699190612936565b6107f9565b005b61018a60048036038101906101859190612988565b6108fa565b604051610198929190613258565b60405180910390f35b6101bb60048036038101906101b69190612c9f565b610bd5565b6040516101c8919061323d565b60405180910390f35b6101eb60048036038101906101e69190612988565b611055565b6040516101f89190613125565b60405180910390f35b61021b600480360381019061021691906129c4565b611079565b6040516102289190613125565b60405180910390f35b61023961121f565b005b61025560048036038101906102509190612c4b565b6112a7565b6040516102629190613169565b60405180910390f35b61028560048036038101906102809190612a3f565b6113d5565b005b61028f611906565b60405161029c91906130e1565b60405180910390f35b6102ad61192f565b6040516102ba91906130e1565b60405180910390f35b6102dd60048036038101906102d89190612b7a565b611955565b6040516102ea919061318b565b60405180910390f35b61030d60048036038101906103089190612936565b61198c565b005b61032960048036038101906103249190612bf7565b611a84565b6040516103369190613125565b60405180910390f35b610347611bac565b6040516103549190613147565b60405180910390f35b6000806000835114156103775760006006915091506107ef565b826001815181106103b1577f4e487b7100000000000000000000000000000000000000000000000000000000600052603260045260246000fd5b602002602001015173ffffffffffffffffffffffffffffffffffffffff1683600081518110610409577f4e487b7100000000000000000000000000000000000000000000000000000000600052603260045260246000fd5b602002602001015173ffffffffffffffffffffffffffffffffffffffff16141561043a5760016006915091506107ef565b600083600081518110610476577f4e487b7100000000000000000000000000000000000000000000000000000000600052603260045260246000fd5b60200260200101519050600080600190505b85518110156107e4576000600260009054906101000a900473ffffffffffffffffffffffffffffffffffffffff1673ffffffffffffffffffffffffffffffffffffffff1663e6a439058589858151811061050b577f4e487b7100000000000000000000000000000000000000000000000000000000600052603260045260246000fd5b60200260200101516040518363ffffffff1660e01b81526004016105309291906130fc565b60206040518083038186803b15801561054857600080fd5b505afa15801561055c573d6000803e3d6000fd5b505050506040513d601f19601f82011682018060405250810190610580919061295f565b90506106d08473ffffffffffffffffffffffffffffffffffffffff166395d89b416040518163ffffffff1660e01b815260040160006040518083038186803b1580156105cb57600080fd5b505afa1580156105df573d6000803e3d6000fd5b505050506040513d6000823e3d601f19601f820116820180604052508101906106089190612cdb565b888481518110610641577f4e487b7100000000000000000000000000000000000000000000000000000000600052603260045260246000fd5b602002602001015173ffffffffffffffffffffffffffffffffffffffff166395d89b416040518163ffffffff1660e01b815260040160006040518083038186803b15801561068e57600080fd5b505afa1580156106a2573d6000803e3d6000fd5b505050506040513d6000823e3d601f19601f820116820180604052508101906106cb9190612cdb565b611e16565b600073ffffffffffffffffffffffffffffffffffffffff168173ffffffffffffffffffffffffffffffffffffffff161415610740576040517f08c379a0000000000000000000000000000000000000000000000000000000008152600401610737906131fd565b60405180910390fd5b600081905060006107518287610bd5565b905060008514156107645780945061078b565b6006600a610772919061360d565b8161077d9190613589565b856107889190613776565b94505b8884815181106107c4577f4e487b7100000000000000000000000000000000000000000000000000000000600052603260045260246000fd5b6020026020010151955050505080806107dc90613a77565b915050610488565b508060069350935050505b915091565b600681565b610801611eb2565b73ffffffffffffffffffffffffffffffffffffffff1661081f611906565b73ffffffffffffffffffffffffffffffffffffffff1614610875576040517f08c379a000000000000000000000000000000000000000000000000000000000815260040161086c9061321d565b60405180910390fd5b80600160006101000a81548173ffffffffffffffffffffffffffffffffffffffff021916908373ffffffffffffffffffffffffffffffffffffffff16021790555080600260006101000a81548173ffffffffffffffffffffffffffffffffffffffff021916908373ffffffffffffffffffffffffffffffffffffffff16021790555050565b6000808273ffffffffffffffffffffffffffffffffffffffff168473ffffffffffffffffffffffffffffffffffffffff16141561093e576001600691509150610bce565b600061094a8486611055565b905060008151141561096457600060069250925050610bce565b6000815167ffffffffffffffff8111156109a7577f4e487b7100000000000000000000000000000000000000000000000000000000600052604160045260246000fd5b6040519080825280602002602001820160405280156109d55781602001602082028036833780820191505090505b50905060005b8251811015610b69576000838281518110610a1f577f4e487b7100000000000000000000000000000000000000000000000000000000600052603260045260246000fd5b60200260200101519050600080600090505b8251811015610b0d576000821415610a8f57828181518110610a7c577f4e487b7100000000000000000000000000000000000000000000000000000000600052603260045260246000fd5b6020026020010151602001519150610afa565b6006600a610a9d919061360d565b838281518110610ad6577f4e487b7100000000000000000000000000000000000000000000000000000000600052603260045260246000fd5b602002602001015160200151610aec9190613589565b82610af79190613776565b91505b8080610b0590613a77565b915050610a31565b5080848481518110610b48577f4e487b7100000000000000000000000000000000000000000000000000000000600052603260045260246000fd5b60200260200101818152505050508080610b6190613a77565b9150506109db565b50610b8381600060018451610b7e9190613864565b611eba565b80600081518110610bbd577f4e487b7100000000000000000000000000000000000000000000000000000000600052603260045260246000fd5b602002602001015160069350935050505b9250929050565b6000808273ffffffffffffffffffffffffffffffffffffffff168473ffffffffffffffffffffffffffffffffffffffff16630dfe16816040518163ffffffff1660e01b815260040160206040518083038186803b158015610c3557600080fd5b505afa158015610c49573d6000803e3d6000fd5b505050506040513d601f19601f82011682018060405250810190610c6d919061295f565b73ffffffffffffffffffffffffffffffffffffffff1614610d0b578373ffffffffffffffffffffffffffffffffffffffff16630dfe16816040518163ffffffff1660e01b815260040160206040518083038186803b158015610cce57600080fd5b505afa158015610ce2573d6000803e3d6000fd5b505050506040513d601f19601f82011682018060405250810190610d06919061295f565b610d8a565b8373ffffffffffffffffffffffffffffffffffffffff1663d21220a76040518163ffffffff1660e01b815260040160206040518083038186803b158015610d5157600080fd5b505afa158015610d65573d6000803e3d6000fd5b505050506040513d601f19601f82011682018060405250810190610d89919061295f565b5b9050600083905060008290506000808773ffffffffffffffffffffffffffffffffffffffff16630902f1ac6040518163ffffffff1660e01b815260040160606040518083038186803b158015610ddf57600080fd5b505afa158015610df3573d6000803e3d6000fd5b505050506040513d601f19601f82011682018060405250810190610e179190612d1c565b506dffffffffffffffffffffffffffff1691506dffffffffffffffffffffffffffff1691508473ffffffffffffffffffffffffffffffffffffffff168873ffffffffffffffffffffffffffffffffffffffff16630dfe16816040518163ffffffff1660e01b815260040160206040518083038186803b158015610e9957600080fd5b505afa158015610ead573d6000803e3d6000fd5b505050506040513d601f19601f82011682018060405250810190610ed1919061295f565b73ffffffffffffffffffffffffffffffffffffffff1614610ef9576000829050819250809150505b8373ffffffffffffffffffffffffffffffffffffffff1663313ce5676040518163ffffffff1660e01b815260040160206040518083038186803b158015610f3f57600080fd5b505afa158015610f53573d6000803e3d6000fd5b505050506040513d601f19601f82011682018060405250810190610f779190612d94565b600a610f839190613658565b82610f8e9190613776565b915060068373ffffffffffffffffffffffffffffffffffffffff1663313ce5676040518163ffffffff1660e01b815260040160206040518083038186803b158015610fd857600080fd5b505afa158015610fec573d6000803e3d6000fd5b505050506040513d601f19601f820116820180604052508101906110109190612d94565b60ff1661101d9190613864565b600a611029919061360d565b816110349190613776565b9050600081836110449190613589565b905080965050505050505092915050565b60606000611061611bac565b9050611070848483600a611079565b91505092915050565b60606000835167ffffffffffffffff8111156110be577f4e487b7100000000000000000000000000000000000000000000000000000000600052604160045260246000fd5b6040519080825280602002602001820160405280156110f157816020015b60608152602001906001900390816110dc5790505b50905060006040518060200160405280600081525090506112058787878786868b5167ffffffffffffffff811115611152577f4e487b7100000000000000000000000000000000000000000000000000000000600052604160045260246000fd5b60405190808252806020026020018201604052801561118b57816020015b6111786123f3565b8152602001906001900390816111705790505b5060008d5167ffffffffffffffff8111156111cf577f4e487b7100000000000000000000000000000000000000000000000000000000600052604160045260246000fd5b6040519080825280602002602001820160405280156111fd5781602001602082028036833780820191505090505b5060006113d5565b611213828260000151611a84565b92505050949350505050565b611227611eb2565b73ffffffffffffffffffffffffffffffffffffffff16611245611906565b73ffffffffffffffffffffffffffffffffffffffff161461129b576040517f08c379a00000000000000000000000000000000000000000000000000000000081526004016112929061321d565b60405180910390fd5b6112a56000612166565b565b606060008267ffffffffffffffff8111156112eb577f4e487b7100000000000000000000000000000000000000000000000000000000600052604160045260246000fd5b60405190808252806020026020018201604052801561132457816020015b6113116123f3565b8152602001906001900390816113095790505b50905060005b838110156113ca5784818151811061136b577f4e487b7100000000000000000000000000000000000000000000000000000000600052603260045260246000fd5b60200260200101518282815181106113ac577f4e487b7100000000000000000000000000000000000000000000000000000000600052603260045260246000fd5b602002602001018190525080806113c290613a77565b91505061132a565b508091505092915050565b868311156113e2576118fa565b600083118015611448575061144789856001866113ff9190613864565b81518110611436577f4e487b7100000000000000000000000000000000000000000000000000000000600052603260045260246000fd5b602002602001015160000151611955565b5b156114b45761145784846112a7565b8686600001805180919061146a90613a77565b815250815181106114a4577f4e487b7100000000000000000000000000000000000000000000000000000000600052603260045260246000fd5b60200260200101819052506118fa565b60005b88518110156118f8578281815181106114f9577f4e487b7100000000000000000000000000000000000000000000000000000000600052603260045260246000fd5b60200260200101511561150b576118e5565b6000898281518110611546577f4e487b7100000000000000000000000000000000000000000000000000000000600052603260045260246000fd5b6020026020010151905060008073ffffffffffffffffffffffffffffffffffffffff168473ffffffffffffffffffffffffffffffffffffffff16141561158c578c61158e565b835b905061159a8183611955565b6115a55750506118e5565b60008173ffffffffffffffffffffffffffffffffffffffff168373ffffffffffffffffffffffffffffffffffffffff16630dfe16816040518163ffffffff1660e01b815260040160206040518083038186803b15801561160457600080fd5b505afa158015611618573d6000803e3d6000fd5b505050506040513d601f19601f8201168201806040525081019061163c919061295f565b73ffffffffffffffffffffffffffffffffffffffff16146116da578273ffffffffffffffffffffffffffffffffffffffff16630dfe16816040518163ffffffff1660e01b815260040160206040518083038186803b15801561169d57600080fd5b505afa1580156116b1573d6000803e3d6000fd5b505050506040513d601f19601f820116820180604052508101906116d5919061295f565b611759565b8273ffffffffffffffffffffffffffffffffffffffff1663d21220a76040518163ffffffff1660e01b815260040160206040518083038186803b15801561172057600080fd5b505afa158015611734573d6000803e3d6000fd5b505050506040513d601f19601f82011682018060405250810190611758919061295f565b5b905060006117678484610bd5565b905060405180608001604052808573ffffffffffffffffffffffffffffffffffffffff1681526020018281526020018473ffffffffffffffffffffffffffffffffffffffff1681526020018373ffffffffffffffffffffffffffffffffffffffff168152508989806117d890613a77565b9a5081518110611811577f4e487b7100000000000000000000000000000000000000000000000000000000600052603260045260246000fd5b60200260200101819052506001878681518110611857577f4e487b7100000000000000000000000000000000000000000000000000000000600052603260045260246000fd5b60200260200101901515908115158152505061187b8f8f8f8f8f8f8f8f8f8b6113d5565b60008786815181106118b6577f4e487b7100000000000000000000000000000000000000000000000000000000600052603260045260246000fd5b60200260200101901515908115158152505060008811156118e05787806118dc906139d3565b9850505b505050505b80806118f090613a77565b9150506114b7565b505b50505050505050505050565b60008060009054906101000a900473ffffffffffffffffffffffffffffffffffffffff16905090565b600160009054906101000a900473ffffffffffffffffffffffffffffffffffffffff1681565b60007fffffffffffffffffffffffffffffffffffffffffffffffffffffffffffffffff611982848461222a565b1415905092915050565b611994611eb2565b73ffffffffffffffffffffffffffffffffffffffff166119b2611906565b73ffffffffffffffffffffffffffffffffffffffff1614611a08576040517f08c379a00000000000000000000000000000000000000000000000000000000081526004016119ff9061321d565b60405180910390fd5b600073ffffffffffffffffffffffffffffffffffffffff168173ffffffffffffffffffffffffffffffffffffffff161415611a78576040517f08c379a0000000000000000000000000000000000000000000000000000000008152600401611a6f906131dd565b60405180910390fd5b611a8181612166565b50565b606060008267ffffffffffffffff811115611ac8577f4e487b7100000000000000000000000000000000000000000000000000000000600052604160045260246000fd5b604051908082528060200260200182016040528015611afb57816020015b6060815260200190600190039081611ae65790505b50905060005b83811015611ba157848181518110611b42577f4e487b7100000000000000000000000000000000000000000000000000000000600052603260045260246000fd5b6020026020010151828281518110611b83577f4e487b7100000000000000000000000000000000000000000000000000000000600052603260045260246000fd5b60200260200101819052508080611b9990613a77565b915050611b01565b508091505092915050565b60606000600260009054906101000a900473ffffffffffffffffffffffffffffffffffffffff1673ffffffffffffffffffffffffffffffffffffffff1663574f2ba36040518163ffffffff1660e01b815260040160206040518083038186803b158015611c1857600080fd5b505afa158015611c2c573d6000803e3d6000fd5b505050506040513d601f19601f82011682018060405250810190611c509190612d6b565b905060008167ffffffffffffffff811115611c94577f4e487b7100000000000000000000000000000000000000000000000000000000600052604160045260246000fd5b604051908082528060200260200182016040528015611cc25781602001602082028036833780820191505090505b50905060005b82811015611e0d576000600260009054906101000a900473ffffffffffffffffffffffffffffffffffffffff1673ffffffffffffffffffffffffffffffffffffffff16631e3dd18b836040518263ffffffff1660e01b8152600401611d2d919061323d565b60206040518083038186803b158015611d4557600080fd5b505afa158015611d59573d6000803e3d6000fd5b505050506040513d601f19601f82011682018060405250810190611d7d919061295f565b9050600081905080848481518110611dbe577f4e487b7100000000000000000000000000000000000000000000000000000000600052603260045260246000fd5b602002602001019073ffffffffffffffffffffffffffffffffffffffff16908173ffffffffffffffffffffffffffffffffffffffff168152505050508080611e0590613a77565b915050611cc8565b50809250505090565b611eae8282604051602401611e2c9291906131a6565b6040516020818303038152906040527f4b5c4277000000000000000000000000000000000000000000000000000000007bffffffffffffffffffffffffffffffffffffffffffffffffffffffff19166020820180517bffffffffffffffffffffffffffffffffffffffffffffffffffffffff83818316178352505050506123ca565b5050565b600033905090565b6000829050600082905080821415611ed3575050612161565b60008560028686611ee491906137d0565b611eee919061351f565b86611ef9919061348b565b81518110611f30577f4e487b7100000000000000000000000000000000000000000000000000000000600052603260045260246000fd5b602002602001015190505b818313612135575b80868481518110611f7d577f4e487b7100000000000000000000000000000000000000000000000000000000600052603260045260246000fd5b60200260200101511115611f9e578280611f9690613a2e565b935050611f43565b5b858281518110611fd8577f4e487b7100000000000000000000000000000000000000000000000000000000600052603260045260246000fd5b6020026020010151811115611ffa578180611ff29061398a565b925050611f9f565b81831361213057600086838151811061203c577f4e487b7100000000000000000000000000000000000000000000000000000000600052603260045260246000fd5b6020026020010151905086848151811061207f577f4e487b7100000000000000000000000000000000000000000000000000000000600052603260045260246000fd5b60200260200101518784815181106120c0577f4e487b7100000000000000000000000000000000000000000000000000000000600052603260045260246000fd5b60200260200101818152505080878581518110612106577f4e487b7100000000000000000000000000000000000000000000000000000000600052603260045260246000fd5b602002602001018181525050838061211d90613a2e565b945050828061212b9061398a565b935050505b611f3b565b8185121561214957612148868684611eba565b5b8383121561215d5761215c868486611eba565b5b5050505b505050565b60008060009054906101000a900473ffffffffffffffffffffffffffffffffffffffff169050816000806101000a81548173ffffffffffffffffffffffffffffffffffffffff021916908373ffffffffffffffffffffffffffffffffffffffff1602179055508173ffffffffffffffffffffffffffffffffffffffff168173ffffffffffffffffffffffffffffffffffffffff167f8be0079c531659141344cd1fd0a4f28419497f9722a3daafe3b4186f6b6457e060405160405180910390a35050565b60008273ffffffffffffffffffffffffffffffffffffffff168273ffffffffffffffffffffffffffffffffffffffff16630dfe16816040518163ffffffff1660e01b815260040160206040518083038186803b15801561228957600080fd5b505afa15801561229d573d6000803e3d6000fd5b505050506040513d601f19601f820116820180604052508101906122c1919061295f565b73ffffffffffffffffffffffffffffffffffffffff1614156122e657600090506123c4565b8273ffffffffffffffffffffffffffffffffffffffff168273ffffffffffffffffffffffffffffffffffffffff1663d21220a76040518163ffffffff1660e01b815260040160206040518083038186803b15801561234357600080fd5b505afa158015612357573d6000803e3d6000fd5b505050506040513d601f19601f8201168201806040525081019061237b919061295f565b73ffffffffffffffffffffffffffffffffffffffff1614156123a057600190506123c4565b7fffffffffffffffffffffffffffffffffffffffffffffffffffffffffffffffff90505b92915050565b60008151905060006a636f6e736f6c652e6c6f679050602083016000808483855afa5050505050565b6040518060800160405280600073ffffffffffffffffffffffffffffffffffffffff16815260200160008152602001600073ffffffffffffffffffffffffffffffffffffffff168152602001600073ffffffffffffffffffffffffffffffffffffffff1681525090565b600061247061246b846132a6565b613281565b9050808382526020820190508285602086028201111561248f57600080fd5b60005b858110156124bf57816124a588826126d1565b845260208401935060208301925050600181019050612492565b5050509392505050565b60006124dc6124d7846132d2565b613281565b905080838252602082019050828560208602820111156124fb57600080fd5b60005b8581101561254557813567ffffffffffffffff81111561251d57600080fd5b80860161252a89826127a3565b855260208501945060208401935050506001810190506124fe565b5050509392505050565b600061256261255d846132fe565b613281565b9050808382526020820190508285602086028201111561258157600080fd5b60005b858110156125b1578161259788826127cd565b845260208401935060208301925050600181019050612584565b5050509392505050565b60006125ce6125c98461332a565b613281565b905080838252602082019050828560208602820111156125ed57600080fd5b60005b8581101561261d578161260388826127e2565b8452602084019350602083019250506001810190506125f0565b5050509392505050565b600061263a61263584613356565b613281565b9050808382526020820190508285608086028201111561265957600080fd5b60005b85811015612689578161266f8882612859565b84526020840193506080830192505060018101905061265c565b5050509392505050565b60006126a66126a184613382565b613281565b9050828152602081018484840111156126be57600080fd5b6126c9848285613957565b509392505050565b6000813590506126e081613c0c565b92915050565b6000815190506126f581613c0c565b92915050565b600082601f83011261270c57600080fd5b813561271c84826020860161245d565b91505092915050565b600082601f83011261273657600080fd5b81356127468482602086016124c9565b91505092915050565b600082601f83011261276057600080fd5b813561277084826020860161254f565b91505092915050565b600082601f83011261278a57600080fd5b813561279a8482602086016125bb565b91505092915050565b600082601f8301126127b457600080fd5b81356127c4848260208601612627565b91505092915050565b6000813590506127dc81613c23565b92915050565b6000813590506127f181613c3a565b92915050565b600082601f83011261280857600080fd5b8151612818848260208601612693565b91505092915050565b60006020828403121561283357600080fd5b61283d6020613281565b9050600061284d848285016128e2565b60008301525092915050565b60006080828403121561286b57600080fd5b6128756080613281565b90506000612885848285016127e2565b6000830152506020612899848285016128e2565b60208301525060406128ad848285016126d1565b60408301525060606128c1848285016126d1565b60608301525092915050565b6000815190506128dc81613c51565b92915050565b6000813590506128f181613c68565b92915050565b60008151905061290681613c68565b92915050565b60008151905061291b81613c7f565b92915050565b60008151905061293081613c96565b92915050565b60006020828403121561294857600080fd5b6000612956848285016126d1565b91505092915050565b60006020828403121561297157600080fd5b600061297f848285016126e6565b91505092915050565b6000806040838503121561299b57600080fd5b60006129a9858286016126d1565b92505060206129ba858286016126d1565b9150509250929050565b600080600080608085870312156129da57600080fd5b60006129e8878288016126d1565b94505060206129f9878288016126d1565b935050604085013567ffffffffffffffff811115612a1657600080fd5b612a2287828801612779565b9250506060612a33878288016128e2565b91505092959194509250565b6000806000806000806000806000806101408b8d031215612a5f57600080fd5b6000612a6d8d828e016126d1565b9a50506020612a7e8d828e016126d1565b99505060408b013567ffffffffffffffff811115612a9b57600080fd5b612aa78d828e01612779565b9850506060612ab88d828e016128e2565b97505060808b013567ffffffffffffffff811115612ad557600080fd5b612ae18d828e01612725565b96505060a0612af28d828e01612821565b95505060c08b013567ffffffffffffffff811115612b0f57600080fd5b612b1b8d828e016127a3565b94505060e0612b2c8d828e016128e2565b9350506101008b013567ffffffffffffffff811115612b4a57600080fd5b612b568d828e0161274f565b925050610120612b688d828e016126d1565b9150509295989b9194979a5092959850565b60008060408385031215612b8d57600080fd5b6000612b9b858286016126d1565b9250506020612bac858286016127e2565b9150509250929050565b600060208284031215612bc857600080fd5b600082013567ffffffffffffffff811115612be257600080fd5b612bee848285016126fb565b91505092915050565b60008060408385031215612c0a57600080fd5b600083013567ffffffffffffffff811115612c2457600080fd5b612c3085828601612725565b9250506020612c41858286016128e2565b9150509250929050565b60008060408385031215612c5e57600080fd5b600083013567ffffffffffffffff811115612c7857600080fd5b612c84858286016127a3565b9250506020612c95858286016128e2565b9150509250929050565b60008060408385031215612cb257600080fd5b6000612cc0858286016127e2565b9250506020612cd1858286016126d1565b9150509250929050565b600060208284031215612ced57600080fd5b600082015167ffffffffffffffff811115612d0757600080fd5b612d13848285016127f7565b91505092915050565b600080600060608486031215612d3157600080fd5b6000612d3f868287016128cd565b9350506020612d50868287016128cd565b9250506040612d618682870161290c565b9150509250925092565b600060208284031215612d7d57600080fd5b6000612d8b848285016128f7565b91505092915050565b600060208284031215612da657600080fd5b6000612db484828501612921565b91505092915050565b6000612dc98383612ef2565b905092915050565b6000612ddd8383612fbd565b60208301905092915050565b6000612df5838361306e565b60808301905092915050565b612e0a81613898565b82525050565b612e1981613898565b82525050565b6000612e2a826133e3565b612e348185613447565b935083602082028501612e46856133b3565b8060005b85811015612e825784840389528151612e638582612dbd565b9450612e6e8361340f565b925060208a01995050600181019050612e4a565b50829750879550505050505092915050565b6000612e9f826133ee565b612ea98185613436565b9350612eb4836133c3565b8060005b83811015612ee5578151612ecc8882612dd1565b9750612ed78361341c565b925050600181019050612eb8565b5085935050505092915050565b6000612efd826133f9565b612f078185613458565b9350612f12836133d3565b8060005b83811015612f43578151612f2a8882612de9565b9750612f3583613429565b925050600181019050612f16565b5085935050505092915050565b6000612f5b826133f9565b612f658185613469565b9350612f70836133d3565b8060005b83811015612fa1578151612f888882612de9565b9750612f9383613429565b925050600181019050612f74565b5085935050505092915050565b612fb7816138aa565b82525050565b612fc681613933565b82525050565b6000612fd782613404565b612fe1818561347a565b9350612ff1818560208601613957565b612ffa81613b4d565b840191505092915050565b600061301260268361347a565b915061301d82613b6b565b604082019050919050565b6000613035600c8361347a565b915061304082613bba565b602082019050919050565b600061305860208361347a565b915061306382613be3565b602082019050919050565b6080820160008201516130846000850182612fbd565b50602082015161309760208501826130c3565b5060408201516130aa6040850182612e01565b5060608201516130bd6060850182612e01565b50505050565b6130cc8161390c565b82525050565b6130db8161390c565b82525050565b60006020820190506130f66000830184612e10565b92915050565b60006040820190506131116000830185612e10565b61311e6020830184612e10565b9392505050565b6000602082019050818103600083015261313f8184612e1f565b905092915050565b600060208201905081810360008301526131618184612e94565b905092915050565b600060208201905081810360008301526131838184612f50565b905092915050565b60006020820190506131a06000830184612fae565b92915050565b600060408201905081810360008301526131c08185612fcc565b905081810360208301526131d48184612fcc565b90509392505050565b600060208201905081810360008301526131f681613005565b9050919050565b6000602082019050818103600083015261321681613028565b9050919050565b600060208201905081810360008301526132368161304b565b9050919050565b600060208201905061325260008301846130d2565b92915050565b600060408201905061326d60008301856130d2565b61327a60208301846130d2565b9392505050565b600061328b61329c565b905061329782826139fd565b919050565b6000604051905090565b600067ffffffffffffffff8211156132c1576132c0613b1e565b5b602082029050602081019050919050565b600067ffffffffffffffff8211156132ed576132ec613b1e565b5b602082029050602081019050919050565b600067ffffffffffffffff82111561331957613318613b1e565b5b602082029050602081019050919050565b600067ffffffffffffffff82111561334557613344613b1e565b5b602082029050602081019050919050565b600067ffffffffffffffff82111561337157613370613b1e565b5b602082029050602081019050919050565b600067ffffffffffffffff82111561339d5761339c613b1e565b5b6133a682613b4d565b9050602081019050919050565b6000819050602082019050919050565b6000819050602082019050919050565b6000819050602082019050919050565b600081519050919050565b600081519050919050565b600081519050919050565b600081519050919050565b6000602082019050919050565b6000602082019050919050565b6000602082019050919050565b600082825260208201905092915050565b600082825260208201905092915050565b600082825260208201905092915050565b600082825260208201905092915050565b600082825260208201905092915050565b6000613496826138c8565b91506134a1836138c8565b9250817f7fffffffffffffffffffffffffffffffffffffffffffffffffffffffffffffff038313600083121516156134dc576134db613ac0565b5b817f800000000000000000000000000000000000000000000000000000000000000003831260008312161561351457613513613ac0565b5b828201905092915050565b600061352a826138c8565b9150613535836138c8565b92508261354557613544613aef565b5b600160000383147f80000000000000000000000000000000000000000000000000000000000000008314161561357e5761357d613ac0565b5b828205905092915050565b60006135948261390c565b915061359f8361390c565b9250826135af576135ae613aef565b5b828204905092915050565b6000808291508390505b6001851115613604578086048111156135e0576135df613ac0565b5b60018516156135ef5780820291505b80810290506135fd85613b5e565b94506135c4565b94509492505050565b60006136188261390c565b91506136238361390c565b92506136507fffffffffffffffffffffffffffffffffffffffffffffffffffffffffffffffff84846136a3565b905092915050565b60006136638261390c565b915061366e83613926565b925061369b7fffffffffffffffffffffffffffffffffffffffffffffffffffffffffffffffff84846136a3565b905092915050565b6000826136b3576001905061376f565b816136c1576000905061376f565b81600181146136d757600281146136e157613710565b600191505061376f565b60ff8411156136f3576136f2613ac0565b5b8360020a91508482111561370a57613709613ac0565b5b5061376f565b5060208310610133831016604e8410600b84101617156137455782820a9050838111156137405761373f613ac0565b5b61376f565b61375284848460016135ba565b9250905081840481111561376957613768613ac0565b5b81810290505b9392505050565b60006137818261390c565b915061378c8361390c565b9250817fffffffffffffffffffffffffffffffffffffffffffffffffffffffffffffffff04831182151516156137c5576137c4613ac0565b5b828202905092915050565b60006137db826138c8565b91506137e6836138c8565b9250827f80000000000000000000000000000000000000000000000000000000000000000182126000841215161561382157613820613ac0565b5b827f7fffffffffffffffffffffffffffffffffffffffffffffffffffffffffffffff01821360008412161561385957613858613ac0565b5b828203905092915050565b600061386f8261390c565b915061387a8361390c565b92508282101561388d5761388c613ac0565b5b828203905092915050565b60006138a3826138ec565b9050919050565b60008115159050919050565b60006138c182613898565b9050919050565b6000819050919050565b60006dffffffffffffffffffffffffffff82169050919050565b600073ffffffffffffffffffffffffffffffffffffffff82169050919050565b6000819050919050565b600063ffffffff82169050919050565b600060ff82169050919050565b600061393e82613945565b9050919050565b6000613950826138ec565b9050919050565b60005b8381101561397557808201518184015260208101905061395a565b83811115613984576000848401525b50505050565b6000613995826138c8565b91507f80000000000000000000000000000000000000000000000000000000000000008214156139c8576139c7613ac0565b5b600182039050919050565b60006139de8261390c565b915060008214156139f2576139f1613ac0565b5b600182039050919050565b613a0682613b4d565b810181811067ffffffffffffffff82111715613a2557613a24613b1e565b5b80604052505050565b6000613a39826138c8565b91507f7fffffffffffffffffffffffffffffffffffffffffffffffffffffffffffffff821415613a6c57613a6b613ac0565b5b600182019050919050565b6000613a828261390c565b91507fffffffffffffffffffffffffffffffffffffffffffffffffffffffffffffffff821415613ab557613ab4613ac0565b5b600182019050919050565b7f4e487b7100000000000000000000000000000000000000000000000000000000600052601160045260246000fd5b7f4e487b7100000000000000000000000000000000000000000000000000000000600052601260045260246000fd5b7f4e487b7100000000000000000000000000000000000000000000000000000000600052604160045260246000fd5b6000601f19601f8301169050919050565b60008160011c9050919050565b7f4f776e61626c653a206e6577206f776e657220697320746865207a65726f206160008201527f6464726573730000000000000000000000000000000000000000000000000000602082015250565b7f496e76616c696420706174680000000000000000000000000000000000000000600082015250565b7f4f776e61626c653a2063616c6c6572206973206e6f7420746865206f776e6572600082015250565b613c1581613898565b8114613c2057600080fd5b50565b613c2c816138aa565b8114613c3757600080fd5b50565b613c43816138b6565b8114613c4e57600080fd5b50565b613c5a816138d2565b8114613c6557600080fd5b50565b613c718161390c565b8114613c7c57600080fd5b50565b613c8881613916565b8114613c9357600080fd5b50565b613c9f81613926565b8114613caa57600080fd5b5056fea2646970667358221220ff3a023e17d51d103e0fa7ba5581aa389f1d5c3c9d8940747bd85bd178906d7264736f6c63430008040033",
  "libraries": {
    "CustomSort": "0x553901Cd7Bb485Ecd625e0A3Dc5c70B40f58FE39"
  },
  "devdoc": {
    "kind": "dev",
    "methods": {
      "owner()": {
        "details": "Returns the address of the current owner."
      },
      "renounceOwnership()": {
        "details": "Leaves the contract without owner. It will not be possible to call `onlyOwner` functions anymore. Can only be called by the current owner. NOTE: Renouncing ownership will leave the contract without an owner, thereby removing any functionality that is only available to the owner."
      },
      "transferOwnership(address)": {
        "details": "Transfers ownership of the contract to a new account (`newOwner`). Can only be called by the current owner."
      }
    },
    "version": 1
  },
  "userdoc": {
    "kind": "user",
    "methods": {},
    "version": 1
  },
  "storageLayout": {
    "storage": [
      {
        "astId": 7,
        "contract": "contracts/PriceFetcher.sol:PriceFetcher",
        "label": "_owner",
        "offset": 0,
        "slot": "0",
        "type": "t_address"
      },
      {
        "astId": 565,
        "contract": "contracts/PriceFetcher.sol:PriceFetcher",
        "label": "pairFactoryAddress",
        "offset": 0,
        "slot": "1",
        "type": "t_address"
      },
      {
        "astId": 568,
        "contract": "contracts/PriceFetcher.sol:PriceFetcher",
        "label": "pairFactory",
        "offset": 0,
        "slot": "2",
        "type": "t_contract(IUniswapV2Factory)295"
      }
    ],
    "types": {
      "t_address": {
        "encoding": "inplace",
        "label": "address",
        "numberOfBytes": "20"
      },
      "t_contract(IUniswapV2Factory)295": {
        "encoding": "inplace",
        "label": "contract IUniswapV2Factory",
        "numberOfBytes": "20"
      }
    }
  }
}